{
  "_format": "hh-sol-artifact-1",
  "contractName": "BetFactory",
  "sourceName": "contracts/BetFactory.sol",
  "abi": [
    {
      "inputs": [],
      "stateMutability": "nonpayable",
      "type": "constructor"
    },
    {
      "anonymous": false,
      "inputs": [
        {
          "indexed": true,
          "internalType": "address",
          "name": "previousOwner",
          "type": "address"
        },
        {
          "indexed": true,
          "internalType": "address",
          "name": "newOwner",
          "type": "address"
        }
      ],
      "name": "OwnershipTransferred",
      "type": "event"
    },
    {
      "inputs": [
        {
          "internalType": "uint256",
          "name": "",
          "type": "uint256"
        }
      ],
      "name": "bets",
      "outputs": [
        {
          "internalType": "contract Bet",
          "name": "",
          "type": "address"
        }
      ],
      "stateMutability": "view",
      "type": "function"
    },
    {
      "inputs": [
        {
          "internalType": "uint256",
          "name": "deposit",
          "type": "uint256"
        },
        {
          "internalType": "string",
          "name": "description",
          "type": "string"
        },
        {
          "internalType": "uint256",
          "name": "expirationTime",
          "type": "uint256"
        }
      ],
      "name": "createBet",
      "outputs": [
        {
          "internalType": "contract Bet",
          "name": "",
          "type": "address"
        }
      ],
      "stateMutability": "nonpayable",
      "type": "function"
    },
    {
      "inputs": [],
      "name": "owner",
      "outputs": [
        {
          "internalType": "address",
          "name": "",
          "type": "address"
        }
      ],
      "stateMutability": "view",
      "type": "function"
    },
    {
      "inputs": [],
      "name": "renounceOwnership",
      "outputs": [],
      "stateMutability": "nonpayable",
      "type": "function"
    },
    {
      "inputs": [
        {
          "internalType": "address",
          "name": "newOwner",
          "type": "address"
        }
      ],
      "name": "transferOwnership",
      "outputs": [],
      "stateMutability": "nonpayable",
      "type": "function"
    }
  ],
  "bytecode": "0x608060405234801561001057600080fd5b5060006100216100cb60201b60201c565b9050806000806101000a81548173ffffffffffffffffffffffffffffffffffffffff021916908373ffffffffffffffffffffffffffffffffffffffff1602179055508073ffffffffffffffffffffffffffffffffffffffff16600073ffffffffffffffffffffffffffffffffffffffff167f8be0079c531659141344cd1fd0a4f28419497f9722a3daafe3b4186f6b6457e060405160405180910390a350600180819055506100d3565b600033905090565b61227a806100e26000396000f3fe608060405234801561001057600080fd5b50600436106100575760003560e01c806322af00fa1461005c578063715018a6146100b45780638147e0f1146100be5780638da5cb5b146101b7578063f2fde38b146101eb575b600080fd5b6100886004803603602081101561007257600080fd5b810190808035906020019092919050505061022f565b604051808273ffffffffffffffffffffffffffffffffffffffff16815260200191505060405180910390f35b6100bc61026b565b005b61018b600480360360608110156100d457600080fd5b8101908080359060200190929190803590602001906401000000008111156100fb57600080fd5b82018360208201111561010d57600080fd5b8035906020019184600183028401116401000000008311171561012f57600080fd5b91908080601f016020809104026020016040519081016040528093929190818152602001838380828437600081840152601f19601f820116905080830192505050505050509192919290803590602001909291905050506103f1565b604051808273ffffffffffffffffffffffffffffffffffffffff16815260200191505060405180910390f35b6101bf610634565b604051808273ffffffffffffffffffffffffffffffffffffffff16815260200191505060405180910390f35b61022d6004803603602081101561020157600080fd5b81019080803573ffffffffffffffffffffffffffffffffffffffff16906020019092919050505061065d565b005b6002818154811061023c57fe5b906000526020600020016000915054906101000a900473ffffffffffffffffffffffffffffffffffffffff1681565b610273610868565b73ffffffffffffffffffffffffffffffffffffffff1660008054906101000a900473ffffffffffffffffffffffffffffffffffffffff1673ffffffffffffffffffffffffffffffffffffffff1614610333576040517f08c379a00000000000000000000000000000000000000000000000000000000081526004018080602001828103825260208152602001807f4f776e61626c653a2063616c6c6572206973206e6f7420746865206f776e657281525060200191505060405180910390fd5b600073ffffffffffffffffffffffffffffffffffffffff1660008054906101000a900473ffffffffffffffffffffffffffffffffffffffff1673ffffffffffffffffffffffffffffffffffffffff167f8be0079c531659141344cd1fd0a4f28419497f9722a3daafe3b4186f6b6457e060405160405180910390a360008060006101000a81548173ffffffffffffffffffffffffffffffffffffffff021916908373ffffffffffffffffffffffffffffffffffffffff160217905550565b60006002600154141561046c576040517f08c379a000000000000000000000000000000000000000000000000000000000815260040180806020018281038252601f8152602001807f5265656e7472616e637947756172643a207265656e7472616e742063616c6c0081525060200191505060405180910390fd5b600260018190555060003073ffffffffffffffffffffffffffffffffffffffff16638da5cb5b6040518163ffffffff1660e01b815260040160206040518083038186803b1580156104bc57600080fd5b505afa1580156104d0573d6000803e3d6000fd5b505050506040513d60208110156104e657600080fd5b810190808051906020019092919050505085858560405161050690610870565b808573ffffffffffffffffffffffffffffffffffffffff16815260200184815260200180602001838152602001828103825284818151815260200191508051906020019080838360005b8381101561056b578082015181840152602081019050610550565b50505050905090810190601f1680156105985780820380516001836020036101000a031916815260200191505b5095505050505050604051809103906000f0801580156105bc573d6000803e3d6000fd5b5090506002819080600181540180825580915050600190039060005260206000200160009091909190916101000a81548173ffffffffffffffffffffffffffffffffffffffff021916908373ffffffffffffffffffffffffffffffffffffffff16021790555080915050600180819055509392505050565b60008060009054906101000a900473ffffffffffffffffffffffffffffffffffffffff16905090565b610665610868565b73ffffffffffffffffffffffffffffffffffffffff1660008054906101000a900473ffffffffffffffffffffffffffffffffffffffff1673ffffffffffffffffffffffffffffffffffffffff1614610725576040517f08c379a00000000000000000000000000000000000000000000000000000000081526004018080602001828103825260208152602001807f4f776e61626c653a2063616c6c6572206973206e6f7420746865206f776e657281525060200191505060405180910390fd5b600073ffffffffffffffffffffffffffffffffffffffff168173ffffffffffffffffffffffffffffffffffffffff1614156107ab576040517f08c379a000000000000000000000000000000000000000000000000000000000815260040180806020018281038252602681526020018061221f6026913960400191505060405180910390fd5b8073ffffffffffffffffffffffffffffffffffffffff1660008054906101000a900473ffffffffffffffffffffffffffffffffffffffff1673ffffffffffffffffffffffffffffffffffffffff167f8be0079c531659141344cd1fd0a4f28419497f9722a3daafe3b4186f6b6457e060405160405180910390a3806000806101000a81548173ffffffffffffffffffffffffffffffffffffffff021916908373ffffffffffffffffffffffffffffffffffffffff16021790555050565b600033905090565b6119a18061087e8339019056fe60806040523480156200001157600080fd5b50604051620019a1380380620019a1833981810160405260808110156200003757600080fd5b810190808051906020019092919080519060200190929190805160405193929190846401000000008211156200006c57600080fd5b838201915060208201858111156200008357600080fd5b8251866001820283011164010000000082111715620000a157600080fd5b8083526020830192505050908051906020019080838360005b83811015620000d7578082015181840152602081019050620000ba565b50505050905090810190601f168015620001055780820380516001836020036101000a031916815260200191505b50604052602001805190602001909291905050506001600081905550600260005414156200019b576040517f08c379a000000000000000000000000000000000000000000000000000000000815260040180806020018281038252601f8152602001807f5265656e7472616e637947756172643a207265656e7472616e742063616c6c0081525060200191505060405180910390fd5b600260008190555083600160000160006101000a81548173ffffffffffffffffffffffffffffffffffffffff021916908373ffffffffffffffffffffffffffffffffffffffff16021790555081600160020190805190602001906200020292919062000250565b50826001600301819055508060018001819055506000600160040160006101000a81548160ff021916908360058111156200023957fe5b0217905550600160008190555050505050620002f6565b828054600181600116156101000203166002900490600052602060002090601f016020900481019282601f106200029357805160ff1916838001178555620002c4565b82800160010185558215620002c4579182015b82811115620002c3578251825591602001919060010190620002a6565b5b509050620002d39190620002d7565b5090565b5b80821115620002f2576000816000905550600101620002d8565b5090565b61169b80620003066000396000f3fe608060405234801561001057600080fd5b506004361061007d5760003560e01c80635f6259ee1161005b5780635f6259ee146101235780639204e968146101e3578063a21d942f1461020c578063f3691f3a146102165761007d565b806311610c251461008257806338d00172146100ab5780634b9f5c98146100d4575b600080fd5b61008a61023f565b6040518082600581111561009a57fe5b815260200191505060405180910390f35b6100b361051b565b604051808260058111156100c357fe5b815260200191505060405180910390f35b610102600480360360208110156100ea57600080fd5b81019080803515159060200190929190505050610897565b6040518082600581111561011257fe5b815260200191505060405180910390f35b61012b610c42565b604051808673ffffffffffffffffffffffffffffffffffffffff1681526020018581526020018060200184815260200183600581111561016757fe5b8152602001828103825285818151815260200191508051906020019080838360005b838110156101a4578082015181840152602081019050610189565b50505050905090810190601f1680156101d15780820380516001836020036101000a031916815260200191505b50965050505050505060405180910390f35b6101eb610d2b565b604051808260058111156101fb57fe5b815260200191505060405180910390f35b6102146111a6565b005b61021e6111a8565b6040518082600581111561022e57fe5b815260200191505060405180910390f35b60008073ffffffffffffffffffffffffffffffffffffffff16600160060160007f685cbe58d4098fac8330e909dac36f447a9209d2b24413a861fd9643c6c2999a815260200190815260200160002060009054906101000a900473ffffffffffffffffffffffffffffffffffffffff1673ffffffffffffffffffffffffffffffffffffffff1614610338576040517f08c379a00000000000000000000000000000000000000000000000000000000081526004018080602001828103825260158152602001807f426574746f7220616c726561647920657869737473000000000000000000000081525060200191505060405180910390fd5b6000801b600160050160003373ffffffffffffffffffffffffffffffffffffffff1673ffffffffffffffffffffffffffffffffffffffff16815260200190815260200160002054146103d5576040517f08c379a00000000000000000000000000000000000000000000000000000000081526004018080602001828103825260218152602001806116246021913960400191505060405180910390fd5b7f685cbe58d4098fac8330e909dac36f447a9209d2b24413a861fd9643c6c2999a600160050160003373ffffffffffffffffffffffffffffffffffffffff1673ffffffffffffffffffffffffffffffffffffffff1681526020019081526020016000208190555033600160060160007f685cbe58d4098fac8330e909dac36f447a9209d2b24413a861fd9643c6c2999a815260200190815260200160002060006101000a81548173ffffffffffffffffffffffffffffffffffffffff021916908373ffffffffffffffffffffffffffffffffffffffff16021790555060018060040160006101000a81548160ff021916908360058111156104d257fe5b02179055507fad52e004581162b60ca309f2ded2dac356fce5e88fe48b89c8539b71009af5a860405160405180910390a1600160040160009054906101000a900460ff16905090565b60006001600581111561052a57fe5b600160040160009054906101000a900460ff16600581111561054857fe5b146105bb576040517f08c379a00000000000000000000000000000000000000000000000000000000081526004018080602001828103825260158152602001807f466972737420626574746572206d75737420626574000000000000000000000081525060200191505060405180910390fd5b600073ffffffffffffffffffffffffffffffffffffffff16600160060160007f2cd00aae05936216d949074140c6df80df0c371c39612aecda646a5eb38ea26d815260200190815260200160002060009054906101000a900473ffffffffffffffffffffffffffffffffffffffff1673ffffffffffffffffffffffffffffffffffffffff16146106b3576040517f08c379a000000000000000000000000000000000000000000000000000000000815260040180806020018281038252601b8152602001807f436f756e7420626574746f7220616c726561647920657869737473000000000081525060200191505060405180910390fd5b6000801b600160050160003373ffffffffffffffffffffffffffffffffffffffff1673ffffffffffffffffffffffffffffffffffffffff1681526020019081526020016000205414610750576040517f08c379a00000000000000000000000000000000000000000000000000000000081526004018080602001828103825260218152602001806116246021913960400191505060405180910390fd5b7f2cd00aae05936216d949074140c6df80df0c371c39612aecda646a5eb38ea26d600160050160003373ffffffffffffffffffffffffffffffffffffffff1673ffffffffffffffffffffffffffffffffffffffff1681526020019081526020016000208190555033600160060160007f2cd00aae05936216d949074140c6df80df0c371c39612aecda646a5eb38ea26d815260200190815260200160002060006101000a81548173ffffffffffffffffffffffffffffffffffffffff021916908373ffffffffffffffffffffffffffffffffffffffff1602179055506003600160040160006101000a81548160ff0219169083600581111561084e57fe5b02179055507fe65725e05483785e1130b4cc56489021cf4d549ff748b41a7e21643c93c8f94760405160405180910390a1600160040160009054906101000a900460ff16905090565b6000337f32f362939feeddf98eccc44e698411fe6ec6a883b233638978ad33951461fc5b600160050160008373ffffffffffffffffffffffffffffffffffffffff1673ffffffffffffffffffffffffffffffffffffffff16815260200190815260200160002054148061096b57507f4f1edc0ca9283811223635e0c6047a826fb8cfbfe336a7cf471f73498956f6e9600160050160008373ffffffffffffffffffffffffffffffffffffffff1673ffffffffffffffffffffffffffffffffffffffff16815260200190815260200160002054145b6109dd576040517f08c379a00000000000000000000000000000000000000000000000000000000081526004018080602001828103825260158152602001807f53656e646572206973206e6f742061206a75646765000000000000000000000081525060200191505060405180910390fd5b3360011515600160070160008373ffffffffffffffffffffffffffffffffffffffff1673ffffffffffffffffffffffffffffffffffffffff16815260200190815260200160002060009054906101000a900460ff1615151415610aa8576040517f08c379a00000000000000000000000000000000000000000000000000000000081526004018080602001828103825260148152602001807f4a7564676520616c726561647920766f7465642100000000000000000000000081525060200191505060405180910390fd5b60018060070160003373ffffffffffffffffffffffffffffffffffffffff1673ffffffffffffffffffffffffffffffffffffffff16815260200190815260200160002060006101000a81548160ff02191690831515021790555060016008018490806001815401808255809150506001900390600052602060002090602091828204019190069091909190916101000a81548160ff0219169083151502179055507f32f362939feeddf98eccc44e698411fe6ec6a883b233638978ad33951461fc5b600160050160003373ffffffffffffffffffffffffffffffffffffffff1673ffffffffffffffffffffffffffffffffffffffff168152602001908152602001600020541415610bf9577fd89ebd9a9cca6ebba580e05592145278b3e03c245ce739e509635f395d731fad60405160405180910390a1600160040160009054906101000a900460ff169250610c3b565b7f1a2813ec42a75f934f1088b02fb9063c9a98a7a7bcd868dca15cf379b96f28b160405160405180910390a1600160040160009054906101000a900460ff1692505b5050919050565b60018060000160009054906101000a900473ffffffffffffffffffffffffffffffffffffffff1690806001015490806002018054600181600116156101000203166002900480601f016020809104026020016040519081016040528092919081815260200182805460018160011615610100020316600290048015610d085780601f10610cdd57610100808354040283529160200191610d08565b820191906000526020600020905b815481529060010190602001808311610ceb57829003601f168201915b5050505050908060030154908060040160009054906101000a900460ff16905085565b600060036005811115610d3a57fe5b600160040160009054906101000a900460ff166005811115610d5857fe5b14610dcb576040517f08c379a00000000000000000000000000000000000000000000000000000000081526004018080602001828103825260208152602001807f426574206d7573742062652061637469766520746f20616464206a756467657381525060200191505060405180910390fd5b600073ffffffffffffffffffffffffffffffffffffffff16600160060160007f4f1edc0ca9283811223635e0c6047a826fb8cfbfe336a7cf471f73498956f6e9815260200190815260200160002060009054906101000a900473ffffffffffffffffffffffffffffffffffffffff1673ffffffffffffffffffffffffffffffffffffffff1614610ea6576040517f08c379a00000000000000000000000000000000000000000000000000000000081526004018080602001828103825260218152602001806116456021913960400191505060405180910390fd5b6000801b600160050160003373ffffffffffffffffffffffffffffffffffffffff1673ffffffffffffffffffffffffffffffffffffffff1681526020019081526020016000205414610f43576040517f08c379a00000000000000000000000000000000000000000000000000000000081526004018080602001828103825260218152602001806116246021913960400191505060405180910390fd5b7f4f1edc0ca9283811223635e0c6047a826fb8cfbfe336a7cf471f73498956f6e9600160050160003373ffffffffffffffffffffffffffffffffffffffff1673ffffffffffffffffffffffffffffffffffffffff1681526020019081526020016000208190555033600160060160007f4f1edc0ca9283811223635e0c6047a826fb8cfbfe336a7cf471f73498956f6e9815260200190815260200160002060006101000a81548173ffffffffffffffffffffffffffffffffffffffff021916908373ffffffffffffffffffffffffffffffffffffffff1602179055507f0e189ac5fa1043014d68eb18a922caa92bbf9f4ea4392dbd3f021b46b29ac44160405160405180910390a1600160040160009054906101000a900460ff169050600073ffffffffffffffffffffffffffffffffffffffff16600160060160007f32f362939feeddf98eccc44e698411fe6ec6a883b233638978ad33951461fc5b815260200190815260200160002060009054906101000a900473ffffffffffffffffffffffffffffffffffffffff1673ffffffffffffffffffffffffffffffffffffffff16141580156111765750600073ffffffffffffffffffffffffffffffffffffffff16600160060160007f4f1edc0ca9283811223635e0c6047a826fb8cfbfe336a7cf471f73498956f6e9815260200190815260200160002060009054906101000a900473ffffffffffffffffffffffffffffffffffffffff1673ffffffffffffffffffffffffffffffffffffffff1614155b156111a3576002600160040160006101000a81548160ff0219169083600581111561119d57fe5b02179055505b90565b565b6000600360058111156111b757fe5b600160040160009054906101000a900460ff1660058111156111d557fe5b14611248576040517f08c379a00000000000000000000000000000000000000000000000000000000081526004018080602001828103825260208152602001807f426574206d7573742062652061637469766520746f20616464206a756467657381525060200191505060405180910390fd5b600073ffffffffffffffffffffffffffffffffffffffff16600160060160007f32f362939feeddf98eccc44e698411fe6ec6a883b233638978ad33951461fc5b815260200190815260200160002060009054906101000a900473ffffffffffffffffffffffffffffffffffffffff1673ffffffffffffffffffffffffffffffffffffffff1614611323576040517f08c379a00000000000000000000000000000000000000000000000000000000081526004018080602001828103825260218152602001806116456021913960400191505060405180910390fd5b6000801b600160050160003373ffffffffffffffffffffffffffffffffffffffff1673ffffffffffffffffffffffffffffffffffffffff16815260200190815260200160002054146113c0576040517f08c379a00000000000000000000000000000000000000000000000000000000081526004018080602001828103825260218152602001806116246021913960400191505060405180910390fd5b7f32f362939feeddf98eccc44e698411fe6ec6a883b233638978ad33951461fc5b600160050160003373ffffffffffffffffffffffffffffffffffffffff1673ffffffffffffffffffffffffffffffffffffffff1681526020019081526020016000208190555033600160060160007f32f362939feeddf98eccc44e698411fe6ec6a883b233638978ad33951461fc5b815260200190815260200160002060006101000a81548173ffffffffffffffffffffffffffffffffffffffff021916908373ffffffffffffffffffffffffffffffffffffffff1602179055507f558629cdb814b092394a3253f941891a27ec621c5e8c881918258209969836bc60405160405180910390a1600160040160009054906101000a900460ff169050600073ffffffffffffffffffffffffffffffffffffffff16600160060160007f32f362939feeddf98eccc44e698411fe6ec6a883b233638978ad33951461fc5b815260200190815260200160002060009054906101000a900473ffffffffffffffffffffffffffffffffffffffff1673ffffffffffffffffffffffffffffffffffffffff16141580156115f35750600073ffffffffffffffffffffffffffffffffffffffff16600160060160007f4f1edc0ca9283811223635e0c6047a826fb8cfbfe336a7cf471f73498956f6e9815260200190815260200160002060009054906101000a900473ffffffffffffffffffffffffffffffffffffffff1673ffffffffffffffffffffffffffffffffffffffff1614155b15611620576002600160040160006101000a81548160ff0219169083600581111561161a57fe5b02179055505b9056fe4170706c6963616e7420616c72656164792070617274206f662074686520626574436f756e7420626574746f72206a7564676520616c726561647920657869737473a264697066735822122016a550ce3a7383af43b4ce29adcbb860d46b57ca9e56d9700e1e48331858d82964736f6c634300070300334f776e61626c653a206e6577206f776e657220697320746865207a65726f2061646472657373a2646970667358221220316a3f7589f86fa52ff4fe06bf2f51f7810a9c3d8ac650443b355b1719d5d77664736f6c63430007030033",
  "linkReferences": {},
  "deployedLinkReferences": {}
}