{
  "contractName": "Bet",
  "abi": [
    {
      "inputs": [
        {
          "internalType": "address",
          "name": "_admin",
          "type": "address"
        },
        {
          "internalType": "address",
          "name": "_betCreator",
          "type": "address"
        },
        {
          "internalType": "string",
          "name": "_betCreatorName",
          "type": "string"
        },
        {
          "internalType": "address",
          "name": "_opponent",
          "type": "address"
        },
        {
          "internalType": "address[]",
          "name": "_creatorJudges",
          "type": "address[]"
        },
        {
          "internalType": "uint256",
          "name": "_minimumDeposit",
          "type": "uint256"
        },
        {
          "internalType": "uint256",
          "name": "_expirationTime",
          "type": "uint256"
        }
      ],
      "stateMutability": "nonpayable",
      "type": "constructor"
    },
    {
      "anonymous": false,
      "inputs": [
        {
          "indexed": true,
          "internalType": "bytes32",
          "name": "role",
          "type": "bytes32"
        },
        {
          "indexed": true,
          "internalType": "bytes32",
          "name": "previousAdminRole",
          "type": "bytes32"
        },
        {
          "indexed": true,
          "internalType": "bytes32",
          "name": "newAdminRole",
          "type": "bytes32"
        }
      ],
      "name": "RoleAdminChanged",
      "type": "event"
    },
    {
      "anonymous": false,
      "inputs": [
        {
          "indexed": true,
          "internalType": "bytes32",
          "name": "role",
          "type": "bytes32"
        },
        {
          "indexed": true,
          "internalType": "address",
          "name": "account",
          "type": "address"
        },
        {
          "indexed": true,
          "internalType": "address",
          "name": "sender",
          "type": "address"
        }
      ],
      "name": "RoleGranted",
      "type": "event"
    },
    {
      "anonymous": false,
      "inputs": [
        {
          "indexed": true,
          "internalType": "bytes32",
          "name": "role",
          "type": "bytes32"
        },
        {
          "indexed": true,
          "internalType": "address",
          "name": "account",
          "type": "address"
        },
        {
          "indexed": true,
          "internalType": "address",
          "name": "sender",
          "type": "address"
        }
      ],
      "name": "RoleRevoked",
      "type": "event"
    },
    {
      "inputs": [],
      "name": "BET_CREATOR_ROLE",
      "outputs": [
        {
          "internalType": "bytes32",
          "name": "",
          "type": "bytes32"
        }
      ],
      "stateMutability": "view",
      "type": "function"
    },
    {
      "inputs": [],
      "name": "BET_TAKER_ROLE",
      "outputs": [
        {
          "internalType": "bytes32",
          "name": "",
          "type": "bytes32"
        }
      ],
      "stateMutability": "view",
      "type": "function"
    },
    {
      "inputs": [],
      "name": "DEFAULT_ADMIN_ROLE",
      "outputs": [
        {
          "internalType": "bytes32",
          "name": "",
          "type": "bytes32"
        }
      ],
      "stateMutability": "view",
      "type": "function"
    },
    {
      "inputs": [],
      "name": "JUDGE_ROLE",
      "outputs": [
        {
          "internalType": "bytes32",
          "name": "",
          "type": "bytes32"
        }
      ],
      "stateMutability": "view",
      "type": "function"
    },
    {
      "inputs": [],
      "name": "MAX_JUDGES",
      "outputs": [
        {
          "internalType": "uint256",
          "name": "",
          "type": "uint256"
        }
      ],
      "stateMutability": "view",
      "type": "function"
    },
    {
      "inputs": [],
      "name": "betOver",
      "outputs": [
        {
          "internalType": "bool",
          "name": "",
          "type": "bool"
        }
      ],
      "stateMutability": "view",
      "type": "function"
    },
    {
      "inputs": [
        {
          "internalType": "address",
          "name": "",
          "type": "address"
        }
      ],
      "name": "bettors",
      "outputs": [
        {
          "internalType": "string",
          "name": "name",
          "type": "string"
        },
        {
          "internalType": "uint256",
          "name": "votes",
          "type": "uint256"
        }
      ],
      "stateMutability": "view",
      "type": "function"
    },
    {
      "inputs": [
        {
          "internalType": "address",
          "name": "",
          "type": "address"
        }
      ],
      "name": "didVote",
      "outputs": [
        {
          "internalType": "bool",
          "name": "",
          "type": "bool"
        }
      ],
      "stateMutability": "view",
      "type": "function"
    },
    {
      "inputs": [],
      "name": "expirationTime",
      "outputs": [
        {
          "internalType": "uint256",
          "name": "",
          "type": "uint256"
        }
      ],
      "stateMutability": "view",
      "type": "function"
    },
    {
      "inputs": [
        {
          "internalType": "bytes32",
          "name": "role",
          "type": "bytes32"
        }
      ],
      "name": "getRoleAdmin",
      "outputs": [
        {
          "internalType": "bytes32",
          "name": "",
          "type": "bytes32"
        }
      ],
      "stateMutability": "view",
      "type": "function"
    },
    {
      "inputs": [
        {
          "internalType": "bytes32",
          "name": "role",
          "type": "bytes32"
        },
        {
          "internalType": "uint256",
          "name": "index",
          "type": "uint256"
        }
      ],
      "name": "getRoleMember",
      "outputs": [
        {
          "internalType": "address",
          "name": "",
          "type": "address"
        }
      ],
      "stateMutability": "view",
      "type": "function"
    },
    {
      "inputs": [
        {
          "internalType": "bytes32",
          "name": "role",
          "type": "bytes32"
        }
      ],
      "name": "getRoleMemberCount",
      "outputs": [
        {
          "internalType": "uint256",
          "name": "",
          "type": "uint256"
        }
      ],
      "stateMutability": "view",
      "type": "function"
    },
    {
      "inputs": [
        {
          "internalType": "bytes32",
          "name": "role",
          "type": "bytes32"
        },
        {
          "internalType": "address",
          "name": "account",
          "type": "address"
        }
      ],
      "name": "grantRole",
      "outputs": [],
      "stateMutability": "nonpayable",
      "type": "function"
    },
    {
      "inputs": [
        {
          "internalType": "bytes32",
          "name": "role",
          "type": "bytes32"
        },
        {
          "internalType": "address",
          "name": "account",
          "type": "address"
        }
      ],
      "name": "hasRole",
      "outputs": [
        {
          "internalType": "bool",
          "name": "",
          "type": "bool"
        }
      ],
      "stateMutability": "view",
      "type": "function"
    },
    {
      "inputs": [],
      "name": "minimumDeposit",
      "outputs": [
        {
          "internalType": "uint256",
          "name": "",
          "type": "uint256"
        }
      ],
      "stateMutability": "view",
      "type": "function"
    },
    {
      "inputs": [
        {
          "internalType": "bytes32",
          "name": "role",
          "type": "bytes32"
        },
        {
          "internalType": "address",
          "name": "account",
          "type": "address"
        }
      ],
      "name": "renounceRole",
      "outputs": [],
      "stateMutability": "nonpayable",
      "type": "function"
    },
    {
      "inputs": [
        {
          "internalType": "bytes32",
          "name": "role",
          "type": "bytes32"
        },
        {
          "internalType": "address",
          "name": "account",
          "type": "address"
        }
      ],
      "name": "revokeRole",
      "outputs": [],
      "stateMutability": "nonpayable",
      "type": "function"
    },
    {
      "stateMutability": "payable",
      "type": "receive"
    },
    {
      "inputs": [],
      "name": "getBalance",
      "outputs": [
        {
          "internalType": "uint256",
          "name": "",
          "type": "uint256"
        }
      ],
      "stateMutability": "view",
      "type": "function"
    },
    {
      "inputs": [
        {
          "internalType": "address[]",
          "name": "_opponentJudges",
          "type": "address[]"
        },
        {
          "internalType": "string",
          "name": "_betTakerName",
          "type": "string"
        }
      ],
      "name": "acceptBet",
      "outputs": [],
      "stateMutability": "payable",
      "type": "function"
    },
    {
      "inputs": [
        {
          "internalType": "address",
          "name": "_candidate",
          "type": "address"
        }
      ],
      "name": "judgeVote",
      "outputs": [],
      "stateMutability": "nonpayable",
      "type": "function"
    }
  ],
  "bytecode": "0x60806040526000600360006101000a81548160ff0219169083151502179055503480156200002c57600080fd5b506040516200203638038062002036833981810160405260e08110156200005257600080fd5b810190808051906020019092919080519060200190929190805160405193929190846401000000008211156200008757600080fd5b838201915060208201858111156200009e57600080fd5b8251866001820283011164010000000082111715620000bc57600080fd5b8083526020830192505050908051906020019080838360005b83811015620000f2578082015181840152602081019050620000d5565b50505050905090810190601f168015620001205780820380516001836020036101000a031916815260200191505b5060405260200180519060200190929190805160405193929190846401000000008211156200014e57600080fd5b838201915060208201858111156200016557600080fd5b82518660208202830111640100000000821117156200018357600080fd5b8083526020830192505050908051906020019060200280838360005b83811015620001bc5780820151818401526020810190506200019f565b5050505090500160405260200180519060200190929190805190602001909291905050508260028151146200023d576040517f08c379a0000000000000000000000000000000000000000000000000000000008152600401808060200182810382526026815260200180620020106026913960400191505060405180910390fd5b620002526000801b896200036460201b60201c565b620002847f61d1bb7d7688fec169e00198b1bfb0436edf7b7587f293f9b0134c8cd6b65455886200036460201b60201c565b620002b67f73fd03b4d1a4566cea36b263466aa5c47d098c2cd6a202bf47c932dc6689b4b4866200036460201b60201c565b620002c7846200037a60201b60201c565b60405180604001604052808781526020016000815250600560008973ffffffffffffffffffffffffffffffffffffffff1673ffffffffffffffffffffffffffffffffffffffff16815260200190815260200160002060008201518160000190805190602001906200033a9291906200055f565b50602082015181600101559050508260028190555081600181905550505050505050505062000605565b620003768282620003df60201b60201c565b5050565b60005b8151811015620003db57620003cd7f9c4e6fd68fbdec6e3075ec7bfba710532af019aea93f5f59ebfe5a9d1a0b894e838381518110620003b957fe5b60200260200101516200036460201b60201c565b80806001019150506200037d565b5050565b6200040d816000808581526020019081526020016000206000016200048260201b620013761790919060201c565b156200047e5762000423620004ba60201b60201c565b73ffffffffffffffffffffffffffffffffffffffff168173ffffffffffffffffffffffffffffffffffffffff16837f2f8788117e7eff1d82e926ec794901d17c78024a50270940304540a733656f0d60405160405180910390a45b5050565b6000620004b2836000018373ffffffffffffffffffffffffffffffffffffffff1660001b620004c260201b60201c565b905092915050565b600033905090565b6000620004d683836200053c60201b60201c565b6200053157826000018290806001815401808255809150506001900390600052602060002001600090919091909150558260000180549050836001016000848152602001908152602001600020819055506001905062000536565b600090505b92915050565b600080836001016000848152602001908152602001600020541415905092915050565b828054600181600116156101000203166002900490600052602060002090601f016020900481019282601f10620005a257805160ff1916838001178555620005d3565b82800160010185558215620005d3579182015b82811115620005d2578251825591602001919060010190620005b5565b5b509050620005e29190620005e6565b5090565b5b8082111562000601576000816000905550600101620005e7565b5090565b6119fb80620006156000396000f3fe6080604052600436106101235760003560e01c80635ef76cd6116100a0578063ca15c87311610064578063ca15c873146105cc578063d547741f1461061b578063da284dcc14610676578063e0e47588146106a1578063e28e3bbd146106cc5761012a565b80635ef76cd61461046b578063636bfbab146104965780639010d07c146104c157806391d1485414610530578063a217fddf146105a15761012a565b80632d0a64c1116100e75780632d0a64c1146102d05780632f2ff15d146102fd578063354d91de1461035857806336568abe146103bf5780635e536deb1461041a5761012a565b806306a29fa91461012f578063098291441461015a57806312065fe01461018557806322010c1f146101b0578063248a9ca3146102815761012a565b3661012a57005b600080fd5b34801561013b57600080fd5b5061014461081b565b6040518082815260200191505060405180910390f35b34801561016657600080fd5b5061016f610820565b6040518082815260200191505060405180910390f35b34801561019157600080fd5b5061019a610844565b6040518082815260200191505060405180910390f35b3480156101bc57600080fd5b506101ff600480360360208110156101d357600080fd5b81019080803573ffffffffffffffffffffffffffffffffffffffff16906020019092919050505061084c565b6040518080602001838152602001828103825284818151815260200191508051906020019080838360005b8381101561024557808201518184015260208101905061022a565b50505050905090810190601f1680156102725780820380516001836020036101000a031916815260200191505b50935050505060405180910390f35b34801561028d57600080fd5b506102ba600480360360208110156102a457600080fd5b8101908080359060200190929190505050610908565b6040518082815260200191505060405180910390f35b3480156102dc57600080fd5b506102e5610927565b60405180821515815260200191505060405180910390f35b34801561030957600080fd5b506103566004803603604081101561032057600080fd5b8101908080359060200190929190803573ffffffffffffffffffffffffffffffffffffffff16906020019092919050505061093a565b005b34801561036457600080fd5b506103a76004803603602081101561037b57600080fd5b81019080803573ffffffffffffffffffffffffffffffffffffffff1690602001909291905050506109c3565b60405180821515815260200191505060405180910390f35b3480156103cb57600080fd5b50610418600480360360408110156103e257600080fd5b8101908080359060200190929190803573ffffffffffffffffffffffffffffffffffffffff1690602001909291905050506109e3565b005b34801561042657600080fd5b506104696004803603602081101561043d57600080fd5b81019080803573ffffffffffffffffffffffffffffffffffffffff169060200190929190505050610a7c565b005b34801561047757600080fd5b50610480610e44565b6040518082815260200191505060405180910390f35b3480156104a257600080fd5b506104ab610e68565b6040518082815260200191505060405180910390f35b3480156104cd57600080fd5b50610504600480360360408110156104e457600080fd5b810190808035906020019092919080359060200190929190505050610e6e565b604051808273ffffffffffffffffffffffffffffffffffffffff16815260200191505060405180910390f35b34801561053c57600080fd5b506105896004803603604081101561055357600080fd5b8101908080359060200190929190803573ffffffffffffffffffffffffffffffffffffffff169060200190929190505050610e9f565b60405180821515815260200191505060405180910390f35b3480156105ad57600080fd5b506105b6610ed0565b6040518082815260200191505060405180910390f35b3480156105d857600080fd5b50610605600480360360208110156105ef57600080fd5b8101908080359060200190929190505050610ed7565b6040518082815260200191505060405180910390f35b34801561062757600080fd5b506106746004803603604081101561063e57600080fd5b8101908080359060200190929190803573ffffffffffffffffffffffffffffffffffffffff169060200190929190505050610efd565b005b34801561068257600080fd5b5061068b610f86565b6040518082815260200191505060405180910390f35b3480156106ad57600080fd5b506106b6610f8c565b6040518082815260200191505060405180910390f35b610819600480360360408110156106e257600080fd5b81019080803590602001906401000000008111156106ff57600080fd5b82018360208201111561071157600080fd5b8035906020019184602083028401116401000000008311171561073357600080fd5b919080806020026020016040519081016040528093929190818152602001838360200280828437600081840152601f19601f8201169050808301925050505050505091929192908035906020019064010000000081111561079357600080fd5b8201836020820111156107a557600080fd5b803590602001918460018302840111640100000000831117156107c757600080fd5b91908080601f016020809104026020016040519081016040528093929190818152602001838380828437600081840152601f19601f820116905080830192505050505050509192919290505050610fb0565b005b600281565b7f61d1bb7d7688fec169e00198b1bfb0436edf7b7587f293f9b0134c8cd6b6545581565b600047905090565b6005602052806000526040600020600091509050806000018054600181600116156101000203166002900480601f0160208091040260200160405190810160405280929190818152602001828054600181600116156101000203166002900480156108f85780601f106108cd576101008083540402835291602001916108f8565b820191906000526020600020905b8154815290600101906020018083116108db57829003601f168201915b5050505050908060010154905082565b6000806000838152602001908152602001600020600201549050919050565b600360009054906101000a900460ff1681565b6109606000808481526020019081526020016000206002015461095b6113a6565b610e9f565b6109b5576040517f08c379a000000000000000000000000000000000000000000000000000000000815260040180806020018281038252602f81526020018061189a602f913960400191505060405180910390fd5b6109bf82826113ae565b5050565b60046020528060005260406000206000915054906101000a900460ff1681565b6109eb6113a6565b73ffffffffffffffffffffffffffffffffffffffff168173ffffffffffffffffffffffffffffffffffffffff1614610a6e576040517f08c379a000000000000000000000000000000000000000000000000000000000815260040180806020018281038252602f815260200180611997602f913960400191505060405180910390fd5b610a788282611441565b5050565b600154421015610ad7576040517f08c379a000000000000000000000000000000000000000000000000000000000815260040180806020018281038252602f8152602001806118c9602f913960400191505060405180910390fd5b80610b027f73fd03b4d1a4566cea36b263466aa5c47d098c2cd6a202bf47c932dc6689b4b482610e9f565b80610b335750610b327f61d1bb7d7688fec169e00198b1bfb0436edf7b7587f293f9b0134c8cd6b6545582610e9f565b5b610b88576040517f08c379a00000000000000000000000000000000000000000000000000000000081526004018080602001828103825260278152602001806119706027913960400191505060405180910390fd5b33600460008273ffffffffffffffffffffffffffffffffffffffff1673ffffffffffffffffffffffffffffffffffffffff16815260200190815260200160002060009054906101000a900460ff1615610c49576040517f08c379a00000000000000000000000000000000000000000000000000000000081526004018080602001828103825260178152602001807f596f75206861766520616c726561647920766f7465642e00000000000000000081525060200191505060405180910390fd5b33610c747f9c4e6fd68fbdec6e3075ec7bfba710532af019aea93f5f59ebfe5a9d1a0b894e82610e9f565b610ce6576040517f08c379a00000000000000000000000000000000000000000000000000000000081526004018080602001828103825260168152602001807f43616c6c6572206973206e6f742061206a756467652e0000000000000000000081525060200191505060405180910390fd5b600560008573ffffffffffffffffffffffffffffffffffffffff1673ffffffffffffffffffffffffffffffffffffffff168152602001908152602001600020600101600081548092919060010191905055506002600560008673ffffffffffffffffffffffffffffffffffffffff1673ffffffffffffffffffffffffffffffffffffffff168152602001908152602001600020600101541115610de6578373ffffffffffffffffffffffffffffffffffffffff166108fc479081150290604051600060405180830381858888f19350505050158015610dc9573d6000803e3d6000fd5b506001600360006101000a81548160ff0219169083151502179055505b6001600460003373ffffffffffffffffffffffffffffffffffffffff1673ffffffffffffffffffffffffffffffffffffffff16815260200190815260200160002060006101000a81548160ff02191690831515021790555050505050565b7f73fd03b4d1a4566cea36b263466aa5c47d098c2cd6a202bf47c932dc6689b4b481565b60025481565b6000610e97826000808681526020019081526020016000206000016114d490919063ffffffff16565b905092915050565b6000610ec8826000808681526020019081526020016000206000016114ee90919063ffffffff16565b905092915050565b6000801b81565b6000610ef660008084815260200190815260200160002060000161151e565b9050919050565b610f2360008084815260200190815260200160002060020154610f1e6113a6565b610e9f565b610f78576040517f08c379a00000000000000000000000000000000000000000000000000000000081526004018080602001828103825260308152602001806119406030913960400191505060405180910390fd5b610f828282611441565b5050565b60015481565b7f9c4e6fd68fbdec6e3075ec7bfba710532af019aea93f5f59ebfe5a9d1a0b894e81565b8160003073ffffffffffffffffffffffffffffffffffffffff1663ca15c8737f9c4e6fd68fbdec6e3075ec7bfba710532af019aea93f5f59ebfe5a9d1a0b894e6040518263ffffffff1660e01b81526004018082815260200191505060206040518083038186803b15801561102457600080fd5b505afa158015611038573d6000803e3d6000fd5b505050506040513d602081101561104e57600080fd5b81019080805190602001909291905050509050815181146110d7576040517f08c379a000000000000000000000000000000000000000000000000000000000815260040180806020018281038252601e8152602001807f596f75206861766520616c7265616479206164646564206a75646765732e000081525060200191505060405180910390fd5b836002815114611132576040517f08c379a00000000000000000000000000000000000000000000000000000000081526004018080602001828103825260268152602001806118f86026913960400191505060405180910390fd5b3460025481101561118e576040517f08c379a000000000000000000000000000000000000000000000000000000000815260040180806020018281038252602281526020018061191e6022913960400191505060405180910390fd5b336111b97f73fd03b4d1a4566cea36b263466aa5c47d098c2cd6a202bf47c932dc6689b4b482610e9f565b61122b576040517f08c379a00000000000000000000000000000000000000000000000000000000081526004018080602001828103825260198152602001807f43616c6c6572206973206e6f742061206265742074616b65720000000000000081525060200191505060405180910390fd5b60003073ffffffffffffffffffffffffffffffffffffffff16639010d07c7f73fd03b4d1a4566cea36b263466aa5c47d098c2cd6a202bf47c932dc6689b4b460006040518363ffffffff1660e01b8152600401808381526020018281526020019250505060206040518083038186803b1580156112a757600080fd5b505afa1580156112bb573d6000803e3d6000fd5b505050506040513d60208110156112d157600080fd5b8101908080519060200190929190505050905060405180604001604052808881526020016000815250600560008373ffffffffffffffffffffffffffffffffffffffff1673ffffffffffffffffffffffffffffffffffffffff16815260200190815260200160002060008201518160000190805190602001906113559291906117da565b506020820151816001015590505061136c88611533565b5050505050505050565b600061139e836000018373ffffffffffffffffffffffffffffffffffffffff1660001b61158d565b905092915050565b600033905090565b6113d58160008085815260200190815260200160002060000161137690919063ffffffff16565b1561143d576113e26113a6565b73ffffffffffffffffffffffffffffffffffffffff168173ffffffffffffffffffffffffffffffffffffffff16837f2f8788117e7eff1d82e926ec794901d17c78024a50270940304540a733656f0d60405160405180910390a45b5050565b611468816000808581526020019081526020016000206000016115fd90919063ffffffff16565b156114d0576114756113a6565b73ffffffffffffffffffffffffffffffffffffffff168173ffffffffffffffffffffffffffffffffffffffff16837ff6391f5c32d9c69d2a47ea670b442974b53935d1edc7fd64eb21e047a839171b60405160405180910390a45b5050565b60006114e3836000018361162d565b60001c905092915050565b6000611516836000018373ffffffffffffffffffffffffffffffffffffffff1660001b6116b0565b905092915050565b600061152c826000016116d3565b9050919050565b60005b81518110156115895761157c7f9c4e6fd68fbdec6e3075ec7bfba710532af019aea93f5f59ebfe5a9d1a0b894e83838151811061156f57fe5b60200260200101516116e4565b8080600101915050611536565b5050565b600061159983836116b0565b6115f25782600001829080600181540180825580915050600190039060005260206000200160009091909190915055826000018054905083600101600084815260200190815260200160002081905550600190506115f7565b600090505b92915050565b6000611625836000018373ffffffffffffffffffffffffffffffffffffffff1660001b6116f2565b905092915050565b60008183600001805490501161168e576040517f08c379a00000000000000000000000000000000000000000000000000000000081526004018080602001828103825260228152602001806118786022913960400191505060405180910390fd5b82600001828154811061169d57fe5b9060005260206000200154905092915050565b600080836001016000848152602001908152602001600020541415905092915050565b600081600001805490509050919050565b6116ee82826113ae565b5050565b600080836001016000848152602001908152602001600020549050600081146117ce576000600182039050600060018660000180549050039050600086600001828154811061173d57fe5b906000526020600020015490508087600001848154811061175a57fe5b906000526020600020018190555060018301876001016000838152602001908152602001600020819055508660000180548061179257fe5b600190038181906000526020600020016000905590558660010160008781526020019081526020016000206000905560019450505050506117d4565b60009150505b92915050565b828054600181600116156101000203166002900490600052602060002090601f016020900481019282601f1061181b57805160ff1916838001178555611849565b82800160010185558215611849579182015b8281111561184857825182559160200191906001019061182d565b5b509050611856919061185a565b5090565b5b8082111561187357600081600090555060010161185b565b509056fe456e756d657261626c655365743a20696e646578206f7574206f6620626f756e6473416363657373436f6e74726f6c3a2073656e646572206d75737420626520616e2061646d696e20746f206772616e74596f752063616e277420766f74652062656361757365206576656e74206469646e27742068617070656e207965742e596f752063616e27742061737369676e206d6f7265207468616e2074776f206a75646765732e496e73756666696369656e7420616d6f756e74206f662065746865722073656e742e416363657373436f6e74726f6c3a2073656e646572206d75737420626520616e2061646d696e20746f207265766f6b6554686973206164647265737320646f65736e27742062656c6f6e6720746f20626574746f72732e416363657373436f6e74726f6c3a2063616e206f6e6c792072656e6f756e636520726f6c657320666f722073656c66a2646970667358221220cafbe4fd84fb1b61583a08900d43db13fdbb0a52e71700760bdff5f8c1315d0964736f6c63430007030033596f752063616e27742061737369676e206d6f7265207468616e2074776f206a75646765732e",
  "immutableReferences": {},
  "source": "// SPDX-License-Identifier: MIT\npragma solidity ^0.7.3;\n\nimport \"@openzeppelin/contracts/access/AccessControl.sol\";\n\n/*\nCheck if judges are unique\nCheck if any of judges is bet creator or bet taker\n */\n \ncontract Bet is AccessControl{\n\n    struct Bettor {\n        string name;\n        uint votes;\n    }\n\n    uint public constant MAX_JUDGES = 2;\n\n    uint public expirationTime;\n    uint public minimumDeposit;\n\n    bool public betOver = false;\n    \n    bytes32 public constant BET_CREATOR_ROLE = keccak256(\"BET_CREATOR_ROLE\");\n    bytes32 public constant BET_TAKER_ROLE = keccak256(\"BET_TAKER_ROLE\");\n    bytes32 public constant JUDGE_ROLE = keccak256(\"JUDGE_ROLE\");\n\n    mapping(address => bool) public didVote;\n    mapping(address => Bettor) public bettors;\n\n    modifier canJudgeVote{\n        require(block.timestamp >= expirationTime, \"You can't vote because event didn't happen yet.\");\n        _;\n    }\n\n    modifier limitJudges(address[] memory _judges){\n        require(_judges.length == MAX_JUDGES, \"You can't assign more than two judges.\");\n        _;\n    }\n\n    modifier onlyBetTaker(address _sender){\n        require(hasRole(BET_TAKER_ROLE, _sender), \"Caller is not a bet taker\");\n        _;\n    }\n    \n    modifier restrictJudges(address[] memory _judges){\n        uint judgesLength = this.getRoleMemberCount(JUDGE_ROLE);\n        require(judgesLength == _judges.length, \"You have already added judges.\");\n        _;\n    }\n\n    modifier minimumBetLimit(uint _value){\n        require(_value >= minimumDeposit, \"Insufficient amount of ether sent.\");\n        _;\n    }\n\n    modifier onlyVoteOnce(address _judge){\n        require(!didVote[_judge], \"You have already voted.\");\n        _;\n    }\n\n    modifier onlyJudge(address _sender){\n        require(hasRole(JUDGE_ROLE, _sender), \"Caller is not a judge.\");\n        _;\n    }\n\n    modifier onlyBettors(address _sender){\n        require(hasRole(BET_TAKER_ROLE, _sender) || hasRole(BET_CREATOR_ROLE, _sender), \"This address doesn't belong to bettors.\");\n        _;\n    }\n\n    constructor(address _admin, address _betCreator, string memory _betCreatorName, address _opponent, address[] memory _creatorJudges, uint _minimumDeposit, uint _expirationTime) limitJudges(_creatorJudges){\n        _setupRole(DEFAULT_ADMIN_ROLE, _admin);\n        _setupRole(BET_CREATOR_ROLE, _betCreator);\n        _setupRole(BET_TAKER_ROLE, _opponent);\n        setupJudgeRole(_creatorJudges);\n        \n        bettors[_betCreator] = Bettor({\n                name: _betCreatorName,\n                votes: 0\n            });\n\n        minimumDeposit = _minimumDeposit;\n        expirationTime = _expirationTime;\n    }\n    \n    receive() external payable{}\n\n    function getBalance() public view returns(uint){\n        return address(this).balance;\n    }\n\n    function setupJudgeRole(address[] memory _judges) private{\n        for(uint i=0; i<_judges.length; i++){\n            _setupRole(JUDGE_ROLE, _judges[i]);\n        }\n    }\n    \n    function acceptBet(address[] memory _opponentJudges, string memory _betTakerName) public restrictJudges(_opponentJudges) limitJudges(_opponentJudges) minimumBetLimit(msg.value) onlyBetTaker(msg.sender) payable{\n        address _betTaker = this.getRoleMember(BET_TAKER_ROLE, 0); \n        bettors[_betTaker] = Bettor({\n                name: _betTakerName,\n                votes: 0\n            });\n        setupJudgeRole(_opponentJudges);\n    }\n    \n    function judgeVote(address _candidate) public canJudgeVote onlyBettors(_candidate) onlyVoteOnce(msg.sender) onlyJudge(msg.sender){    \n        bettors[_candidate].votes++;\n\n        if(bettors[_candidate].votes > MAX_JUDGES){\n            payable(_candidate).transfer(address(this).balance);\n            betOver = true;\n        }\n\n        didVote[msg.sender] = true;\n    } \n}",
  "sourcePath": "/home/marko/Documents/betting-app/contracts/Bet.sol",
  "compiler": {
    "name": "solc",
    "version": "0.7.3+commit.9bfce1f6.Emscripten.clang"
  },
  "schemaVersion": "3.3.1",
  "updatedAt": "2020-10-26T12:30:33.281Z",
  "devdoc": {
    "kind": "dev",
    "methods": {
      "getRoleAdmin(bytes32)": {
        "details": "Returns the admin role that controls `role`. See {grantRole} and {revokeRole}. To change a role's admin, use {_setRoleAdmin}."
      },
      "getRoleMember(bytes32,uint256)": {
        "details": "Returns one of the accounts that have `role`. `index` must be a value between 0 and {getRoleMemberCount}, non-inclusive. Role bearers are not sorted in any particular way, and their ordering may change at any point. WARNING: When using {getRoleMember} and {getRoleMemberCount}, make sure you perform all queries on the same block. See the following https://forum.openzeppelin.com/t/iterating-over-elements-on-enumerableset-in-openzeppelin-contracts/2296[forum post] for more information."
      },
      "getRoleMemberCount(bytes32)": {
        "details": "Returns the number of accounts that have `role`. Can be used together with {getRoleMember} to enumerate all bearers of a role."
      },
      "grantRole(bytes32,address)": {
        "details": "Grants `role` to `account`. If `account` had not been already granted `role`, emits a {RoleGranted} event. Requirements: - the caller must have ``role``'s admin role."
      },
      "hasRole(bytes32,address)": {
        "details": "Returns `true` if `account` has been granted `role`."
      },
      "renounceRole(bytes32,address)": {
        "details": "Revokes `role` from the calling account. Roles are often managed via {grantRole} and {revokeRole}: this function's purpose is to provide a mechanism for accounts to lose their privileges if they are compromised (such as when a trusted device is misplaced). If the calling account had been granted `role`, emits a {RoleRevoked} event. Requirements: - the caller must be `account`."
      },
      "revokeRole(bytes32,address)": {
        "details": "Revokes `role` from `account`. If `account` had been granted `role`, emits a {RoleRevoked} event. Requirements: - the caller must have ``role``'s admin role."
      }
    },
    "version": 1
  },
  "userdoc": {
    "kind": "user",
    "methods": {},
    "version": 1
  }
}