{
  "contractName": "Bet",
  "abi": [
    {
      "inputs": [
        {
          "internalType": "address",
          "name": "_admin",
          "type": "address"
        },
        {
          "internalType": "address",
          "name": "_betCreator",
          "type": "address"
        },
        {
          "internalType": "string",
          "name": "_betCreatorName",
          "type": "string"
        },
        {
          "internalType": "address",
          "name": "_opponent",
          "type": "address"
        },
        {
          "internalType": "address[]",
          "name": "_creatorJudges",
          "type": "address[]"
        },
        {
          "internalType": "uint256",
          "name": "_minimumDeposit",
          "type": "uint256"
        },
        {
          "internalType": "uint256",
          "name": "_expirationTime",
          "type": "uint256"
        }
      ],
      "stateMutability": "nonpayable",
      "type": "constructor"
    },
    {
      "anonymous": false,
      "inputs": [
        {
          "indexed": true,
          "internalType": "bytes32",
          "name": "role",
          "type": "bytes32"
        },
        {
          "indexed": true,
          "internalType": "bytes32",
          "name": "previousAdminRole",
          "type": "bytes32"
        },
        {
          "indexed": true,
          "internalType": "bytes32",
          "name": "newAdminRole",
          "type": "bytes32"
        }
      ],
      "name": "RoleAdminChanged",
      "type": "event"
    },
    {
      "anonymous": false,
      "inputs": [
        {
          "indexed": true,
          "internalType": "bytes32",
          "name": "role",
          "type": "bytes32"
        },
        {
          "indexed": true,
          "internalType": "address",
          "name": "account",
          "type": "address"
        },
        {
          "indexed": true,
          "internalType": "address",
          "name": "sender",
          "type": "address"
        }
      ],
      "name": "RoleGranted",
      "type": "event"
    },
    {
      "anonymous": false,
      "inputs": [
        {
          "indexed": true,
          "internalType": "bytes32",
          "name": "role",
          "type": "bytes32"
        },
        {
          "indexed": true,
          "internalType": "address",
          "name": "account",
          "type": "address"
        },
        {
          "indexed": true,
          "internalType": "address",
          "name": "sender",
          "type": "address"
        }
      ],
      "name": "RoleRevoked",
      "type": "event"
    },
    {
      "inputs": [],
      "name": "BET_CREATOR_ROLE",
      "outputs": [
        {
          "internalType": "bytes32",
          "name": "",
          "type": "bytes32"
        }
      ],
      "stateMutability": "view",
      "type": "function"
    },
    {
      "inputs": [],
      "name": "BET_TAKER_ROLE",
      "outputs": [
        {
          "internalType": "bytes32",
          "name": "",
          "type": "bytes32"
        }
      ],
      "stateMutability": "view",
      "type": "function"
    },
    {
      "inputs": [],
      "name": "DEFAULT_ADMIN_ROLE",
      "outputs": [
        {
          "internalType": "bytes32",
          "name": "",
          "type": "bytes32"
        }
      ],
      "stateMutability": "view",
      "type": "function"
    },
    {
      "inputs": [],
      "name": "JUDGE_ROLE",
      "outputs": [
        {
          "internalType": "bytes32",
          "name": "",
          "type": "bytes32"
        }
      ],
      "stateMutability": "view",
      "type": "function"
    },
    {
      "inputs": [],
      "name": "MAX_JUDGES",
      "outputs": [
        {
          "internalType": "uint256",
          "name": "",
          "type": "uint256"
        }
      ],
      "stateMutability": "view",
      "type": "function"
    },
    {
      "inputs": [],
      "name": "MIN_JUDGES",
      "outputs": [
        {
          "internalType": "uint256",
          "name": "",
          "type": "uint256"
        }
      ],
      "stateMutability": "view",
      "type": "function"
    },
    {
      "inputs": [],
      "name": "betOver",
      "outputs": [
        {
          "internalType": "bool",
          "name": "",
          "type": "bool"
        }
      ],
      "stateMutability": "view",
      "type": "function"
    },
    {
      "inputs": [
        {
          "internalType": "address",
          "name": "",
          "type": "address"
        }
      ],
      "name": "bettors",
      "outputs": [
        {
          "internalType": "string",
          "name": "name",
          "type": "string"
        },
        {
          "internalType": "uint256",
          "name": "votes",
          "type": "uint256"
        }
      ],
      "stateMutability": "view",
      "type": "function"
    },
    {
      "inputs": [],
      "name": "creatorJudgesCount",
      "outputs": [
        {
          "internalType": "uint256",
          "name": "",
          "type": "uint256"
        }
      ],
      "stateMutability": "view",
      "type": "function"
    },
    {
      "inputs": [
        {
          "internalType": "address",
          "name": "",
          "type": "address"
        }
      ],
      "name": "didVote",
      "outputs": [
        {
          "internalType": "bool",
          "name": "",
          "type": "bool"
        }
      ],
      "stateMutability": "view",
      "type": "function"
    },
    {
      "inputs": [],
      "name": "expirationTime",
      "outputs": [
        {
          "internalType": "uint256",
          "name": "",
          "type": "uint256"
        }
      ],
      "stateMutability": "view",
      "type": "function"
    },
    {
      "inputs": [
        {
          "internalType": "bytes32",
          "name": "role",
          "type": "bytes32"
        }
      ],
      "name": "getRoleAdmin",
      "outputs": [
        {
          "internalType": "bytes32",
          "name": "",
          "type": "bytes32"
        }
      ],
      "stateMutability": "view",
      "type": "function"
    },
    {
      "inputs": [
        {
          "internalType": "bytes32",
          "name": "role",
          "type": "bytes32"
        },
        {
          "internalType": "uint256",
          "name": "index",
          "type": "uint256"
        }
      ],
      "name": "getRoleMember",
      "outputs": [
        {
          "internalType": "address",
          "name": "",
          "type": "address"
        }
      ],
      "stateMutability": "view",
      "type": "function"
    },
    {
      "inputs": [
        {
          "internalType": "bytes32",
          "name": "role",
          "type": "bytes32"
        }
      ],
      "name": "getRoleMemberCount",
      "outputs": [
        {
          "internalType": "uint256",
          "name": "",
          "type": "uint256"
        }
      ],
      "stateMutability": "view",
      "type": "function"
    },
    {
      "inputs": [
        {
          "internalType": "bytes32",
          "name": "role",
          "type": "bytes32"
        },
        {
          "internalType": "address",
          "name": "account",
          "type": "address"
        }
      ],
      "name": "grantRole",
      "outputs": [],
      "stateMutability": "nonpayable",
      "type": "function"
    },
    {
      "inputs": [
        {
          "internalType": "bytes32",
          "name": "role",
          "type": "bytes32"
        },
        {
          "internalType": "address",
          "name": "account",
          "type": "address"
        }
      ],
      "name": "hasRole",
      "outputs": [
        {
          "internalType": "bool",
          "name": "",
          "type": "bool"
        }
      ],
      "stateMutability": "view",
      "type": "function"
    },
    {
      "inputs": [],
      "name": "minimumDeposit",
      "outputs": [
        {
          "internalType": "uint256",
          "name": "",
          "type": "uint256"
        }
      ],
      "stateMutability": "view",
      "type": "function"
    },
    {
      "inputs": [
        {
          "internalType": "bytes32",
          "name": "role",
          "type": "bytes32"
        },
        {
          "internalType": "address",
          "name": "account",
          "type": "address"
        }
      ],
      "name": "renounceRole",
      "outputs": [],
      "stateMutability": "nonpayable",
      "type": "function"
    },
    {
      "inputs": [
        {
          "internalType": "bytes32",
          "name": "role",
          "type": "bytes32"
        },
        {
          "internalType": "address",
          "name": "account",
          "type": "address"
        }
      ],
      "name": "revokeRole",
      "outputs": [],
      "stateMutability": "nonpayable",
      "type": "function"
    },
    {
      "stateMutability": "payable",
      "type": "receive"
    },
    {
      "inputs": [],
      "name": "getBalance",
      "outputs": [
        {
          "internalType": "uint256",
          "name": "",
          "type": "uint256"
        }
      ],
      "stateMutability": "view",
      "type": "function"
    },
    {
      "inputs": [
        {
          "internalType": "address[]",
          "name": "_opponentJudges",
          "type": "address[]"
        },
        {
          "internalType": "string",
          "name": "_betTakerName",
          "type": "string"
        }
      ],
      "name": "acceptBet",
      "outputs": [],
      "stateMutability": "payable",
      "type": "function"
    },
    {
      "inputs": [
        {
          "internalType": "address",
          "name": "_candidate",
          "type": "address"
        }
      ],
      "name": "judgeVote",
      "outputs": [],
      "stateMutability": "nonpayable",
      "type": "function"
    }
  ],
  "bytecode": "0x60806040526000600460006101000a81548160ff0219169083151502179055503480156200002c57600080fd5b50604051620020e5380380620020e5833981810160405260e08110156200005257600080fd5b810190808051906020019092919080519060200190929190805160405193929190846401000000008211156200008757600080fd5b838201915060208201858111156200009e57600080fd5b8251866001820283011164010000000082111715620000bc57600080fd5b8083526020830192505050908051906020019080838360005b83811015620000f2578082015181840152602081019050620000d5565b50505050905090810190601f168015620001205780820380516001836020036101000a031916815260200191505b5060405260200180519060200190929190805160405193929190846401000000008211156200014e57600080fd5b838201915060208201858111156200016557600080fd5b82518660208202830111640100000000821117156200018357600080fd5b8083526020830192505050908051906020019060200280838360005b83811015620001bc5780820151818401526020810190506200019f565b505050509050016040526020018051906020019092919080519060200190929190505050826002815111158015620001f657506001815110155b6200024d576040517f08c379a0000000000000000000000000000000000000000000000000000000008152600401808060200182810382526036815260200180620020af6036913960400191505060405180910390fd5b620002626000801b896200037c60201b60201c565b620002947f61d1bb7d7688fec169e00198b1bfb0436edf7b7587f293f9b0134c8cd6b65455886200037c60201b60201c565b620002c67f73fd03b4d1a4566cea36b263466aa5c47d098c2cd6a202bf47c932dc6689b4b4866200037c60201b60201c565b620002d7846200039260201b60201c565b60405180604001604052808781526020016000815250600660008973ffffffffffffffffffffffffffffffffffffffff1673ffffffffffffffffffffffffffffffffffffffff16815260200190815260200160002060008201518160000190805190602001906200034a92919062000577565b50602082015181600101559050508260028190555081600181905550835160038190555050505050505050506200061d565b6200038e8282620003f760201b60201c565b5050565b60005b8151811015620003f357620003e57f9c4e6fd68fbdec6e3075ec7bfba710532af019aea93f5f59ebfe5a9d1a0b894e838381518110620003d157fe5b60200260200101516200037c60201b60201c565b808060010191505062000395565b5050565b62000425816000808581526020019081526020016000206000016200049a60201b620013ef1790919060201c565b1562000496576200043b620004d260201b60201c565b73ffffffffffffffffffffffffffffffffffffffff168173ffffffffffffffffffffffffffffffffffffffff16837f2f8788117e7eff1d82e926ec794901d17c78024a50270940304540a733656f0d60405160405180910390a45b5050565b6000620004ca836000018373ffffffffffffffffffffffffffffffffffffffff1660001b620004da60201b60201c565b905092915050565b600033905090565b6000620004ee83836200055460201b60201c565b620005495782600001829080600181540180825580915050600190039060005260206000200160009091909190915055826000018054905083600101600084815260200190815260200160002081905550600190506200054e565b600090505b92915050565b600080836001016000848152602001908152602001600020541415905092915050565b828054600181600116156101000203166002900490600052602060002090601f016020900481019282601f10620005ba57805160ff1916838001178555620005eb565b82800160010185558215620005eb579182015b82811115620005ea578251825591602001919060010190620005cd565b5b509050620005fa9190620005fe565b5090565b5b8082111562000619576000816000905550600101620005ff565b5090565b611a82806200062d6000396000f3fe6080604052600436106101395760003560e01c8063636bfbab116100ab578063d547741f1161006f578063d547741f14610631578063da284dcc1461068c578063e0e47588146106b7578063e28e3bbd146106e2578063f15f521914610831578063f91e16a31461085c57610140565b8063636bfbab146104ac5780639010d07c146104d757806391d1485414610546578063a217fddf146105b7578063ca15c873146105e257610140565b80632d0a64c1116100fd5780632d0a64c1146102e65780632f2ff15d14610313578063354d91de1461036e57806336568abe146103d55780635e536deb146104305780635ef76cd61461048157610140565b806306a29fa914610145578063098291441461017057806312065fe01461019b57806322010c1f146101c6578063248a9ca31461029757610140565b3661014057005b600080fd5b34801561015157600080fd5b5061015a610887565b6040518082815260200191505060405180910390f35b34801561017c57600080fd5b5061018561088c565b6040518082815260200191505060405180910390f35b3480156101a757600080fd5b506101b06108b0565b6040518082815260200191505060405180910390f35b3480156101d257600080fd5b50610215600480360360208110156101e957600080fd5b81019080803573ffffffffffffffffffffffffffffffffffffffff1690602001909291905050506108b8565b6040518080602001838152602001828103825284818151815260200191508051906020019080838360005b8381101561025b578082015181840152602081019050610240565b50505050905090810190601f1680156102885780820380516001836020036101000a031916815260200191505b50935050505060405180910390f35b3480156102a357600080fd5b506102d0600480360360208110156102ba57600080fd5b8101908080359060200190929190505050610974565b6040518082815260200191505060405180910390f35b3480156102f257600080fd5b506102fb610993565b60405180821515815260200191505060405180910390f35b34801561031f57600080fd5b5061036c6004803603604081101561033657600080fd5b8101908080359060200190929190803573ffffffffffffffffffffffffffffffffffffffff1690602001909291905050506109a6565b005b34801561037a57600080fd5b506103bd6004803603602081101561039157600080fd5b81019080803573ffffffffffffffffffffffffffffffffffffffff169060200190929190505050610a2f565b60405180821515815260200191505060405180910390f35b3480156103e157600080fd5b5061042e600480360360408110156103f857600080fd5b8101908080359060200190929190803573ffffffffffffffffffffffffffffffffffffffff169060200190929190505050610a4f565b005b34801561043c57600080fd5b5061047f6004803603602081101561045357600080fd5b81019080803573ffffffffffffffffffffffffffffffffffffffff169060200190929190505050610ae8565b005b34801561048d57600080fd5b50610496610eb1565b6040518082815260200191505060405180910390f35b3480156104b857600080fd5b506104c1610ed5565b6040518082815260200191505060405180910390f35b3480156104e357600080fd5b5061051a600480360360408110156104fa57600080fd5b810190808035906020019092919080359060200190929190505050610edb565b604051808273ffffffffffffffffffffffffffffffffffffffff16815260200191505060405180910390f35b34801561055257600080fd5b5061059f6004803603604081101561056957600080fd5b8101908080359060200190929190803573ffffffffffffffffffffffffffffffffffffffff169060200190929190505050610f0c565b60405180821515815260200191505060405180910390f35b3480156105c357600080fd5b506105cc610f3d565b6040518082815260200191505060405180910390f35b3480156105ee57600080fd5b5061061b6004803603602081101561060557600080fd5b8101908080359060200190929190505050610f44565b6040518082815260200191505060405180910390f35b34801561063d57600080fd5b5061068a6004803603604081101561065457600080fd5b8101908080359060200190929190803573ffffffffffffffffffffffffffffffffffffffff169060200190929190505050610f6a565b005b34801561069857600080fd5b506106a1610ff3565b6040518082815260200191505060405180910390f35b3480156106c357600080fd5b506106cc610ff9565b6040518082815260200191505060405180910390f35b61082f600480360360408110156106f857600080fd5b810190808035906020019064010000000081111561071557600080fd5b82018360208201111561072757600080fd5b8035906020019184602083028401116401000000008311171561074957600080fd5b919080806020026020016040519081016040528093929190818152602001838360200280828437600081840152601f19601f820116905080830192505050505050509192919290803590602001906401000000008111156107a957600080fd5b8201836020820111156107bb57600080fd5b803590602001918460018302840111640100000000831117156107dd57600080fd5b91908080601f016020809104026020016040519081016040528093929190818152602001838380828437600081840152601f19601f82011690508083019250505050505050919291929050505061101d565b005b34801561083d57600080fd5b506108466113e4565b6040518082815260200191505060405180910390f35b34801561086857600080fd5b506108716113e9565b6040518082815260200191505060405180910390f35b600281565b7f61d1bb7d7688fec169e00198b1bfb0436edf7b7587f293f9b0134c8cd6b6545581565b600047905090565b6006602052806000526040600020600091509050806000018054600181600116156101000203166002900480601f0160208091040260200160405190810160405280929190818152602001828054600181600116156101000203166002900480156109645780601f1061093957610100808354040283529160200191610964565b820191906000526020600020905b81548152906001019060200180831161094757829003601f168201915b5050505050908060010154905082565b6000806000838152602001908152602001600020600201549050919050565b600460009054906101000a900460ff1681565b6109cc600080848152602001908152602001600020600201546109c761141f565b610f0c565b610a21576040517f08c379a000000000000000000000000000000000000000000000000000000000815260040180806020018281038252602f815260200180611913602f913960400191505060405180910390fd5b610a2b8282611427565b5050565b60056020528060005260406000206000915054906101000a900460ff1681565b610a5761141f565b73ffffffffffffffffffffffffffffffffffffffff168173ffffffffffffffffffffffffffffffffffffffff1614610ada576040517f08c379a000000000000000000000000000000000000000000000000000000000815260040180806020018281038252602f815260200180611a1e602f913960400191505060405180910390fd5b610ae482826114ba565b5050565b600154421015610b43576040517f08c379a000000000000000000000000000000000000000000000000000000000815260040180806020018281038252602f815260200180611942602f913960400191505060405180910390fd5b80610b6e7f73fd03b4d1a4566cea36b263466aa5c47d098c2cd6a202bf47c932dc6689b4b482610f0c565b80610b9f5750610b9e7f61d1bb7d7688fec169e00198b1bfb0436edf7b7587f293f9b0134c8cd6b6545582610f0c565b5b610bf4576040517f08c379a00000000000000000000000000000000000000000000000000000000081526004018080602001828103825260278152602001806119f76027913960400191505060405180910390fd5b33600560008273ffffffffffffffffffffffffffffffffffffffff1673ffffffffffffffffffffffffffffffffffffffff16815260200190815260200160002060009054906101000a900460ff1615610cb5576040517f08c379a00000000000000000000000000000000000000000000000000000000081526004018080602001828103825260178152602001807f596f75206861766520616c726561647920766f7465642e00000000000000000081525060200191505060405180910390fd5b33610ce07f9c4e6fd68fbdec6e3075ec7bfba710532af019aea93f5f59ebfe5a9d1a0b894e82610f0c565b610d52576040517f08c379a00000000000000000000000000000000000000000000000000000000081526004018080602001828103825260168152602001807f43616c6c6572206973206e6f742061206a756467652e0000000000000000000081525060200191505060405180910390fd5b600660008573ffffffffffffffffffffffffffffffffffffffff1673ffffffffffffffffffffffffffffffffffffffff16815260200190815260200160002060010160008154809291906001019190505550600354600660008673ffffffffffffffffffffffffffffffffffffffff1673ffffffffffffffffffffffffffffffffffffffff168152602001908152602001600020600101541115610e53578373ffffffffffffffffffffffffffffffffffffffff166108fc479081150290604051600060405180830381858888f19350505050158015610e36573d6000803e3d6000fd5b506001600460006101000a81548160ff0219169083151502179055505b6001600560003373ffffffffffffffffffffffffffffffffffffffff1673ffffffffffffffffffffffffffffffffffffffff16815260200190815260200160002060006101000a81548160ff02191690831515021790555050505050565b7f73fd03b4d1a4566cea36b263466aa5c47d098c2cd6a202bf47c932dc6689b4b481565b60025481565b6000610f048260008086815260200190815260200160002060000161154d90919063ffffffff16565b905092915050565b6000610f358260008086815260200190815260200160002060000161156790919063ffffffff16565b905092915050565b6000801b81565b6000610f63600080848152602001908152602001600020600001611597565b9050919050565b610f9060008084815260200190815260200160002060020154610f8b61141f565b610f0c565b610fe5576040517f08c379a00000000000000000000000000000000000000000000000000000000081526004018080602001828103825260308152602001806119936030913960400191505060405180910390fd5b610fef82826114ba565b5050565b60015481565b7f9c4e6fd68fbdec6e3075ec7bfba710532af019aea93f5f59ebfe5a9d1a0b894e81565b8160003073ffffffffffffffffffffffffffffffffffffffff1663ca15c8737f9c4e6fd68fbdec6e3075ec7bfba710532af019aea93f5f59ebfe5a9d1a0b894e6040518263ffffffff1660e01b81526004018082815260200191505060206040518083038186803b15801561109157600080fd5b505afa1580156110a5573d6000803e3d6000fd5b505050506040513d60208110156110bb57600080fd5b8101908080519060200190929190505050905081518114611144576040517f08c379a000000000000000000000000000000000000000000000000000000000815260040180806020018281038252601e8152602001807f596f75206861766520616c7265616479206164646564206a75646765732e000081525060200191505060405180910390fd5b836003548151146111a0576040517f08c379a00000000000000000000000000000000000000000000000000000000081526004018080602001828103825260348152602001806119c36034913960400191505060405180910390fd5b346002548110156111fc576040517f08c379a00000000000000000000000000000000000000000000000000000000081526004018080602001828103825260228152602001806119716022913960400191505060405180910390fd5b336112277f73fd03b4d1a4566cea36b263466aa5c47d098c2cd6a202bf47c932dc6689b4b482610f0c565b611299576040517f08c379a00000000000000000000000000000000000000000000000000000000081526004018080602001828103825260198152602001807f43616c6c6572206973206e6f742061206265742074616b65720000000000000081525060200191505060405180910390fd5b60003073ffffffffffffffffffffffffffffffffffffffff16639010d07c7f73fd03b4d1a4566cea36b263466aa5c47d098c2cd6a202bf47c932dc6689b4b460006040518363ffffffff1660e01b8152600401808381526020018281526020019250505060206040518083038186803b15801561131557600080fd5b505afa158015611329573d6000803e3d6000fd5b505050506040513d602081101561133f57600080fd5b8101908080519060200190929190505050905060405180604001604052808881526020016000815250600660008373ffffffffffffffffffffffffffffffffffffffff1673ffffffffffffffffffffffffffffffffffffffff16815260200190815260200160002060008201518160000190805190602001906113c3929190611853565b50602082015181600101559050506113da886115ac565b5050505050505050565b600181565b60035481565b6000611417836000018373ffffffffffffffffffffffffffffffffffffffff1660001b611606565b905092915050565b600033905090565b61144e816000808581526020019081526020016000206000016113ef90919063ffffffff16565b156114b65761145b61141f565b73ffffffffffffffffffffffffffffffffffffffff168173ffffffffffffffffffffffffffffffffffffffff16837f2f8788117e7eff1d82e926ec794901d17c78024a50270940304540a733656f0d60405160405180910390a45b5050565b6114e18160008085815260200190815260200160002060000161167690919063ffffffff16565b15611549576114ee61141f565b73ffffffffffffffffffffffffffffffffffffffff168173ffffffffffffffffffffffffffffffffffffffff16837ff6391f5c32d9c69d2a47ea670b442974b53935d1edc7fd64eb21e047a839171b60405160405180910390a45b5050565b600061155c83600001836116a6565b60001c905092915050565b600061158f836000018373ffffffffffffffffffffffffffffffffffffffff1660001b611729565b905092915050565b60006115a58260000161174c565b9050919050565b60005b8151811015611602576115f57f9c4e6fd68fbdec6e3075ec7bfba710532af019aea93f5f59ebfe5a9d1a0b894e8383815181106115e857fe5b602002602001015161175d565b80806001019150506115af565b5050565b60006116128383611729565b61166b578260000182908060018154018082558091505060019003906000526020600020016000909190919091505582600001805490508360010160008481526020019081526020016000208190555060019050611670565b600090505b92915050565b600061169e836000018373ffffffffffffffffffffffffffffffffffffffff1660001b61176b565b905092915050565b600081836000018054905011611707576040517f08c379a00000000000000000000000000000000000000000000000000000000081526004018080602001828103825260228152602001806118f16022913960400191505060405180910390fd5b82600001828154811061171657fe5b9060005260206000200154905092915050565b600080836001016000848152602001908152602001600020541415905092915050565b600081600001805490509050919050565b6117678282611427565b5050565b6000808360010160008481526020019081526020016000205490506000811461184757600060018203905060006001866000018054905003905060008660000182815481106117b657fe5b90600052602060002001549050808760000184815481106117d357fe5b906000526020600020018190555060018301876001016000838152602001908152602001600020819055508660000180548061180b57fe5b6001900381819060005260206000200160009055905586600101600087815260200190815260200160002060009055600194505050505061184d565b60009150505b92915050565b828054600181600116156101000203166002900490600052602060002090601f016020900481019282601f1061189457805160ff19168380011785556118c2565b828001600101855582156118c2579182015b828111156118c15782518255916020019190600101906118a6565b5b5090506118cf91906118d3565b5090565b5b808211156118ec5760008160009055506001016118d4565b509056fe456e756d657261626c655365743a20696e646578206f7574206f6620626f756e6473416363657373436f6e74726f6c3a2073656e646572206d75737420626520616e2061646d696e20746f206772616e74596f752063616e277420766f74652062656361757365206576656e74206469646e27742068617070656e207965742e496e73756666696369656e7420616d6f756e74206f662065746865722073656e742e416363657373436f6e74726f6c3a2073656e646572206d75737420626520616e2061646d696e20746f207265766f6b654e756d626572206f66206a756467657320796f752061737369676e6564206d757374206d61746368206f70706f6e656e7427732e54686973206164647265737320646f65736e27742062656c6f6e6720746f20626574746f72732e416363657373436f6e74726f6c3a2063616e206f6e6c792072656e6f756e636520726f6c657320666f722073656c66a2646970667358221220ce43a438c1d9bb398d5144603e8440db224d28589a479fda4e8334c594fe461364736f6c63430007030033596f75206861766520746f2061737369676e206174206c65617374206f6e65206a7564676520616e642074776f206174206d6f73742e",
  "immutableReferences": {},
  "source": "// SPDX-License-Identifier: MIT\npragma solidity ^0.7.3;\n\nimport \"@openzeppelin/contracts/access/AccessControl.sol\";\n\n/*\nCheck if judges are unique\nCheck if any of judges is bet creator or bet taker\n */\n \ncontract Bet is AccessControl{\n\n    struct Bettor {\n        string name;\n        uint votes;\n    }\n\n    uint public constant MAX_JUDGES = 2;\n    uint public constant MIN_JUDGES = 1;\n\n    uint public expirationTime;\n    uint public minimumDeposit;\n    uint public creatorJudgesCount;\n\n    bool public betOver = false;\n    \n    bytes32 public constant BET_CREATOR_ROLE = keccak256(\"BET_CREATOR_ROLE\");\n    bytes32 public constant BET_TAKER_ROLE = keccak256(\"BET_TAKER_ROLE\");\n    bytes32 public constant JUDGE_ROLE = keccak256(\"JUDGE_ROLE\");\n\n    mapping(address => bool) public didVote;\n    mapping(address => Bettor) public bettors;\n\n    modifier canJudgeVote{\n        require(block.timestamp >= expirationTime, \"You can't vote because event didn't happen yet.\");\n        _;\n    }\n\n    modifier limitJudgesCreator(address[] memory _judges){\n        require(_judges.length <= MAX_JUDGES && _judges.length >= MIN_JUDGES, \"You have to assign at least one judge and two at most.\");\n        _;\n    }\n\n    modifier limitJudgesBetTaker(address[] memory _judges){\n        require(_judges.length == creatorJudgesCount, \"Number of judges you assigned must match opponent's.\");\n        _;\n    }\n\n    modifier onlyBetTaker(address _sender){\n        require(hasRole(BET_TAKER_ROLE, _sender), \"Caller is not a bet taker\");\n        _;\n    }\n    \n    modifier restrictJudges(address[] memory _judges){\n        uint judgesLength = this.getRoleMemberCount(JUDGE_ROLE);\n        require(judgesLength == _judges.length, \"You have already added judges.\");\n        _;\n    }\n\n    modifier minimumBetLimit(uint _value){\n        require(_value >= minimumDeposit, \"Insufficient amount of ether sent.\");\n        _;\n    }\n\n    modifier onlyVoteOnce(address _judge){\n        require(!didVote[_judge], \"You have already voted.\");\n        _;\n    }\n\n    modifier onlyJudge(address _sender){\n        require(hasRole(JUDGE_ROLE, _sender), \"Caller is not a judge.\");\n        _;\n    }\n\n    modifier onlyBettors(address _sender){\n        require(hasRole(BET_TAKER_ROLE, _sender) || hasRole(BET_CREATOR_ROLE, _sender), \"This address doesn't belong to bettors.\");\n        _;\n    }\n\n    constructor(address _admin, address _betCreator, string memory _betCreatorName, address _opponent, address[] memory _creatorJudges, uint _minimumDeposit, uint _expirationTime) limitJudgesCreator(_creatorJudges){\n        _setupRole(DEFAULT_ADMIN_ROLE, _admin);\n        _setupRole(BET_CREATOR_ROLE, _betCreator);\n        _setupRole(BET_TAKER_ROLE, _opponent);\n        setupJudgeRole(_creatorJudges);\n        \n        bettors[_betCreator] = Bettor({\n                name: _betCreatorName,\n                votes: 0\n            });\n\n        minimumDeposit = _minimumDeposit;\n        expirationTime = _expirationTime;\n        creatorJudgesCount = _creatorJudges.length;\n    }\n    \n    receive() external payable{}\n\n    function getBalance() public view returns(uint){\n        return address(this).balance;\n    }\n\n    function setupJudgeRole(address[] memory _judges) private{\n        for(uint i=0; i<_judges.length; i++){\n            _setupRole(JUDGE_ROLE, _judges[i]);\n        }\n    }\n    \n    function acceptBet(address[] memory _opponentJudges, string memory _betTakerName) public restrictJudges(_opponentJudges) limitJudgesBetTaker(_opponentJudges) minimumBetLimit(msg.value) onlyBetTaker(msg.sender) payable{\n        address _betTaker = this.getRoleMember(BET_TAKER_ROLE, 0); \n        bettors[_betTaker] = Bettor({\n                name: _betTakerName,\n                votes: 0\n            });\n        setupJudgeRole(_opponentJudges);\n    }\n    \n    function judgeVote(address _candidate) public canJudgeVote onlyBettors(_candidate) onlyVoteOnce(msg.sender) onlyJudge(msg.sender){    \n        bettors[_candidate].votes++;\n\n        if(bettors[_candidate].votes > creatorJudgesCount){\n            payable(_candidate).transfer(address(this).balance);\n            betOver = true;\n        }\n        didVote[msg.sender] = true;\n    }\n    \n}",
  "sourcePath": "/home/marko/Documents/betting-app/ethereum/contracts/Bet.sol",
  "compiler": {
    "name": "solc",
    "version": "0.7.3+commit.9bfce1f6.Emscripten.clang"
  },
  "schemaVersion": "3.3.1",
  "updatedAt": "2020-10-28T11:06:35.862Z",
  "devdoc": {
    "kind": "dev",
    "methods": {
      "getRoleAdmin(bytes32)": {
        "details": "Returns the admin role that controls `role`. See {grantRole} and {revokeRole}. To change a role's admin, use {_setRoleAdmin}."
      },
      "getRoleMember(bytes32,uint256)": {
        "details": "Returns one of the accounts that have `role`. `index` must be a value between 0 and {getRoleMemberCount}, non-inclusive. Role bearers are not sorted in any particular way, and their ordering may change at any point. WARNING: When using {getRoleMember} and {getRoleMemberCount}, make sure you perform all queries on the same block. See the following https://forum.openzeppelin.com/t/iterating-over-elements-on-enumerableset-in-openzeppelin-contracts/2296[forum post] for more information."
      },
      "getRoleMemberCount(bytes32)": {
        "details": "Returns the number of accounts that have `role`. Can be used together with {getRoleMember} to enumerate all bearers of a role."
      },
      "grantRole(bytes32,address)": {
        "details": "Grants `role` to `account`. If `account` had not been already granted `role`, emits a {RoleGranted} event. Requirements: - the caller must have ``role``'s admin role."
      },
      "hasRole(bytes32,address)": {
        "details": "Returns `true` if `account` has been granted `role`."
      },
      "renounceRole(bytes32,address)": {
        "details": "Revokes `role` from the calling account. Roles are often managed via {grantRole} and {revokeRole}: this function's purpose is to provide a mechanism for accounts to lose their privileges if they are compromised (such as when a trusted device is misplaced). If the calling account had been granted `role`, emits a {RoleRevoked} event. Requirements: - the caller must be `account`."
      },
      "revokeRole(bytes32,address)": {
        "details": "Revokes `role` from `account`. If `account` had been granted `role`, emits a {RoleRevoked} event. Requirements: - the caller must have ``role``'s admin role."
      }
    },
    "version": 1
  },
  "userdoc": {
    "kind": "user",
    "methods": {},
    "version": 1
  }
}