{
  "contractName": "Bet",
  "abi": [
    {
      "inputs": [
        {
          "internalType": "address",
          "name": "_admin",
          "type": "address"
        },
        {
          "internalType": "address",
          "name": "_betCreator",
          "type": "address"
        },
        {
          "internalType": "string",
          "name": "_betCreatorName",
          "type": "string"
        },
        {
          "internalType": "address",
          "name": "_opponent",
          "type": "address"
        },
        {
          "internalType": "address[]",
          "name": "_creatorJudges",
          "type": "address[]"
        },
        {
          "internalType": "uint256",
          "name": "_minimumDeposit",
          "type": "uint256"
        },
        {
          "internalType": "uint256",
          "name": "_expirationTime",
          "type": "uint256"
        }
      ],
      "stateMutability": "nonpayable",
      "type": "constructor"
    },
    {
      "anonymous": false,
      "inputs": [
        {
          "indexed": true,
          "internalType": "bytes32",
          "name": "role",
          "type": "bytes32"
        },
        {
          "indexed": true,
          "internalType": "bytes32",
          "name": "previousAdminRole",
          "type": "bytes32"
        },
        {
          "indexed": true,
          "internalType": "bytes32",
          "name": "newAdminRole",
          "type": "bytes32"
        }
      ],
      "name": "RoleAdminChanged",
      "type": "event"
    },
    {
      "anonymous": false,
      "inputs": [
        {
          "indexed": true,
          "internalType": "bytes32",
          "name": "role",
          "type": "bytes32"
        },
        {
          "indexed": true,
          "internalType": "address",
          "name": "account",
          "type": "address"
        },
        {
          "indexed": true,
          "internalType": "address",
          "name": "sender",
          "type": "address"
        }
      ],
      "name": "RoleGranted",
      "type": "event"
    },
    {
      "anonymous": false,
      "inputs": [
        {
          "indexed": true,
          "internalType": "bytes32",
          "name": "role",
          "type": "bytes32"
        },
        {
          "indexed": true,
          "internalType": "address",
          "name": "account",
          "type": "address"
        },
        {
          "indexed": true,
          "internalType": "address",
          "name": "sender",
          "type": "address"
        }
      ],
      "name": "RoleRevoked",
      "type": "event"
    },
    {
      "inputs": [],
      "name": "BET_CREATOR_ROLE",
      "outputs": [
        {
          "internalType": "bytes32",
          "name": "",
          "type": "bytes32"
        }
      ],
      "stateMutability": "view",
      "type": "function"
    },
    {
      "inputs": [],
      "name": "BET_TAKER_ROLE",
      "outputs": [
        {
          "internalType": "bytes32",
          "name": "",
          "type": "bytes32"
        }
      ],
      "stateMutability": "view",
      "type": "function"
    },
    {
      "inputs": [],
      "name": "DEFAULT_ADMIN_ROLE",
      "outputs": [
        {
          "internalType": "bytes32",
          "name": "",
          "type": "bytes32"
        }
      ],
      "stateMutability": "view",
      "type": "function"
    },
    {
      "inputs": [],
      "name": "JUDGE_ROLE",
      "outputs": [
        {
          "internalType": "bytes32",
          "name": "",
          "type": "bytes32"
        }
      ],
      "stateMutability": "view",
      "type": "function"
    },
    {
      "inputs": [],
      "name": "MAX_JUDGES",
      "outputs": [
        {
          "internalType": "uint256",
          "name": "",
          "type": "uint256"
        }
      ],
      "stateMutability": "view",
      "type": "function"
    },
    {
      "inputs": [],
      "name": "MIN_JUDGES",
      "outputs": [
        {
          "internalType": "uint256",
          "name": "",
          "type": "uint256"
        }
      ],
      "stateMutability": "view",
      "type": "function"
    },
    {
      "inputs": [],
      "name": "betOver",
      "outputs": [
        {
          "internalType": "bool",
          "name": "",
          "type": "bool"
        }
      ],
      "stateMutability": "view",
      "type": "function"
    },
    {
      "inputs": [
        {
          "internalType": "address",
          "name": "",
          "type": "address"
        }
      ],
      "name": "bettors",
      "outputs": [
        {
          "internalType": "string",
          "name": "name",
          "type": "string"
        },
        {
          "internalType": "uint256",
          "name": "votes",
          "type": "uint256"
        }
      ],
      "stateMutability": "view",
      "type": "function"
    },
    {
      "inputs": [],
      "name": "creatorJudgesCount",
      "outputs": [
        {
          "internalType": "uint256",
          "name": "",
          "type": "uint256"
        }
      ],
      "stateMutability": "view",
      "type": "function"
    },
    {
      "inputs": [
        {
          "internalType": "address",
          "name": "",
          "type": "address"
        }
      ],
      "name": "didVote",
      "outputs": [
        {
          "internalType": "bool",
          "name": "",
          "type": "bool"
        }
      ],
      "stateMutability": "view",
      "type": "function"
    },
    {
      "inputs": [],
      "name": "expirationTime",
      "outputs": [
        {
          "internalType": "uint256",
          "name": "",
          "type": "uint256"
        }
      ],
      "stateMutability": "view",
      "type": "function"
    },
    {
      "inputs": [
        {
          "internalType": "bytes32",
          "name": "role",
          "type": "bytes32"
        }
      ],
      "name": "getRoleAdmin",
      "outputs": [
        {
          "internalType": "bytes32",
          "name": "",
          "type": "bytes32"
        }
      ],
      "stateMutability": "view",
      "type": "function"
    },
    {
      "inputs": [
        {
          "internalType": "bytes32",
          "name": "role",
          "type": "bytes32"
        },
        {
          "internalType": "uint256",
          "name": "index",
          "type": "uint256"
        }
      ],
      "name": "getRoleMember",
      "outputs": [
        {
          "internalType": "address",
          "name": "",
          "type": "address"
        }
      ],
      "stateMutability": "view",
      "type": "function"
    },
    {
      "inputs": [
        {
          "internalType": "bytes32",
          "name": "role",
          "type": "bytes32"
        }
      ],
      "name": "getRoleMemberCount",
      "outputs": [
        {
          "internalType": "uint256",
          "name": "",
          "type": "uint256"
        }
      ],
      "stateMutability": "view",
      "type": "function"
    },
    {
      "inputs": [
        {
          "internalType": "bytes32",
          "name": "role",
          "type": "bytes32"
        },
        {
          "internalType": "address",
          "name": "account",
          "type": "address"
        }
      ],
      "name": "grantRole",
      "outputs": [],
      "stateMutability": "nonpayable",
      "type": "function"
    },
    {
      "inputs": [
        {
          "internalType": "bytes32",
          "name": "role",
          "type": "bytes32"
        },
        {
          "internalType": "address",
          "name": "account",
          "type": "address"
        }
      ],
      "name": "hasRole",
      "outputs": [
        {
          "internalType": "bool",
          "name": "",
          "type": "bool"
        }
      ],
      "stateMutability": "view",
      "type": "function"
    },
    {
      "inputs": [],
      "name": "isDraw",
      "outputs": [
        {
          "internalType": "bool",
          "name": "",
          "type": "bool"
        }
      ],
      "stateMutability": "view",
      "type": "function"
    },
    {
      "inputs": [],
      "name": "minimumDeposit",
      "outputs": [
        {
          "internalType": "uint256",
          "name": "",
          "type": "uint256"
        }
      ],
      "stateMutability": "view",
      "type": "function"
    },
    {
      "inputs": [
        {
          "internalType": "bytes32",
          "name": "role",
          "type": "bytes32"
        },
        {
          "internalType": "address",
          "name": "account",
          "type": "address"
        }
      ],
      "name": "renounceRole",
      "outputs": [],
      "stateMutability": "nonpayable",
      "type": "function"
    },
    {
      "inputs": [
        {
          "internalType": "bytes32",
          "name": "role",
          "type": "bytes32"
        },
        {
          "internalType": "address",
          "name": "account",
          "type": "address"
        }
      ],
      "name": "revokeRole",
      "outputs": [],
      "stateMutability": "nonpayable",
      "type": "function"
    },
    {
      "stateMutability": "payable",
      "type": "receive"
    },
    {
      "inputs": [],
      "name": "getBalance",
      "outputs": [
        {
          "internalType": "uint256",
          "name": "",
          "type": "uint256"
        }
      ],
      "stateMutability": "view",
      "type": "function"
    },
    {
      "inputs": [
        {
          "internalType": "address[]",
          "name": "_opponentJudges",
          "type": "address[]"
        },
        {
          "internalType": "string",
          "name": "_betTakerName",
          "type": "string"
        }
      ],
      "name": "acceptBet",
      "outputs": [],
      "stateMutability": "payable",
      "type": "function"
    },
    {
      "inputs": [
        {
          "internalType": "address",
          "name": "_candidate",
          "type": "address"
        }
      ],
      "name": "judgeVote",
      "outputs": [],
      "stateMutability": "nonpayable",
      "type": "function"
    },
    {
      "inputs": [
        {
          "internalType": "address",
          "name": "_candidate",
          "type": "address"
        }
      ],
      "name": "adminVote",
      "outputs": [],
      "stateMutability": "nonpayable",
      "type": "function"
    }
  ],
  "bytecode": "0x60806040526000600460006101000a81548160ff0219169083151502179055506000600460016101000a81548160ff0219169083151502179055503480156200004757600080fd5b50604051620024d8380380620024d8833981810160405260e08110156200006d57600080fd5b81019080805190602001909291908051906020019092919080516040519392919084640100000000821115620000a257600080fd5b83820191506020820185811115620000b957600080fd5b8251866001820283011164010000000082111715620000d757600080fd5b8083526020830192505050908051906020019080838360005b838110156200010d578082015181840152602081019050620000f0565b50505050905090810190601f1680156200013b5780820380516001836020036101000a031916815260200191505b5060405260200180519060200190929190805160405193929190846401000000008211156200016957600080fd5b838201915060208201858111156200018057600080fd5b82518660208202830111640100000000821117156200019e57600080fd5b8083526020830192505050908051906020019060200280838360005b83811015620001d7578082015181840152602081019050620001ba565b5050505090500160405260200180519060200190929190805190602001909291905050508260028151111580156200021157506001815110155b62000268576040517f08c379a0000000000000000000000000000000000000000000000000000000008152600401808060200182810382526036815260200180620024a26036913960400191505060405180910390fd5b6200027d6000801b896200039760201b60201c565b620002af7f61d1bb7d7688fec169e00198b1bfb0436edf7b7587f293f9b0134c8cd6b65455886200039760201b60201c565b620002e17f73fd03b4d1a4566cea36b263466aa5c47d098c2cd6a202bf47c932dc6689b4b4866200039760201b60201c565b620002f284620003ad60201b60201c565b60405180604001604052808781526020016000815250600660008973ffffffffffffffffffffffffffffffffffffffff1673ffffffffffffffffffffffffffffffffffffffff16815260200190815260200160002060008201518160000190805190602001906200036592919062000592565b506020820151816001015590505082600281905550816001819055508351600381905550505050505050505062000638565b620003a982826200041260201b60201c565b5050565b60005b81518110156200040e57620004007f9c4e6fd68fbdec6e3075ec7bfba710532af019aea93f5f59ebfe5a9d1a0b894e838381518110620003ec57fe5b60200260200101516200039760201b60201c565b8080600101915050620003b0565b5050565b6200044081600080858152602001908152602001600020600001620004b560201b620017c71790919060201c565b15620004b15762000456620004ed60201b60201c565b73ffffffffffffffffffffffffffffffffffffffff168173ffffffffffffffffffffffffffffffffffffffff16837f2f8788117e7eff1d82e926ec794901d17c78024a50270940304540a733656f0d60405160405180910390a45b5050565b6000620004e5836000018373ffffffffffffffffffffffffffffffffffffffff1660001b620004f560201b60201c565b905092915050565b600033905090565b60006200050983836200056f60201b60201c565b6200056457826000018290806001815401808255809150506001900390600052602060002001600090919091909150558260000180549050836001016000848152602001908152602001600020819055506001905062000569565b600090505b92915050565b600080836001016000848152602001908152602001600020541415905092915050565b828054600181600116156101000203166002900490600052602060002090601f016020900481019282601f10620005d557805160ff191683800117855562000606565b8280016001018555821562000606579182015b8281111562000605578251825591602001919060010190620005e8565b5b50905062000615919062000619565b5090565b5b80821115620006345760008160009055506001016200061a565b5090565b611e5a80620006486000396000f3fe60806040526004361061014f5760003560e01c8063636bfbab116100b6578063da284dcc1161006f578063da284dcc146106f3578063e0e475881461071e578063e28e3bbd14610749578063f15f521914610898578063f84fce56146108c3578063f91e16a3146108f057610156565b8063636bfbab146105135780639010d07c1461053e57806391d14854146105ad578063a217fddf1461061e578063ca15c87314610649578063d547741f1461069857610156565b80632f2ff15d116101085780632f2ff15d14610329578063354d91de1461038457806336568abe146103eb5780633f9c3ac5146104465780635e536deb146104975780635ef76cd6146104e857610156565b806306a29fa91461015b578063098291441461018657806312065fe0146101b157806322010c1f146101dc578063248a9ca3146102ad5780632d0a64c1146102fc57610156565b3661015657005b600080fd5b34801561016757600080fd5b5061017061091b565b6040518082815260200191505060405180910390f35b34801561019257600080fd5b5061019b610920565b6040518082815260200191505060405180910390f35b3480156101bd57600080fd5b506101c6610944565b6040518082815260200191505060405180910390f35b3480156101e857600080fd5b5061022b600480360360208110156101ff57600080fd5b81019080803573ffffffffffffffffffffffffffffffffffffffff16906020019092919050505061094c565b6040518080602001838152602001828103825284818151815260200191508051906020019080838360005b83811015610271578082015181840152602081019050610256565b50505050905090810190601f16801561029e5780820380516001836020036101000a031916815260200191505b50935050505060405180910390f35b3480156102b957600080fd5b506102e6600480360360208110156102d057600080fd5b8101908080359060200190929190505050610a08565b6040518082815260200191505060405180910390f35b34801561030857600080fd5b50610311610a27565b60405180821515815260200191505060405180910390f35b34801561033557600080fd5b506103826004803603604081101561034c57600080fd5b8101908080359060200190929190803573ffffffffffffffffffffffffffffffffffffffff169060200190929190505050610a3a565b005b34801561039057600080fd5b506103d3600480360360208110156103a757600080fd5b81019080803573ffffffffffffffffffffffffffffffffffffffff169060200190929190505050610ac3565b60405180821515815260200191505060405180910390f35b3480156103f757600080fd5b506104446004803603604081101561040e57600080fd5b8101908080359060200190929190803573ffffffffffffffffffffffffffffffffffffffff169060200190929190505050610ae3565b005b34801561045257600080fd5b506104956004803603602081101561046957600080fd5b81019080803573ffffffffffffffffffffffffffffffffffffffff169060200190929190505050610b7c565b005b3480156104a357600080fd5b506104e6600480360360208110156104ba57600080fd5b81019080803573ffffffffffffffffffffffffffffffffffffffff169060200190929190505050610c89565b005b3480156104f457600080fd5b506104fd611276565b6040518082815260200191505060405180910390f35b34801561051f57600080fd5b5061052861129a565b6040518082815260200191505060405180910390f35b34801561054a57600080fd5b506105816004803603604081101561056157600080fd5b8101908080359060200190929190803590602001909291905050506112a0565b604051808273ffffffffffffffffffffffffffffffffffffffff16815260200191505060405180910390f35b3480156105b957600080fd5b50610606600480360360408110156105d057600080fd5b8101908080359060200190929190803573ffffffffffffffffffffffffffffffffffffffff1690602001909291905050506112d1565b60405180821515815260200191505060405180910390f35b34801561062a57600080fd5b50610633611302565b6040518082815260200191505060405180910390f35b34801561065557600080fd5b506106826004803603602081101561066c57600080fd5b8101908080359060200190929190505050611309565b6040518082815260200191505060405180910390f35b3480156106a457600080fd5b506106f1600480360360408110156106bb57600080fd5b8101908080359060200190929190803573ffffffffffffffffffffffffffffffffffffffff16906020019092919050505061132f565b005b3480156106ff57600080fd5b506107086113b8565b6040518082815260200191505060405180910390f35b34801561072a57600080fd5b506107336113be565b6040518082815260200191505060405180910390f35b6108966004803603604081101561075f57600080fd5b810190808035906020019064010000000081111561077c57600080fd5b82018360208201111561078e57600080fd5b803590602001918460208302840111640100000000831117156107b057600080fd5b919080806020026020016040519081016040528093929190818152602001838360200280828437600081840152601f19601f8201169050808301925050505050505091929192908035906020019064010000000081111561081057600080fd5b82018360208201111561082257600080fd5b8035906020019184600183028401116401000000008311171561084457600080fd5b91908080601f016020809104026020016040519081016040528093929190818152602001838380828437600081840152601f19601f8201169050808301925050505050505091929192905050506113e2565b005b3480156108a457600080fd5b506108ad6117a9565b6040518082815260200191505060405180910390f35b3480156108cf57600080fd5b506108d86117ae565b60405180821515815260200191505060405180910390f35b3480156108fc57600080fd5b506109056117c1565b6040518082815260200191505060405180910390f35b600281565b7f61d1bb7d7688fec169e00198b1bfb0436edf7b7587f293f9b0134c8cd6b6545581565b600047905090565b6006602052806000526040600020600091509050806000018054600181600116156101000203166002900480601f0160208091040260200160405190810160405280929190818152602001828054600181600116156101000203166002900480156109f85780601f106109cd576101008083540402835291602001916109f8565b820191906000526020600020905b8154815290600101906020018083116109db57829003601f168201915b5050505050908060010154905082565b6000806000838152602001908152602001600020600201549050919050565b600460009054906101000a900460ff1681565b610a6060008084815260200190815260200160002060020154610a5b6117f7565b6112d1565b610ab5576040517f08c379a000000000000000000000000000000000000000000000000000000000815260040180806020018281038252602f815260200180611ceb602f913960400191505060405180910390fd5b610abf82826117ff565b5050565b60056020528060005260406000206000915054906101000a900460ff1681565b610aeb6117f7565b73ffffffffffffffffffffffffffffffffffffffff168173ffffffffffffffffffffffffffffffffffffffff1614610b6e576040517f08c379a000000000000000000000000000000000000000000000000000000000815260040180806020018281038252602f815260200180611df6602f913960400191505060405180910390fd5b610b788282611892565b5050565b33610b8a6000801b826112d1565b610b9357600080fd5b6001600460016101000a81548160ff0219169083151502179055610bb657600080fd5b600660008373ffffffffffffffffffffffffffffffffffffffff1673ffffffffffffffffffffffffffffffffffffffff168152602001908152602001600020600101600081548092919060010191905055508173ffffffffffffffffffffffffffffffffffffffff166108fc479081150290604051600060405180830381858888f19350505050158015610c4e573d6000803e3d6000fd5b506000600460016101000a81548160ff0219169083151502179055506001600460006101000a81548160ff0219169083151502179055505050565b600154421015610ce4576040517f08c379a000000000000000000000000000000000000000000000000000000000815260040180806020018281038252602f815260200180611d1a602f913960400191505060405180910390fd5b80610d0f7f73fd03b4d1a4566cea36b263466aa5c47d098c2cd6a202bf47c932dc6689b4b4826112d1565b80610d405750610d3f7f61d1bb7d7688fec169e00198b1bfb0436edf7b7587f293f9b0134c8cd6b65455826112d1565b5b610d95576040517f08c379a0000000000000000000000000000000000000000000000000000000008152600401808060200182810382526027815260200180611dcf6027913960400191505060405180910390fd5b33600560008273ffffffffffffffffffffffffffffffffffffffff1673ffffffffffffffffffffffffffffffffffffffff16815260200190815260200160002060009054906101000a900460ff1615610e56576040517f08c379a00000000000000000000000000000000000000000000000000000000081526004018080602001828103825260178152602001807f596f75206861766520616c726561647920766f7465642e00000000000000000081525060200191505060405180910390fd5b33610e817f9c4e6fd68fbdec6e3075ec7bfba710532af019aea93f5f59ebfe5a9d1a0b894e826112d1565b610ef3576040517f08c379a00000000000000000000000000000000000000000000000000000000081526004018080602001828103825260168152602001807f43616c6c6572206973206e6f742061206a756467652e0000000000000000000081525060200191505060405180910390fd5b600660008573ffffffffffffffffffffffffffffffffffffffff1673ffffffffffffffffffffffffffffffffffffffff16815260200190815260200160002060010160008154809291906001019190505550600354600660008673ffffffffffffffffffffffffffffffffffffffff1673ffffffffffffffffffffffffffffffffffffffff168152602001908152602001600020600101541115610ff8578373ffffffffffffffffffffffffffffffffffffffff166108fc479081150290604051600060405180830381858888f19350505050158015610fd7573d6000803e3d6000fd5b506001600460006101000a81548160ff021916908315150217905550611218565b600354600660003073ffffffffffffffffffffffffffffffffffffffff16639010d07c7f73fd03b4d1a4566cea36b263466aa5c47d098c2cd6a202bf47c932dc6689b4b460006040518363ffffffff1660e01b8152600401808381526020018281526020019250505060206040518083038186803b15801561107957600080fd5b505afa15801561108d573d6000803e3d6000fd5b505050506040513d60208110156110a357600080fd5b810190808051906020019092919050505073ffffffffffffffffffffffffffffffffffffffff1673ffffffffffffffffffffffffffffffffffffffff168152602001908152602001600020600101541480156111f65750600354600660003073ffffffffffffffffffffffffffffffffffffffff16639010d07c7f61d1bb7d7688fec169e00198b1bfb0436edf7b7587f293f9b0134c8cd6b6545560006040518363ffffffff1660e01b8152600401808381526020018281526020019250505060206040518083038186803b15801561117b57600080fd5b505afa15801561118f573d6000803e3d6000fd5b505050506040513d60208110156111a557600080fd5b810190808051906020019092919050505073ffffffffffffffffffffffffffffffffffffffff1673ffffffffffffffffffffffffffffffffffffffff16815260200190815260200160002060010154145b15611217576001600460016101000a81548160ff0219169083151502179055505b5b6001600560003373ffffffffffffffffffffffffffffffffffffffff1673ffffffffffffffffffffffffffffffffffffffff16815260200190815260200160002060006101000a81548160ff02191690831515021790555050505050565b7f73fd03b4d1a4566cea36b263466aa5c47d098c2cd6a202bf47c932dc6689b4b481565b60025481565b60006112c98260008086815260200190815260200160002060000161192590919063ffffffff16565b905092915050565b60006112fa8260008086815260200190815260200160002060000161193f90919063ffffffff16565b905092915050565b6000801b81565b600061132860008084815260200190815260200160002060000161196f565b9050919050565b611355600080848152602001908152602001600020600201546113506117f7565b6112d1565b6113aa576040517f08c379a0000000000000000000000000000000000000000000000000000000008152600401808060200182810382526030815260200180611d6b6030913960400191505060405180910390fd5b6113b48282611892565b5050565b60015481565b7f9c4e6fd68fbdec6e3075ec7bfba710532af019aea93f5f59ebfe5a9d1a0b894e81565b8160003073ffffffffffffffffffffffffffffffffffffffff1663ca15c8737f9c4e6fd68fbdec6e3075ec7bfba710532af019aea93f5f59ebfe5a9d1a0b894e6040518263ffffffff1660e01b81526004018082815260200191505060206040518083038186803b15801561145657600080fd5b505afa15801561146a573d6000803e3d6000fd5b505050506040513d602081101561148057600080fd5b8101908080519060200190929190505050905081518114611509576040517f08c379a000000000000000000000000000000000000000000000000000000000815260040180806020018281038252601e8152602001807f596f75206861766520616c7265616479206164646564206a75646765732e000081525060200191505060405180910390fd5b83600354815114611565576040517f08c379a0000000000000000000000000000000000000000000000000000000008152600401808060200182810382526034815260200180611d9b6034913960400191505060405180910390fd5b346002548110156115c1576040517f08c379a0000000000000000000000000000000000000000000000000000000008152600401808060200182810382526022815260200180611d496022913960400191505060405180910390fd5b336115ec7f73fd03b4d1a4566cea36b263466aa5c47d098c2cd6a202bf47c932dc6689b4b4826112d1565b61165e576040517f08c379a00000000000000000000000000000000000000000000000000000000081526004018080602001828103825260198152602001807f43616c6c6572206973206e6f742061206265742074616b65720000000000000081525060200191505060405180910390fd5b60003073ffffffffffffffffffffffffffffffffffffffff16639010d07c7f73fd03b4d1a4566cea36b263466aa5c47d098c2cd6a202bf47c932dc6689b4b460006040518363ffffffff1660e01b8152600401808381526020018281526020019250505060206040518083038186803b1580156116da57600080fd5b505afa1580156116ee573d6000803e3d6000fd5b505050506040513d602081101561170457600080fd5b8101908080519060200190929190505050905060405180604001604052808881526020016000815250600660008373ffffffffffffffffffffffffffffffffffffffff1673ffffffffffffffffffffffffffffffffffffffff1681526020019081526020016000206000820151816000019080519060200190611788929190611c2b565b506020820151816001015590505061179f88611984565b5050505050505050565b600181565b600460019054906101000a900460ff1681565b60035481565b60006117ef836000018373ffffffffffffffffffffffffffffffffffffffff1660001b6119de565b905092915050565b600033905090565b611826816000808581526020019081526020016000206000016117c790919063ffffffff16565b1561188e576118336117f7565b73ffffffffffffffffffffffffffffffffffffffff168173ffffffffffffffffffffffffffffffffffffffff16837f2f8788117e7eff1d82e926ec794901d17c78024a50270940304540a733656f0d60405160405180910390a45b5050565b6118b981600080858152602001908152602001600020600001611a4e90919063ffffffff16565b15611921576118c66117f7565b73ffffffffffffffffffffffffffffffffffffffff168173ffffffffffffffffffffffffffffffffffffffff16837ff6391f5c32d9c69d2a47ea670b442974b53935d1edc7fd64eb21e047a839171b60405160405180910390a45b5050565b60006119348360000183611a7e565b60001c905092915050565b6000611967836000018373ffffffffffffffffffffffffffffffffffffffff1660001b611b01565b905092915050565b600061197d82600001611b24565b9050919050565b60005b81518110156119da576119cd7f9c4e6fd68fbdec6e3075ec7bfba710532af019aea93f5f59ebfe5a9d1a0b894e8383815181106119c057fe5b6020026020010151611b35565b8080600101915050611987565b5050565b60006119ea8383611b01565b611a43578260000182908060018154018082558091505060019003906000526020600020016000909190919091505582600001805490508360010160008481526020019081526020016000208190555060019050611a48565b600090505b92915050565b6000611a76836000018373ffffffffffffffffffffffffffffffffffffffff1660001b611b43565b905092915050565b600081836000018054905011611adf576040517f08c379a0000000000000000000000000000000000000000000000000000000008152600401808060200182810382526022815260200180611cc96022913960400191505060405180910390fd5b826000018281548110611aee57fe5b9060005260206000200154905092915050565b600080836001016000848152602001908152602001600020541415905092915050565b600081600001805490509050919050565b611b3f82826117ff565b5050565b60008083600101600084815260200190815260200160002054905060008114611c1f5760006001820390506000600186600001805490500390506000866000018281548110611b8e57fe5b9060005260206000200154905080876000018481548110611bab57fe5b9060005260206000200181905550600183018760010160008381526020019081526020016000208190555086600001805480611be357fe5b60019003818190600052602060002001600090559055866001016000878152602001908152602001600020600090556001945050505050611c25565b60009150505b92915050565b828054600181600116156101000203166002900490600052602060002090601f016020900481019282601f10611c6c57805160ff1916838001178555611c9a565b82800160010185558215611c9a579182015b82811115611c99578251825591602001919060010190611c7e565b5b509050611ca79190611cab565b5090565b5b80821115611cc4576000816000905550600101611cac565b509056fe456e756d657261626c655365743a20696e646578206f7574206f6620626f756e6473416363657373436f6e74726f6c3a2073656e646572206d75737420626520616e2061646d696e20746f206772616e74596f752063616e277420766f74652062656361757365206576656e74206469646e27742068617070656e207965742e496e73756666696369656e7420616d6f756e74206f662065746865722073656e742e416363657373436f6e74726f6c3a2073656e646572206d75737420626520616e2061646d696e20746f207265766f6b654e756d626572206f66206a756467657320796f752061737369676e6564206d757374206d61746368206f70706f6e656e7427732e54686973206164647265737320646f65736e27742062656c6f6e6720746f20626574746f72732e416363657373436f6e74726f6c3a2063616e206f6e6c792072656e6f756e636520726f6c657320666f722073656c66a2646970667358221220e1d38064dee31195c94ee69ca4ec0c53d8c494efa247860b056f1dff99155e7764736f6c63430007030033596f75206861766520746f2061737369676e206174206c65617374206f6e65206a7564676520616e642074776f206174206d6f73742e",
  "immutableReferences": {},
  "source": "// SPDX-License-Identifier: MIT\npragma solidity ^0.7.3;\n\nimport \"@openzeppelin/contracts/access/AccessControl.sol\";\n\n/*\nCheck if judges are unique\nCheck if any of judges is bet creator or bet taker\n */\n \ncontract Bet is AccessControl{\n\n    struct Bettor {\n        string name;\n        uint votes;\n    }\n\n    uint public constant MAX_JUDGES = 2;\n    uint public constant MIN_JUDGES = 1;\n\n    uint public expirationTime;\n    uint public minimumDeposit;\n    uint public creatorJudgesCount;\n\n    bool public betOver = false;\n    bool public isDraw = false;\n\n    bytes32 public constant BET_CREATOR_ROLE = keccak256(\"BET_CREATOR_ROLE\");\n    bytes32 public constant BET_TAKER_ROLE = keccak256(\"BET_TAKER_ROLE\");\n    bytes32 public constant JUDGE_ROLE = keccak256(\"JUDGE_ROLE\");\n\n    mapping(address => bool) public didVote;\n    mapping(address => Bettor) public bettors;\n\n    modifier onlyAdmin(address _sender){\n        require(hasRole(DEFAULT_ADMIN_ROLE, _sender));\n        _;\n    }\n\n    modifier requireDraw(){\n        require(isDraw=true);\n        _;\n    }\n\n    modifier canJudgeVote{\n        require(block.timestamp >= expirationTime, \"You can't vote because event didn't happen yet.\");\n        _;\n    }\n\n    modifier limitJudgesCreator(address[] memory _judges){\n        require(_judges.length <= MAX_JUDGES && _judges.length >= MIN_JUDGES, \"You have to assign at least one judge and two at most.\");\n        _;\n    }\n\n    modifier limitJudgesBetTaker(address[] memory _judges){\n        require(_judges.length == creatorJudgesCount, \"Number of judges you assigned must match opponent's.\");\n        _;\n    }\n\n    modifier onlyBetTaker(address _sender){\n        require(hasRole(BET_TAKER_ROLE, _sender), \"Caller is not a bet taker\");\n        _;\n    }\n    \n    modifier restrictJudges(address[] memory _judges){\n        uint judgesLength = this.getRoleMemberCount(JUDGE_ROLE);\n        require(judgesLength == _judges.length, \"You have already added judges.\");\n        _;\n    }\n\n    modifier minimumBetLimit(uint _value){\n        require(_value >= minimumDeposit, \"Insufficient amount of ether sent.\");\n        _;\n    }\n\n    modifier onlyVoteOnce(address _judge){\n        require(!didVote[_judge], \"You have already voted.\");\n        _;\n    }\n\n    modifier onlyJudge(address _sender){\n        require(hasRole(JUDGE_ROLE, _sender), \"Caller is not a judge.\");\n        _;\n    }\n\n    modifier onlyBettors(address _sender){\n        require(hasRole(BET_TAKER_ROLE, _sender) || hasRole(BET_CREATOR_ROLE, _sender), \"This address doesn't belong to bettors.\");\n        _;\n    }\n\n    constructor(address _admin, address _betCreator, string memory _betCreatorName, address _opponent, address[] memory _creatorJudges, uint _minimumDeposit, uint _expirationTime) limitJudgesCreator(_creatorJudges){\n        _setupRole(DEFAULT_ADMIN_ROLE, _admin);\n        _setupRole(BET_CREATOR_ROLE, _betCreator);\n        _setupRole(BET_TAKER_ROLE, _opponent);\n        setupJudgeRole(_creatorJudges);\n        \n        bettors[_betCreator] = Bettor({\n                name: _betCreatorName,\n                votes: 0\n            });\n\n        minimumDeposit = _minimumDeposit;\n        expirationTime = _expirationTime;\n        creatorJudgesCount = _creatorJudges.length;\n    }\n    \n    receive() external payable{}\n\n    function getBalance() public view returns(uint){\n        return address(this).balance;\n    }\n\n    function setupJudgeRole(address[] memory _judges) private{\n        for(uint i=0; i<_judges.length; i++){\n            _setupRole(JUDGE_ROLE, _judges[i]);\n        }\n    }\n    \n    function acceptBet(address[] memory _opponentJudges, string memory _betTakerName) public restrictJudges(_opponentJudges) limitJudgesBetTaker(_opponentJudges) minimumBetLimit(msg.value) onlyBetTaker(msg.sender) payable{\n        address _betTaker = this.getRoleMember(BET_TAKER_ROLE, 0); \n        bettors[_betTaker] = Bettor({\n                name: _betTakerName,\n                votes: 0\n            });\n        setupJudgeRole(_opponentJudges);\n    }\n    \n    function judgeVote(address _candidate) public canJudgeVote onlyBettors(_candidate) onlyVoteOnce(msg.sender) onlyJudge(msg.sender){    \n        bettors[_candidate].votes++;\n\n        if(bettors[_candidate].votes > creatorJudgesCount){\n            payable(_candidate).transfer(address(this).balance);\n            betOver = true;\n        }\n        else if(bettors[this.getRoleMember(BET_TAKER_ROLE, 0)].votes == creatorJudgesCount && bettors[this.getRoleMember(BET_CREATOR_ROLE, 0)].votes == creatorJudgesCount){\n            isDraw = true;\n        }\n        didVote[msg.sender] = true;\n    }\n\n    function adminVote(address _candidate) public onlyAdmin(msg.sender) requireDraw {\n        bettors[_candidate].votes++;\n        payable(_candidate).transfer(address(this).balance);\n        isDraw = false;\n        betOver = true;\n    }\n}",
  "sourcePath": "/home/marko/Documents/betting-app/ethereum/contracts/Bet.sol",
  "compiler": {
    "name": "solc",
    "version": "0.7.3+commit.9bfce1f6.Emscripten.clang"
  },
  "schemaVersion": "3.3.1",
  "updatedAt": "2020-11-03T08:06:09.314Z",
  "devdoc": {
    "kind": "dev",
    "methods": {
      "getRoleAdmin(bytes32)": {
        "details": "Returns the admin role that controls `role`. See {grantRole} and {revokeRole}. To change a role's admin, use {_setRoleAdmin}."
      },
      "getRoleMember(bytes32,uint256)": {
        "details": "Returns one of the accounts that have `role`. `index` must be a value between 0 and {getRoleMemberCount}, non-inclusive. Role bearers are not sorted in any particular way, and their ordering may change at any point. WARNING: When using {getRoleMember} and {getRoleMemberCount}, make sure you perform all queries on the same block. See the following https://forum.openzeppelin.com/t/iterating-over-elements-on-enumerableset-in-openzeppelin-contracts/2296[forum post] for more information."
      },
      "getRoleMemberCount(bytes32)": {
        "details": "Returns the number of accounts that have `role`. Can be used together with {getRoleMember} to enumerate all bearers of a role."
      },
      "grantRole(bytes32,address)": {
        "details": "Grants `role` to `account`. If `account` had not been already granted `role`, emits a {RoleGranted} event. Requirements: - the caller must have ``role``'s admin role."
      },
      "hasRole(bytes32,address)": {
        "details": "Returns `true` if `account` has been granted `role`."
      },
      "renounceRole(bytes32,address)": {
        "details": "Revokes `role` from the calling account. Roles are often managed via {grantRole} and {revokeRole}: this function's purpose is to provide a mechanism for accounts to lose their privileges if they are compromised (such as when a trusted device is misplaced). If the calling account had been granted `role`, emits a {RoleRevoked} event. Requirements: - the caller must be `account`."
      },
      "revokeRole(bytes32,address)": {
        "details": "Revokes `role` from `account`. If `account` had been granted `role`, emits a {RoleRevoked} event. Requirements: - the caller must have ``role``'s admin role."
      }
    },
    "version": 1
  },
  "userdoc": {
    "kind": "user",
    "methods": {},
    "version": 1
  }
}