{
  "contractName": "Bet",
  "abi": [
    {
      "inputs": [
        {
          "internalType": "address",
          "name": "_admin",
          "type": "address"
        },
        {
          "internalType": "uint256",
          "name": "_deposit",
          "type": "uint256"
        },
        {
          "internalType": "string",
          "name": "_description",
          "type": "string"
        },
        {
          "internalType": "uint256",
          "name": "_expirationTime",
          "type": "uint256"
        }
      ],
      "stateMutability": "nonpayable",
      "type": "constructor"
    },
    {
      "anonymous": false,
      "inputs": [
        {
          "indexed": false,
          "internalType": "address",
          "name": "_sender",
          "type": "address"
        },
        {
          "indexed": false,
          "internalType": "bytes32",
          "name": "_roleName",
          "type": "bytes32"
        },
        {
          "indexed": false,
          "internalType": "bytes32",
          "name": "_action",
          "type": "bytes32"
        }
      ],
      "name": "Action",
      "type": "event"
    },
    {
      "anonymous": false,
      "inputs": [
        {
          "indexed": false,
          "internalType": "enum Bet.BetState",
          "name": "_betState",
          "type": "uint8"
        }
      ],
      "name": "CurrentState",
      "type": "event"
    },
    {
      "anonymous": false,
      "inputs": [],
      "name": "Dispute",
      "type": "event"
    },
    {
      "inputs": [
        {
          "internalType": "address",
          "name": "dest",
          "type": "address"
        }
      ],
      "name": "payments",
      "outputs": [
        {
          "internalType": "uint256",
          "name": "",
          "type": "uint256"
        }
      ],
      "stateMutability": "view",
      "type": "function"
    },
    {
      "inputs": [
        {
          "internalType": "address payable",
          "name": "payee",
          "type": "address"
        }
      ],
      "name": "withdrawPayments",
      "outputs": [],
      "stateMutability": "nonpayable",
      "type": "function"
    },
    {
      "inputs": [
        {
          "internalType": "bool",
          "name": "_choice",
          "type": "bool"
        }
      ],
      "name": "bet",
      "outputs": [
        {
          "internalType": "enum Bet.BetState",
          "name": "",
          "type": "uint8"
        }
      ],
      "stateMutability": "payable",
      "type": "function"
    },
    {
      "inputs": [
        {
          "internalType": "bool",
          "name": "_choice",
          "type": "bool"
        }
      ],
      "name": "addJudge",
      "outputs": [
        {
          "internalType": "enum Bet.BetState",
          "name": "",
          "type": "uint8"
        }
      ],
      "stateMutability": "nonpayable",
      "type": "function"
    },
    {
      "inputs": [
        {
          "internalType": "bool",
          "name": "_vote",
          "type": "bool"
        }
      ],
      "name": "vote",
      "outputs": [
        {
          "internalType": "enum Bet.BetState",
          "name": "",
          "type": "uint8"
        }
      ],
      "stateMutability": "nonpayable",
      "type": "function"
    },
    {
      "inputs": [],
      "name": "getBet",
      "outputs": [
        {
          "internalType": "string",
          "name": "description",
          "type": "string"
        },
        {
          "internalType": "enum Bet.BetState",
          "name": "betState",
          "type": "uint8"
        },
        {
          "internalType": "uint256",
          "name": "expirationTime",
          "type": "uint256"
        },
        {
          "internalType": "uint256",
          "name": "deposit",
          "type": "uint256"
        }
      ],
      "stateMutability": "view",
      "type": "function"
    }
  ],
  "bytecode": "0x60806040523480156200001157600080fd5b5060405162002f0e38038062002f0e8339818101604052810190620000379190620003e4565b60016000819055506040516200004d90620002a6565b604051809103906000f0801580156200006a573d6000803e3d6000fd5b50600160006101000a81548173ffffffffffffffffffffffffffffffffffffffff021916908373ffffffffffffffffffffffffffffffffffffffff16021790555060026000541415620000f4576040517f08c379a0000000000000000000000000000000000000000000000000000000008152600401620000eb90620004d9565b60405180910390fd5b600260008190555083600260040160006101000a81548173ffffffffffffffffffffffffffffffffffffffff021916908373ffffffffffffffffffffffffffffffffffffffff16021790555081600260050190805190602001906200015b929190620002b4565b5082600260080181905550806002600701819055506000600260060160006101000a81548160ff021916908360058111156200019357fe5b02179055507fddcfb765bde38f2398991691fb41281cf11da2c318c4d22694f06e2c5e9f1f0d600260060160009054906101000a900460ff16604051620001db9190620004bc565b60405180910390a1620001f36200020560201b60201c565b60016000819055505050505062000646565b6001600260060160009054906101000a900460ff1660058111156200022657fe5b0160058111156200023357fe5b600260060160006101000a81548160ff021916908360058111156200025457fe5b02179055507fddcfb765bde38f2398991691fb41281cf11da2c318c4d22694f06e2c5e9f1f0d600260060160009054906101000a900460ff166040516200029c9190620004bc565b60405180910390a1565b610cbb806200225383390190565b828054600181600116156101000203166002900490600052602060002090601f016020900481019282601f10620002f757805160ff191683800117855562000328565b8280016001018555821562000328579182015b82811115620003275782518255916020019190600101906200030a565b5b5090506200033791906200033b565b5090565b5b80821115620003565760008160009055506001016200033c565b5090565b6000815190506200036b8162000612565b92915050565b600082601f8301126200038357600080fd5b81516200039a620003948262000529565b620004fb565b91508082526020830160208301858383011115620003b757600080fd5b620003c4838284620005ce565b50505092915050565b600081519050620003de816200062c565b92915050565b60008060008060808587031215620003fb57600080fd5b60006200040b878288016200035a565b94505060206200041e87828801620003cd565b935050604085015167ffffffffffffffff8111156200043c57600080fd5b6200044a8782880162000371565b92505060606200045d87828801620003cd565b91505092959194509250565b6200047481620005ba565b82525050565b600062000489601f8362000556565b91507f5265656e7472616e637947756172643a207265656e7472616e742063616c6c006000830152602082019050919050565b6000602082019050620004d3600083018462000469565b92915050565b60006020820190508181036000830152620004f4816200047a565b9050919050565b6000604051905081810181811067ffffffffffffffff821117156200051f57600080fd5b8060405250919050565b600067ffffffffffffffff8211156200054157600080fd5b601f19601f8301169050602081019050919050565b600082825260208201905092915050565b6000620005748262000590565b9050919050565b60008190506200058b8262000604565b919050565b600073ffffffffffffffffffffffffffffffffffffffff82169050919050565b6000819050919050565b6000620005c7826200057b565b9050919050565b60005b83811015620005ee578082015181840152602081019050620005d1565b83811115620005fe576000848401525b50505050565b600681106200060f57fe5b50565b6200061d8162000567565b81146200062957600080fd5b50565b6200063781620005b0565b81146200064357600080fd5b50565b611bfd80620006566000396000f3fe6080604052600436106100555760003560e01c806320835e8c1461005a57806331b3eb94146100885780634b9f5c98146100b1578063523afb0d146100ee578063c865f4be1461011e578063e2982c211461015b575b600080fd5b34801561006657600080fd5b5061006f610198565b60405161007f949392919061192e565b60405180910390f35b34801561009457600080fd5b506100af60048036038101906100aa9190611577565b61026d565b005b3480156100bd57600080fd5b506100d860048036038101906100d391906115a0565b6102fd565b6040516100e59190611913565b60405180910390f35b610108600480360381019061010391906115a0565b610b98565b6040516101159190611913565b60405180910390f35b34801561012a57600080fd5b50610145600480360381019061014091906115a0565b610e30565b6040516101529190611913565b60405180910390f35b34801561016757600080fd5b50610182600480360381019061017d919061154e565b6111d4565b60405161018f9190611a5a565b60405180910390f35b606060008060006002600501600260060160009054906101000a900460ff16600260070154600260080154838054600181600116156101000203166002900480601f0160208091040260200160405190810160405280929190818152602001828054600181600116156101000203166002900480156102585780601f1061022d57610100808354040283529160200191610258565b820191906000526020600020905b81548152906001019060200180831161023b57829003601f168201915b50505050509350935093509350935090919293565b600160009054906101000a900473ffffffffffffffffffffffffffffffffffffffff1673ffffffffffffffffffffffffffffffffffffffff166351cff8d9826040518263ffffffff1660e01b81526004016102c891906118c3565b600060405180830381600087803b1580156102e257600080fd5b505af11580156102f6573d6000803e3d6000fd5b5050505050565b6000600380600581111561030d57fe5b600260060160009054906101000a900460ff16600581111561032b57fe5b14801561033d57506002600701544210155b1561034b5761034a611288565b5b600480600581111561035957fe5b600260060160009054906101000a900460ff16600581111561037757fe5b146103b7576040517f08c379a00000000000000000000000000000000000000000000000000000000081526004016103ae906119fa565b60405180910390fd5b337f32f362939feeddf98eccc44e698411fe6ec6a883b233638978ad33951461fc5b600260000160008373ffffffffffffffffffffffffffffffffffffffff1673ffffffffffffffffffffffffffffffffffffffff16815260200190815260200160002054148061048957507f4f1edc0ca9283811223635e0c6047a826fb8cfbfe336a7cf471f73498956f6e9600260000160008373ffffffffffffffffffffffffffffffffffffffff1673ffffffffffffffffffffffffffffffffffffffff16815260200190815260200160002054145b806104e457508073ffffffffffffffffffffffffffffffffffffffff16600260040160009054906101000a900473ffffffffffffffffffffffffffffffffffffffff1673ffffffffffffffffffffffffffffffffffffffff16145b610523576040517f08c379a000000000000000000000000000000000000000000000000000000000815260040161051a90611a1a565b60405180910390fd5b33600115156002800160008373ffffffffffffffffffffffffffffffffffffffff1673ffffffffffffffffffffffffffffffffffffffff16815260200190815260200160002060009054906101000a900460ff16151514156105ba576040517f08c379a00000000000000000000000000000000000000000000000000000000081526004016105b190611a3a565b60405180910390fd5b60016002800160003373ffffffffffffffffffffffffffffffffffffffff1673ffffffffffffffffffffffffffffffffffffffff16815260200190815260200160002060006101000a81548160ff0219169083151502179055508515610767576106c6600160026003016000600260010160007f685cbe58d4098fac8330e909dac36f447a9209d2b24413a861fd9643c6c2999a815260200190815260200160002060009054906101000a900473ffffffffffffffffffffffffffffffffffffffff1673ffffffffffffffffffffffffffffffffffffffff1673ffffffffffffffffffffffffffffffffffffffff1681526020019081526020016000205461132490919063ffffffff16565b60026003016000600260010160007f685cbe58d4098fac8330e909dac36f447a9209d2b24413a861fd9643c6c2999a815260200190815260200160002060009054906101000a900473ffffffffffffffffffffffffffffffffffffffff1673ffffffffffffffffffffffffffffffffffffffff1673ffffffffffffffffffffffffffffffffffffffff168152602001908152602001600020819055506108b0565b610813600160026003016000600260010160007f2cd00aae05936216d949074140c6df80df0c371c39612aecda646a5eb38ea26d815260200190815260200160002060009054906101000a900473ffffffffffffffffffffffffffffffffffffffff1673ffffffffffffffffffffffffffffffffffffffff1673ffffffffffffffffffffffffffffffffffffffff1681526020019081526020016000205461132490919063ffffffff16565b60026003016000600260010160007f2cd00aae05936216d949074140c6df80df0c371c39612aecda646a5eb38ea26d815260200190815260200160002060009054906101000a900473ffffffffffffffffffffffffffffffffffffffff1673ffffffffffffffffffffffffffffffffffffffff1673ffffffffffffffffffffffffffffffffffffffff168152602001908152602001600020819055505b600160026003016000600260010160007f2cd00aae05936216d949074140c6df80df0c371c39612aecda646a5eb38ea26d815260200190815260200160002060009054906101000a900473ffffffffffffffffffffffffffffffffffffffff1673ffffffffffffffffffffffffffffffffffffffff1673ffffffffffffffffffffffffffffffffffffffff1681526020019081526020016000205411806109ef5750600160026003016000600260010160007f685cbe58d4098fac8330e909dac36f447a9209d2b24413a861fd9643c6c2999a815260200190815260200160002060009054906101000a900473ffffffffffffffffffffffffffffffffffffffff1673ffffffffffffffffffffffffffffffffffffffff1673ffffffffffffffffffffffffffffffffffffffff16815260200190815260200160002054115b15610a01576109fc611288565b610b7a565b6002610b4660026003016000600260010160007f685cbe58d4098fac8330e909dac36f447a9209d2b24413a861fd9643c6c2999a815260200190815260200160002060009054906101000a900473ffffffffffffffffffffffffffffffffffffffff1673ffffffffffffffffffffffffffffffffffffffff1673ffffffffffffffffffffffffffffffffffffffff1681526020019081526020016000205460026003016000600260010160007f2cd00aae05936216d949074140c6df80df0c371c39612aecda646a5eb38ea26d815260200190815260200160002060009054906101000a900473ffffffffffffffffffffffffffffffffffffffff1673ffffffffffffffffffffffffffffffffffffffff1673ffffffffffffffffffffffffffffffffffffffff1681526020019081526020016000205461132490919063ffffffff16565b1415610b79577f44691f2b3c418910891d38698452a9a5fb125e7a8147de7ab579ee626d7037cb60405160405180910390a15b5b600260060160009054906101000a900460ff16945050505050919050565b60006001806005811115610ba857fe5b600260060160009054906101000a900460ff166005811115610bc657fe5b14610c06576040517f08c379a0000000000000000000000000000000000000000000000000000000008152600401610bfd906119fa565b60405180910390fd5b346002600801548114610c4e576040517f08c379a0000000000000000000000000000000000000000000000000000000008152600401610c45906119da565b60405180910390fd5b8315610ca457610c9f337f685cbe58d4098fac8330e909dac36f447a9209d2b24413a861fd9643c6c2999a7f424554544f520000000000000000000000000000000000000000000000000000611379565b610cf0565b610cef337f2cd00aae05936216d949074140c6df80df0c371c39612aecda646a5eb38ea26d7f434f554e54455220424554544f52000000000000000000000000000000000000611379565b5b600073ffffffffffffffffffffffffffffffffffffffff16600260010160007f685cbe58d4098fac8330e909dac36f447a9209d2b24413a861fd9643c6c2999a815260200190815260200160002060009054906101000a900473ffffffffffffffffffffffffffffffffffffffff1673ffffffffffffffffffffffffffffffffffffffff1614158015610e065750600073ffffffffffffffffffffffffffffffffffffffff16600260010160007f2cd00aae05936216d949074140c6df80df0c371c39612aecda646a5eb38ea26d815260200190815260200160002060009054906101000a900473ffffffffffffffffffffffffffffffffffffffff1673ffffffffffffffffffffffffffffffffffffffff1614155b15610e1457610e13611288565b5b600260060160009054906101000a900460ff1692505050919050565b60006002806005811115610e4057fe5b600260060160009054906101000a900460ff166005811115610e5e57fe5b14610e9e576040517f08c379a0000000000000000000000000000000000000000000000000000000008152600401610e95906119fa565b60405180910390fd5b338073ffffffffffffffffffffffffffffffffffffffff16600260010160007f685cbe58d4098fac8330e909dac36f447a9209d2b24413a861fd9643c6c2999a815260200190815260200160002060009054906101000a900473ffffffffffffffffffffffffffffffffffffffff1673ffffffffffffffffffffffffffffffffffffffff1614158015610fb357508073ffffffffffffffffffffffffffffffffffffffff16600260010160007f2cd00aae05936216d949074140c6df80df0c371c39612aecda646a5eb38ea26d815260200190815260200160002060009054906101000a900473ffffffffffffffffffffffffffffffffffffffff1673ffffffffffffffffffffffffffffffffffffffff1614155b610ff2576040517f08c379a0000000000000000000000000000000000000000000000000000000008152600401610fe99061199a565b60405180910390fd5b831561104857611043337f32f362939feeddf98eccc44e698411fe6ec6a883b233638978ad33951461fc5b7f424554544f52204a554447450000000000000000000000000000000000000000611379565b611094565b611093337f4f1edc0ca9283811223635e0c6047a826fb8cfbfe336a7cf471f73498956f6e97f434f554e54455220424554544f52204a55444745000000000000000000000000611379565b5b600073ffffffffffffffffffffffffffffffffffffffff16600260010160007f32f362939feeddf98eccc44e698411fe6ec6a883b233638978ad33951461fc5b815260200190815260200160002060009054906101000a900473ffffffffffffffffffffffffffffffffffffffff1673ffffffffffffffffffffffffffffffffffffffff16141580156111aa5750600073ffffffffffffffffffffffffffffffffffffffff16600260010160007f4f1edc0ca9283811223635e0c6047a826fb8cfbfe336a7cf471f73498956f6e9815260200190815260200160002060009054906101000a900473ffffffffffffffffffffffffffffffffffffffff1673ffffffffffffffffffffffffffffffffffffffff1614155b156111b8576111b7611288565b5b600260060160009054906101000a900460ff1692505050919050565b6000600160009054906101000a900473ffffffffffffffffffffffffffffffffffffffff1673ffffffffffffffffffffffffffffffffffffffff1663e3a9db1a836040518263ffffffff1660e01b815260040161123191906118a8565b60206040518083038186803b15801561124957600080fd5b505afa15801561125d573d6000803e3d6000fd5b505050506040513d601f19601f8201168201806040525081019061128191906115c9565b9050919050565b6001600260060160009054906101000a900460ff1660058111156112a857fe5b0160058111156112b457fe5b600260060160006101000a81548160ff021916908360058111156112d457fe5b02179055507fddcfb765bde38f2398991691fb41281cf11da2c318c4d22694f06e2c5e9f1f0d600260060160009054906101000a900460ff1660405161131a9190611913565b60405180910390a1565b60008082840190508381101561136f576040517f08c379a00000000000000000000000000000000000000000000000000000000081526004016113669061197a565b60405180910390fd5b8091505092915050565b81600073ffffffffffffffffffffffffffffffffffffffff166002600101600083815260200190815260200160002060009054906101000a900473ffffffffffffffffffffffffffffffffffffffff1673ffffffffffffffffffffffffffffffffffffffff161461141f576040517f08c379a0000000000000000000000000000000000000000000000000000000008152600401611416906119ba565b60405180910390fd5b82600260000160008673ffffffffffffffffffffffffffffffffffffffff1673ffffffffffffffffffffffffffffffffffffffff16815260200190815260200160002081905550836002600101600085815260200190815260200160002060006101000a81548173ffffffffffffffffffffffffffffffffffffffff021916908373ffffffffffffffffffffffffffffffffffffffff1602179055507f6871ede5f4c6728d3c4d1243043c66eceffe892c9533d97e0b34918b2f5decdf84836040516114ec9291906118de565b60405180910390a150505050565b60008135905061150981611b6b565b92915050565b60008135905061151e81611b82565b92915050565b60008135905061153381611b99565b92915050565b60008151905061154881611bb0565b92915050565b60006020828403121561156057600080fd5b600061156e848285016114fa565b91505092915050565b60006020828403121561158957600080fd5b60006115978482850161150f565b91505092915050565b6000602082840312156115b257600080fd5b60006115c084828501611524565b91505092915050565b6000602082840312156115db57600080fd5b60006115e984828501611539565b91505092915050565b6115fb81611aa3565b82525050565b61160a81611a91565b82525050565b61161981611ac1565b82525050565b61162881611b08565b82525050565b600061163982611a75565b6116438185611a80565b9350611653818560208601611b1a565b61165c81611b4d565b840191505092915050565b6000611674601b83611a80565b91507f536166654d6174683a206164646974696f6e206f766572666c6f7700000000006000830152602082019050919050565b60006116b4602183611a80565b91507f596f7520617265206e6f7420616c6c6f77656420746f2062652061206a75646760008301527f65000000000000000000000000000000000000000000000000000000000000006020830152604082019050919050565b600061171a601283611a80565b91507f5468617420726f6c652069732074616b656e00000000000000000000000000006000830152602082019050919050565b7f526f6c652061737369676e656400000000000000000000000000000000000000815250565b6000611780602683611a80565b91507f56616c75652073656e7420646f65736e2774206d61746368206465706f73697460008301527f2076616c756500000000000000000000000000000000000000000000000000006020830152604082019050919050565b60006117e6601983611a80565b91507f596f752063616e277420646f207468617420616e796d6f7265000000000000006000830152602082019050919050565b6000611826601583611a80565b91507f53656e646572206973206e6f742061206a7564676500000000000000000000006000830152602082019050919050565b6000611866601683611a80565b91507f596f75206861766520616c726561647920766f746564000000000000000000006000830152602082019050919050565b6118a281611afe565b82525050565b60006020820190506118bd6000830184611601565b92915050565b60006020820190506118d860008301846115f2565b92915050565b60006060820190506118f36000830185611601565b6119006020830184611610565b61190c6040830161174d565b9392505050565b6000602082019050611928600083018461161f565b92915050565b60006080820190508181036000830152611948818761162e565b9050611957602083018661161f565b6119646040830185611899565b6119716060830184611899565b95945050505050565b6000602082019050818103600083015261199381611667565b9050919050565b600060208201905081810360008301526119b3816116a7565b9050919050565b600060208201905081810360008301526119d38161170d565b9050919050565b600060208201905081810360008301526119f381611773565b9050919050565b60006020820190508181036000830152611a13816117d9565b9050919050565b60006020820190508181036000830152611a3381611819565b9050919050565b60006020820190508181036000830152611a5381611859565b9050919050565b6000602082019050611a6f6000830184611899565b92915050565b600081519050919050565b600082825260208201905092915050565b6000611a9c82611ade565b9050919050565b6000611aae82611ade565b9050919050565b60008115159050919050565b6000819050919050565b6000819050611ad982611b5e565b919050565b600073ffffffffffffffffffffffffffffffffffffffff82169050919050565b6000819050919050565b6000611b1382611acb565b9050919050565b60005b83811015611b38578082015181840152602081019050611b1d565b83811115611b47576000848401525b50505050565b6000601f19601f8301169050919050565b60068110611b6857fe5b50565b611b7481611a91565b8114611b7f57600080fd5b50565b611b8b81611aa3565b8114611b9657600080fd5b50565b611ba281611ab5565b8114611bad57600080fd5b50565b611bb981611afe565b8114611bc457600080fd5b5056fea2646970667358221220f148b75e3400deeed939ea4e5ee6d5d66a025db2e04b70fb13a22c0afac8060c64736f6c63430007000033608060405234801561001057600080fd5b5060006100216100c460201b60201c565b9050806000806101000a81548173ffffffffffffffffffffffffffffffffffffffff021916908373ffffffffffffffffffffffffffffffffffffffff1602179055508073ffffffffffffffffffffffffffffffffffffffff16600073ffffffffffffffffffffffffffffffffffffffff167f8be0079c531659141344cd1fd0a4f28419497f9722a3daafe3b4186f6b6457e060405160405180910390a3506100cc565b600033905090565b610be0806100db6000396000f3fe6080604052600436106100555760003560e01c806351cff8d91461005a578063715018a6146100ab5780638da5cb5b146100c2578063e3a9db1a14610103578063f2fde38b14610168578063f340fa01146101b9575b600080fd5b34801561006657600080fd5b506100a96004803603602081101561007d57600080fd5b81019080803573ffffffffffffffffffffffffffffffffffffffff1690602001909291905050506101fd565b005b3480156100b757600080fd5b506100c06103c9565b005b3480156100ce57600080fd5b506100d761054f565b604051808273ffffffffffffffffffffffffffffffffffffffff16815260200191505060405180910390f35b34801561010f57600080fd5b506101526004803603602081101561012657600080fd5b81019080803573ffffffffffffffffffffffffffffffffffffffff169060200190929190505050610578565b6040518082815260200191505060405180910390f35b34801561017457600080fd5b506101b76004803603602081101561018b57600080fd5b81019080803573ffffffffffffffffffffffffffffffffffffffff1690602001909291905050506105c1565b005b6101fb600480360360208110156101cf57600080fd5b81019080803573ffffffffffffffffffffffffffffffffffffffff1690602001909291905050506107cc565b005b610205610980565b73ffffffffffffffffffffffffffffffffffffffff1660008054906101000a900473ffffffffffffffffffffffffffffffffffffffff1673ffffffffffffffffffffffffffffffffffffffff16146102c5576040517f08c379a00000000000000000000000000000000000000000000000000000000081526004018080602001828103825260208152602001807f4f776e61626c653a2063616c6c6572206973206e6f7420746865206f776e657281525060200191505060405180910390fd5b6000600160008373ffffffffffffffffffffffffffffffffffffffff1673ffffffffffffffffffffffffffffffffffffffff1681526020019081526020016000205490506000600160008473ffffffffffffffffffffffffffffffffffffffff1673ffffffffffffffffffffffffffffffffffffffff16815260200190815260200160002081905550610377818373ffffffffffffffffffffffffffffffffffffffff1661098890919063ffffffff16565b8173ffffffffffffffffffffffffffffffffffffffff167f7084f5476618d8e60b11ef0d7d3f06914655adb8793e28ff7f018d4c76d505d5826040518082815260200191505060405180910390a25050565b6103d1610980565b73ffffffffffffffffffffffffffffffffffffffff1660008054906101000a900473ffffffffffffffffffffffffffffffffffffffff1673ffffffffffffffffffffffffffffffffffffffff1614610491576040517f08c379a00000000000000000000000000000000000000000000000000000000081526004018080602001828103825260208152602001807f4f776e61626c653a2063616c6c6572206973206e6f7420746865206f776e657281525060200191505060405180910390fd5b600073ffffffffffffffffffffffffffffffffffffffff1660008054906101000a900473ffffffffffffffffffffffffffffffffffffffff1673ffffffffffffffffffffffffffffffffffffffff167f8be0079c531659141344cd1fd0a4f28419497f9722a3daafe3b4186f6b6457e060405160405180910390a360008060006101000a81548173ffffffffffffffffffffffffffffffffffffffff021916908373ffffffffffffffffffffffffffffffffffffffff160217905550565b60008060009054906101000a900473ffffffffffffffffffffffffffffffffffffffff16905090565b6000600160008373ffffffffffffffffffffffffffffffffffffffff1673ffffffffffffffffffffffffffffffffffffffff168152602001908152602001600020549050919050565b6105c9610980565b73ffffffffffffffffffffffffffffffffffffffff1660008054906101000a900473ffffffffffffffffffffffffffffffffffffffff1673ffffffffffffffffffffffffffffffffffffffff1614610689576040517f08c379a00000000000000000000000000000000000000000000000000000000081526004018080602001828103825260208152602001807f4f776e61626c653a2063616c6c6572206973206e6f7420746865206f776e657281525060200191505060405180910390fd5b600073ffffffffffffffffffffffffffffffffffffffff168173ffffffffffffffffffffffffffffffffffffffff16141561070f576040517f08c379a0000000000000000000000000000000000000000000000000000000008152600401808060200182810382526026815260200180610b4b6026913960400191505060405180910390fd5b8073ffffffffffffffffffffffffffffffffffffffff1660008054906101000a900473ffffffffffffffffffffffffffffffffffffffff1673ffffffffffffffffffffffffffffffffffffffff167f8be0079c531659141344cd1fd0a4f28419497f9722a3daafe3b4186f6b6457e060405160405180910390a3806000806101000a81548173ffffffffffffffffffffffffffffffffffffffff021916908373ffffffffffffffffffffffffffffffffffffffff16021790555050565b6107d4610980565b73ffffffffffffffffffffffffffffffffffffffff1660008054906101000a900473ffffffffffffffffffffffffffffffffffffffff1673ffffffffffffffffffffffffffffffffffffffff1614610894576040517f08c379a00000000000000000000000000000000000000000000000000000000081526004018080602001828103825260208152602001807f4f776e61626c653a2063616c6c6572206973206e6f7420746865206f776e657281525060200191505060405180910390fd5b60003490506108eb81600160008573ffffffffffffffffffffffffffffffffffffffff1673ffffffffffffffffffffffffffffffffffffffff16815260200190815260200160002054610ac290919063ffffffff16565b600160008473ffffffffffffffffffffffffffffffffffffffff1673ffffffffffffffffffffffffffffffffffffffff168152602001908152602001600020819055508173ffffffffffffffffffffffffffffffffffffffff167f2da466a7b24304f47e87fa2e1e5a81b9831ce54fec19055ce277ca2f39ba42c4826040518082815260200191505060405180910390a25050565b600033905090565b804710156109fe576040517f08c379a000000000000000000000000000000000000000000000000000000000815260040180806020018281038252601d8152602001807f416464726573733a20696e73756666696369656e742062616c616e636500000081525060200191505060405180910390fd5b60008273ffffffffffffffffffffffffffffffffffffffff168260405180600001905060006040518083038185875af1925050503d8060008114610a5e576040519150601f19603f3d011682016040523d82523d6000602084013e610a63565b606091505b5050905080610abd576040517f08c379a000000000000000000000000000000000000000000000000000000000815260040180806020018281038252603a815260200180610b71603a913960400191505060405180910390fd5b505050565b600080828401905083811015610b40576040517f08c379a000000000000000000000000000000000000000000000000000000000815260040180806020018281038252601b8152602001807f536166654d6174683a206164646974696f6e206f766572666c6f77000000000081525060200191505060405180910390fd5b809150509291505056fe4f776e61626c653a206e6577206f776e657220697320746865207a65726f2061646472657373416464726573733a20756e61626c6520746f2073656e642076616c75652c20726563697069656e74206d61792068617665207265766572746564a26469706673582212203ac5fd2fa5056901ac02c7ba52b6fca2eab1a7e38f03c38e2c80957731c4c14a64736f6c63430007000033",
  "immutableReferences": {},
  "source": "// SPDX-License-Identifier: MIT\npragma solidity ^0.7.0;\npragma experimental ABIEncoderV2;\n\n// Libraries\nimport { SafeMath } from '@openzeppelin/contracts/math/SafeMath.sol';\nimport { PullPayment } from '@openzeppelin/contracts/payment/PullPayment.sol';\nimport { ReentrancyGuard } from '@openzeppelin/contracts/utils/ReentrancyGuard.sol';\n\ncontract Bet is ReentrancyGuard, PullPayment {\n\n    //----------------------------------------\n    // Type definitions\n    //----------------------------------------\n    using SafeMath for uint256;\n    \n    //----------------------------------------\n    // Constants\n    //----------------------------------------\n    uint internal constant MAX_JUDGES = 2;\n    uint internal constant JUDGE_PER_SIDE = 1; \n\n    //----------------------------------------\n    // Contract roles\n    //----------------------------------------\n    bytes32 internal constant BETTOR_ROLE = keccak256(\"BETTOR\");\n    bytes32 internal constant COUNTER_BETTOR_ROLE = keccak256(\"COUNTER_BETTOR\");\n    bytes32 internal constant BETTOR_JUDGE = keccak256(\"BETTOR_JUDGE\");\n    bytes32 internal constant COUNTER_BETTOR_JUDGE = keccak256(\"COUNTER_BETTOR_JUDGE\");\n    \n    /**\n     * @notice Structure with all possible bet states\n     * BET_CREATED - When contract is created but nobody deployed a fee\n     * ASSIGNING_BETTORS - Assigning bettor and counter bettor\n     * ASSIGNING_JUDGES - Assigning bettor's and counter bettor's judges\n     * BET_WAITING - Waiting for time to expire so judges can start voting\n     * VOTING_STAGE - Judges are allowed to vote\n     * BET_OVER - Either bettor or counter bettor won\n     */\n     \n    enum BetState {\n        BET_CREATED, \n        ASSIGNING_BETTORS,\n        ASSIGNING_JUDGES,\n        BET_WAITING,\n        VOTING_STAGE,\n        BET_OVER\n    }\n\n    struct Participant {\n        bytes32 role;\n    }\n    \n    struct Storage {\n        mapping(address => bytes32) participantRoles;\n        mapping(bytes32 => address) roleParticipants;\n        mapping(address => bool) didVote;\n        mapping(address => uint256) votes;\n        address admin;\n        string description;\n        BetState betState;\n        uint256 expirationTime;\n        uint256 deposit;\n    }\n    \n    event CurrentState(BetState _betState);\n    event Action(address _sender, bytes32 _roleName, bytes32 _action);\n    event Dispute();\n    \n    //----------------------------------------\n    // State variables\n    //----------------------------------------\n    \n    Storage private betStorage;\n\n    //----------------------------------------\n    // Constructor\n    //----------------------------------------\n    \n    constructor(\n        address _admin, \n        uint256 _deposit, \n        string memory _description, \n        uint256 _expirationTime\n        ) nonReentrant {\n            betStorage.admin = _admin;\n            betStorage.description = _description;\n            betStorage.deposit = _deposit;\n            betStorage.expirationTime = _expirationTime;\n            betStorage.betState = BetState.BET_CREATED;\n            emit CurrentState(betStorage.betState);\n            nextState();\n    }\n\n    //----------------------------------------\n    // Modifiers\n    //----------------------------------------\n    \n    modifier atState(BetState _state) {\n        require(betStorage.betState == _state, \"You can't do that anymore\");\n        _;\n    }\n    \n    modifier roleNotTaken(bytes32 _role) {\n        require(betStorage.roleParticipants[_role] == address(0), \"That role is taken\");\n        _;\n    }\n    \n    modifier onlyWinner(address _sender) {\n        require(betStorage.votes[_sender] > JUDGE_PER_SIDE, \"You are not allowed to claim the prize\");\n        _;\n    }\n\n    modifier onlyJudgeOrDisputer(address _sender) {\n        require(betStorage.participantRoles[_sender] == BETTOR_JUDGE || betStorage.participantRoles[_sender] == COUNTER_BETTOR_JUDGE || betStorage.admin == _sender, \"Sender is not a judge\");\n        _;\n    }\n\n    modifier didNotVote(address _sender) {\n        require(betStorage.didVote[_sender] != true, \"You have already voted\");\n        _;\n    }\n    \n    modifier matchDeposit(uint256 _value) {\n        require(_value == betStorage.deposit, \"Value sent doesn't match deposit value\");\n        _;\n    }\n\n    \n    modifier excludeBettors(address _sender) {\n        require(betStorage.roleParticipants[BETTOR_ROLE] != _sender && betStorage.roleParticipants[COUNTER_BETTOR_ROLE] != _sender, \"You are not allowed to be a judge\");\n        _;\n    }\n    \n    modifier timedTransition(BetState _state) {\n        if(betStorage.betState == _state && block.timestamp >= betStorage.expirationTime) {\n            nextState();\n        }\n        _;\n    }\n    \n    //----------------------------------------\n    // External functions\n    //----------------------------------------\n    \n    /// @param _choice Determines if caller will be assigned as bettor(_choice = true) or counter bettor(_choice = false)\n    /// @dev Assigns caller as bettor or counter bettor. Requires a bet to be in ASSIGNING_BETTORS state and value sent must match deposit value. If both roles are taken, nextState() is called.\n    /// @return bet state\n    function bet(bool _choice) atState(BetState.ASSIGNING_BETTORS) matchDeposit(msg.value) public payable returns (BetState) {\n        if(_choice) {\n            assignRole(msg.sender, BETTOR_ROLE, \"BETTOR\");\n        }\n        else {\n            assignRole(msg.sender, COUNTER_BETTOR_ROLE, \"COUNTER BETTOR\");\n        }\n        if(betStorage.roleParticipants[BETTOR_ROLE] != address(0) && betStorage.roleParticipants[COUNTER_BETTOR_ROLE] != address(0)) {\n            nextState();\n        }\n        return betStorage.betState;\n    }\n    \n    /// @param _choice Determines if caller will be assigned as bettor judge(_choice = true) or counter bettor judge(_choice = false)\n    /// @dev Assigns caller as bettor judge or counter bettor judge. Requires a bet to be in ASSIGNING_JUDGES state and judges can't be bettors. If both roles are taken, nextState() is called.\n    /// @return bet state\n    function addJudge(bool _choice) atState(BetState.ASSIGNING_JUDGES) excludeBettors(msg.sender) public returns (BetState) {\n        if(_choice) {\n            assignRole(msg.sender, BETTOR_JUDGE, \"BETTOR JUDGE\");\n        }\n        else {\n            assignRole(msg.sender, COUNTER_BETTOR_JUDGE, \"COUNTER BETTOR JUDGE\");\n        }\n        if (betStorage.roleParticipants[BETTOR_JUDGE] != address(0) && betStorage.roleParticipants[COUNTER_BETTOR_JUDGE] != address(0)) {\n            nextState();\n        }\n        return betStorage.betState;\n    }\n    \n    /// @param _vote If _vote is true, vote goes to bettor, otherwise it goes to counter bettor. \n    /// @dev Gives a from from judge to one of the bettors. Requires a bet to be in VOTING_STAGE state, current time must be greater than expirationTime, only judges and disputer can vote and they can only vote once.\n    /// @return bet state\n    function vote(bool _vote) timedTransition(BetState.BET_WAITING) atState(BetState.VOTING_STAGE) onlyJudgeOrDisputer(msg.sender) didNotVote(msg.sender) public returns (BetState) {\n        betStorage.didVote[msg.sender] = true;\n        if(_vote) {\n          betStorage.votes[betStorage.roleParticipants[BETTOR_ROLE]] = betStorage.votes[betStorage.roleParticipants[BETTOR_ROLE]].add(1);\n        }\n        else {\n            betStorage.votes[betStorage.roleParticipants[COUNTER_BETTOR_ROLE]] = betStorage.votes[betStorage.roleParticipants[COUNTER_BETTOR_ROLE]].add(1);\n        }\n        if(betStorage.votes[betStorage.roleParticipants[COUNTER_BETTOR_ROLE]] > JUDGE_PER_SIDE || betStorage.votes[betStorage.roleParticipants[BETTOR_ROLE]] > JUDGE_PER_SIDE) {\n            nextState();\n        }\n        else if(betStorage.votes[betStorage.roleParticipants[COUNTER_BETTOR_ROLE]].add(betStorage.votes[betStorage.roleParticipants[BETTOR_ROLE]]) == MAX_JUDGES) {\n            emit Dispute();\n        }\n        return betStorage.betState;\n    }\n    \n    function getBet() public view returns(\n        string memory description,\n        BetState betState,\n        uint256 expirationTime,\n        uint256 deposit) {\n        return (betStorage.description, betStorage.betState, betStorage.expirationTime, betStorage.deposit);\n    }\n    //----------------------------------------\n    // Internal functions\n    //----------------------------------------\n    \n    /// @dev Transitions to next state\n    function nextState() internal {\n        betStorage.betState = BetState(uint(betStorage.betState) + 1);\n        emit CurrentState(betStorage.betState);\n    }\n    \n    /// @dev Assigns caller to a certain role, requires that role is not already taken\n    /// @param _sender Address to be assigned, _role Role to be given, _roleName String representation of a role\n    function assignRole(address _sender, bytes32 _role, bytes32 _roleName) roleNotTaken(_role) internal {\n        betStorage.participantRoles[_sender] = _role;\n        betStorage.roleParticipants[_role] = _sender;\n        emit Action(_sender, _roleName, \"Role assigned\");\n    }\n    \n    /// @dev Transfers currency to caller if he is a winner. Requires a bet to be in BET_OVER state\n    function transferCurrencyToWinner() atState(BetState.BET_OVER) onlyWinner(msg.sender) internal {\n        _asyncTransfer(msg.sender, address(this).balance);\n    }\n}",
  "sourcePath": "/home/marko/Documents/projects/betting-app/blockchain/contracts/Bet.sol",
  "compiler": {
    "name": "solc",
    "version": "0.7.0+commit.9e61f92b.Emscripten.clang"
  },
  "schemaVersion": "3.3.1",
  "updatedAt": "2020-12-08T14:12:57.330Z",
  "devdoc": {
    "kind": "dev",
    "methods": {
      "addJudge(bool)": {
        "details": "Assigns caller as bettor judge or counter bettor judge. Requires a bet to be in ASSIGNING_JUDGES state and judges can't be bettors. If both roles are taken, nextState() is called.",
        "params": {
          "_choice": "Determines if caller will be assigned as bettor judge(_choice = true) or counter bettor judge(_choice = false)"
        },
        "returns": {
          "_0": "bet state"
        }
      },
      "bet(bool)": {
        "details": "Assigns caller as bettor or counter bettor. Requires a bet to be in ASSIGNING_BETTORS state and value sent must match deposit value. If both roles are taken, nextState() is called.",
        "params": {
          "_choice": "Determines if caller will be assigned as bettor(_choice = true) or counter bettor(_choice = false)"
        },
        "returns": {
          "_0": "bet state"
        }
      },
      "payments(address)": {
        "details": "Returns the payments owed to an address.",
        "params": {
          "dest": "The creditor's address."
        }
      },
      "vote(bool)": {
        "details": "Gives a from from judge to one of the bettors. Requires a bet to be in VOTING_STAGE state, current time must be greater than expirationTime, only judges and disputer can vote and they can only vote once.",
        "params": {
          "_vote": "If _vote is true, vote goes to bettor, otherwise it goes to counter bettor. "
        },
        "returns": {
          "_0": "bet state"
        }
      },
      "withdrawPayments(address)": {
        "details": "Withdraw accumulated payments, forwarding all gas to the recipient. Note that _any_ account can call this function, not just the `payee`. This means that contracts unaware of the `PullPayment` protocol can still receive funds this way, by having a separate account call {withdrawPayments}. WARNING: Forwarding all gas opens the door to reentrancy vulnerabilities. Make sure you trust the recipient, or are either following the checks-effects-interactions pattern or using {ReentrancyGuard}.",
        "params": {
          "payee": "Whose payments will be withdrawn."
        }
      }
    },
    "version": 1
  },
  "userdoc": {
    "kind": "user",
    "methods": {},
    "version": 1
  }
}