{
  "contractName": "Bet",
  "abi": [
    {
      "inputs": [
        {
          "internalType": "address",
          "name": "_admin",
          "type": "address"
        },
        {
          "internalType": "address",
          "name": "_betCreator",
          "type": "address"
        },
        {
          "internalType": "uint256",
          "name": "_minimumDeposit",
          "type": "uint256"
        },
        {
          "internalType": "string",
          "name": "_description",
          "type": "string"
        },
        {
          "internalType": "uint256",
          "name": "_expirationTime",
          "type": "uint256"
        }
      ],
      "stateMutability": "nonpayable",
      "type": "constructor"
    },
    {
      "anonymous": false,
      "inputs": [
        {
          "indexed": true,
          "internalType": "bytes32",
          "name": "role",
          "type": "bytes32"
        },
        {
          "indexed": true,
          "internalType": "bytes32",
          "name": "previousAdminRole",
          "type": "bytes32"
        },
        {
          "indexed": true,
          "internalType": "bytes32",
          "name": "newAdminRole",
          "type": "bytes32"
        }
      ],
      "name": "RoleAdminChanged",
      "type": "event"
    },
    {
      "anonymous": false,
      "inputs": [
        {
          "indexed": true,
          "internalType": "bytes32",
          "name": "role",
          "type": "bytes32"
        },
        {
          "indexed": true,
          "internalType": "address",
          "name": "account",
          "type": "address"
        },
        {
          "indexed": true,
          "internalType": "address",
          "name": "sender",
          "type": "address"
        }
      ],
      "name": "RoleGranted",
      "type": "event"
    },
    {
      "anonymous": false,
      "inputs": [
        {
          "indexed": true,
          "internalType": "bytes32",
          "name": "role",
          "type": "bytes32"
        },
        {
          "indexed": true,
          "internalType": "address",
          "name": "account",
          "type": "address"
        },
        {
          "indexed": true,
          "internalType": "address",
          "name": "sender",
          "type": "address"
        }
      ],
      "name": "RoleRevoked",
      "type": "event"
    },
    {
      "inputs": [],
      "name": "BETTOR_ROLE",
      "outputs": [
        {
          "internalType": "bytes32",
          "name": "",
          "type": "bytes32"
        }
      ],
      "stateMutability": "view",
      "type": "function"
    },
    {
      "inputs": [],
      "name": "DEFAULT_ADMIN_ROLE",
      "outputs": [
        {
          "internalType": "bytes32",
          "name": "",
          "type": "bytes32"
        }
      ],
      "stateMutability": "view",
      "type": "function"
    },
    {
      "inputs": [],
      "name": "JUDGE_ROLE",
      "outputs": [
        {
          "internalType": "bytes32",
          "name": "",
          "type": "bytes32"
        }
      ],
      "stateMutability": "view",
      "type": "function"
    },
    {
      "inputs": [],
      "name": "description",
      "outputs": [
        {
          "internalType": "string",
          "name": "",
          "type": "string"
        }
      ],
      "stateMutability": "view",
      "type": "function"
    },
    {
      "inputs": [
        {
          "internalType": "address",
          "name": "",
          "type": "address"
        }
      ],
      "name": "didVote",
      "outputs": [
        {
          "internalType": "bool",
          "name": "",
          "type": "bool"
        }
      ],
      "stateMutability": "view",
      "type": "function"
    },
    {
      "inputs": [],
      "name": "expirationTime",
      "outputs": [
        {
          "internalType": "uint256",
          "name": "",
          "type": "uint256"
        }
      ],
      "stateMutability": "view",
      "type": "function"
    },
    {
      "inputs": [
        {
          "internalType": "bytes32",
          "name": "role",
          "type": "bytes32"
        }
      ],
      "name": "getRoleAdmin",
      "outputs": [
        {
          "internalType": "bytes32",
          "name": "",
          "type": "bytes32"
        }
      ],
      "stateMutability": "view",
      "type": "function"
    },
    {
      "inputs": [
        {
          "internalType": "bytes32",
          "name": "role",
          "type": "bytes32"
        },
        {
          "internalType": "uint256",
          "name": "index",
          "type": "uint256"
        }
      ],
      "name": "getRoleMember",
      "outputs": [
        {
          "internalType": "address",
          "name": "",
          "type": "address"
        }
      ],
      "stateMutability": "view",
      "type": "function"
    },
    {
      "inputs": [
        {
          "internalType": "bytes32",
          "name": "role",
          "type": "bytes32"
        }
      ],
      "name": "getRoleMemberCount",
      "outputs": [
        {
          "internalType": "uint256",
          "name": "",
          "type": "uint256"
        }
      ],
      "stateMutability": "view",
      "type": "function"
    },
    {
      "inputs": [
        {
          "internalType": "bytes32",
          "name": "role",
          "type": "bytes32"
        },
        {
          "internalType": "address",
          "name": "account",
          "type": "address"
        }
      ],
      "name": "grantRole",
      "outputs": [],
      "stateMutability": "nonpayable",
      "type": "function"
    },
    {
      "inputs": [
        {
          "internalType": "bytes32",
          "name": "role",
          "type": "bytes32"
        },
        {
          "internalType": "address",
          "name": "account",
          "type": "address"
        }
      ],
      "name": "hasRole",
      "outputs": [
        {
          "internalType": "bool",
          "name": "",
          "type": "bool"
        }
      ],
      "stateMutability": "view",
      "type": "function"
    },
    {
      "inputs": [],
      "name": "judgesCount",
      "outputs": [
        {
          "internalType": "uint256",
          "name": "",
          "type": "uint256"
        }
      ],
      "stateMutability": "view",
      "type": "function"
    },
    {
      "inputs": [],
      "name": "minimumDeposit",
      "outputs": [
        {
          "internalType": "uint256",
          "name": "",
          "type": "uint256"
        }
      ],
      "stateMutability": "view",
      "type": "function"
    },
    {
      "inputs": [
        {
          "internalType": "address",
          "name": "",
          "type": "address"
        }
      ],
      "name": "numVotes",
      "outputs": [
        {
          "internalType": "uint256",
          "name": "",
          "type": "uint256"
        }
      ],
      "stateMutability": "view",
      "type": "function"
    },
    {
      "inputs": [
        {
          "internalType": "bytes32",
          "name": "role",
          "type": "bytes32"
        },
        {
          "internalType": "address",
          "name": "account",
          "type": "address"
        }
      ],
      "name": "renounceRole",
      "outputs": [],
      "stateMutability": "nonpayable",
      "type": "function"
    },
    {
      "inputs": [
        {
          "internalType": "bytes32",
          "name": "role",
          "type": "bytes32"
        },
        {
          "internalType": "address",
          "name": "account",
          "type": "address"
        }
      ],
      "name": "revokeRole",
      "outputs": [],
      "stateMutability": "nonpayable",
      "type": "function"
    },
    {
      "stateMutability": "payable",
      "type": "receive"
    },
    {
      "inputs": [],
      "name": "getBalance",
      "outputs": [
        {
          "internalType": "uint256",
          "name": "",
          "type": "uint256"
        }
      ],
      "stateMutability": "view",
      "type": "function"
    },
    {
      "inputs": [],
      "name": "acceptBet",
      "outputs": [],
      "stateMutability": "payable",
      "type": "function"
    },
    {
      "inputs": [],
      "name": "addJudge",
      "outputs": [],
      "stateMutability": "nonpayable",
      "type": "function"
    },
    {
      "inputs": [
        {
          "internalType": "address",
          "name": "_candidate",
          "type": "address"
        }
      ],
      "name": "judgeVote",
      "outputs": [],
      "stateMutability": "nonpayable",
      "type": "function"
    },
    {
      "inputs": [
        {
          "internalType": "address",
          "name": "_candidate",
          "type": "address"
        }
      ],
      "name": "adminDecide",
      "outputs": [],
      "stateMutability": "nonpayable",
      "type": "function"
    }
  ],
  "bytecode": "0x608060405260006004553480156200001657600080fd5b5060405162001a0638038062001a06833981810160405260a08110156200003c57600080fd5b81019080805190602001909291908051906020019092919080519060200190929190805160405193929190846401000000008211156200007b57600080fd5b838201915060208201858111156200009257600080fd5b8251866001820283011164010000000082111715620000b057600080fd5b8083526020830192505050908051906020019080838360005b83811015620000e6578082015181840152602081019050620000c9565b50505050905090810190601f168015620001145780820380516001836020036101000a031916815260200191505b50604052602001805190602001909291905050506200013d6000801b86620001e660201b60201c565b6200016f7f1ac48d9aa1b7cd6f79904f984dd7c90f079cc94b6519f36563f07d50448750c985620001e660201b60201c565b8160019080519060200190620001879291906200037c565b5082600381905550806002819055506000600660008673ffffffffffffffffffffffffffffffffffffffff1673ffffffffffffffffffffffffffffffffffffffff16815260200190815260200160002081905550505050505062000422565b620001f88282620001fc60201b60201c565b5050565b6200022a816000808581526020019081526020016000206000016200029f60201b6200104a1790919060201c565b156200029b5762000240620002d760201b60201c565b73ffffffffffffffffffffffffffffffffffffffff168173ffffffffffffffffffffffffffffffffffffffff16837f2f8788117e7eff1d82e926ec794901d17c78024a50270940304540a733656f0d60405160405180910390a45b5050565b6000620002cf836000018373ffffffffffffffffffffffffffffffffffffffff1660001b620002df60201b60201c565b905092915050565b600033905090565b6000620002f383836200035960201b60201c565b6200034e57826000018290806001815401808255809150506001900390600052602060002001600090919091909150558260000180549050836001016000848152602001908152602001600020819055506001905062000353565b600090505b92915050565b600080836001016000848152602001908152602001600020541415905092915050565b828054600181600116156101000203166002900490600052602060002090601f016020900481019282601f10620003bf57805160ff1916838001178555620003f0565b82800160010185558215620003f0579182015b82811115620003ef578251825591602001919060010190620003d2565b5b509050620003ff919062000403565b5090565b5b808211156200041e57600081600090555060010162000404565b5090565b6115d480620004326000396000f3fe60806040526004361061012e5760003560e01c8063636bfbab116100ab578063a53830e31161006f578063a53830e314610585578063ca15c873146105ea578063d547741f14610639578063da284dcc14610694578063e0e47588146106bf578063f731b10e146106ea57610135565b8063636bfbab146103bf5780637284e416146103ea5780639010d07c1461047a57806391d14854146104e9578063a217fddf1461055a57610135565b80632f2ff15d116100f25780632f2ff15d1461024757806330bfcb5f146102a2578063354d91de146102ac57806336568abe146103135780635e536deb1461036e57610135565b8063094f04051461013a57806312065fe01461015157806319cc36f41461017c578063248a9ca3146101cd5780632b69b19c1461021c57610135565b3661013557005b600080fd5b34801561014657600080fd5b5061014f610715565b005b34801561015d57600080fd5b506101666107bc565b6040518082815260200191505060405180910390f35b34801561018857600080fd5b506101cb6004803603602081101561019f57600080fd5b81019080803573ffffffffffffffffffffffffffffffffffffffff1690602001909291905050506107c4565b005b3480156101d957600080fd5b50610206600480360360208110156101f057600080fd5b8101908080359060200190929190505050610872565b6040518082815260200191505060405180910390f35b34801561022857600080fd5b50610231610891565b6040518082815260200191505060405180910390f35b34801561025357600080fd5b506102a06004803603604081101561026a57600080fd5b8101908080359060200190929190803573ffffffffffffffffffffffffffffffffffffffff1690602001909291905050506108b5565b005b6102aa61093e565b005b3480156102b857600080fd5b506102fb600480360360208110156102cf57600080fd5b81019080803573ffffffffffffffffffffffffffffffffffffffff169060200190929190505050610a0c565b60405180821515815260200191505060405180910390f35b34801561031f57600080fd5b5061036c6004803603604081101561033657600080fd5b8101908080359060200190929190803573ffffffffffffffffffffffffffffffffffffffff169060200190929190505050610a2c565b005b34801561037a57600080fd5b506103bd6004803603602081101561039157600080fd5b81019080803573ffffffffffffffffffffffffffffffffffffffff169060200190929190505050610ac5565b005b3480156103cb57600080fd5b506103d4610e46565b6040518082815260200191505060405180910390f35b3480156103f657600080fd5b506103ff610e4c565b6040518080602001828103825283818151815260200191508051906020019080838360005b8381101561043f578082015181840152602081019050610424565b50505050905090810190601f16801561046c5780820380516001836020036101000a031916815260200191505b509250505060405180910390f35b34801561048657600080fd5b506104bd6004803603604081101561049d57600080fd5b810190808035906020019092919080359060200190929190505050610eea565b604051808273ffffffffffffffffffffffffffffffffffffffff16815260200191505060405180910390f35b3480156104f557600080fd5b506105426004803603604081101561050c57600080fd5b8101908080359060200190929190803573ffffffffffffffffffffffffffffffffffffffff169060200190929190505050610f1b565b60405180821515815260200191505060405180910390f35b34801561056657600080fd5b5061056f610f4c565b6040518082815260200191505060405180910390f35b34801561059157600080fd5b506105d4600480360360208110156105a857600080fd5b81019080803573ffffffffffffffffffffffffffffffffffffffff169060200190929190505050610f53565b6040518082815260200191505060405180910390f35b3480156105f657600080fd5b506106236004803603602081101561060d57600080fd5b8101908080359060200190929190505050610f6b565b6040518082815260200191505060405180910390f35b34801561064557600080fd5b506106926004803603604081101561065c57600080fd5b8101908080359060200190929190803573ffffffffffffffffffffffffffffffffffffffff169060200190929190505050610f91565b005b3480156106a057600080fd5b506106a961101a565b6040518082815260200191505060405180910390f35b3480156106cb57600080fd5b506106d4611020565b6040518082815260200191505060405180910390f35b3480156106f657600080fd5b506106ff611044565b6040518082815260200191505060405180910390f35b336107407f9c4e6fd68fbdec6e3075ec7bfba710532af019aea93f5f59ebfe5a9d1a0b894e82610f1b565b15801561077457506107727f1ac48d9aa1b7cd6f79904f984dd7c90f079cc94b6519f36563f07d50448750c982610f1b565b155b61077d57600080fd5b6107a77f9c4e6fd68fbdec6e3075ec7bfba710532af019aea93f5f59ebfe5a9d1a0b894e3361107a565b60046000815480929190600101919050555050565b600047905090565b336107d26000801b82610f1b565b610827576040517f08c379a00000000000000000000000000000000000000000000000000000000081526004018080602001828103825260228152602001806115276022913960400191505060405180910390fd5b8173ffffffffffffffffffffffffffffffffffffffff166108fc479081150290604051600060405180830381858888f1935050505015801561086d573d6000803e3d6000fd5b505050565b6000806000838152602001908152602001600020600201549050919050565b7f1ac48d9aa1b7cd6f79904f984dd7c90f079cc94b6519f36563f07d50448750c981565b6108db600080848152602001908152602001600020600201546108d6611088565b610f1b565b610930576040517f08c379a000000000000000000000000000000000000000000000000000000000815260040180806020018281038252602f815260200180611477602f913960400191505060405180910390fd5b61093a8282611090565b5050565b3460035481101561099a576040517f08c379a00000000000000000000000000000000000000000000000000000000081526004018080602001828103825260228152602001806114d56022913960400191505060405180910390fd5b6109c47f1ac48d9aa1b7cd6f79904f984dd7c90f079cc94b6519f36563f07d50448750c93361107a565b6000600660003373ffffffffffffffffffffffffffffffffffffffff1673ffffffffffffffffffffffffffffffffffffffff1681526020019081526020016000208190555050565b60056020528060005260406000206000915054906101000a900460ff1681565b610a34611088565b73ffffffffffffffffffffffffffffffffffffffff168173ffffffffffffffffffffffffffffffffffffffff1614610ab7576040517f08c379a000000000000000000000000000000000000000000000000000000000815260040180806020018281038252602f815260200180611570602f913960400191505060405180910390fd5b610ac18282611123565b5050565b600254421015610b20576040517f08c379a000000000000000000000000000000000000000000000000000000000815260040180806020018281038252602f8152602001806114a6602f913960400191505060405180910390fd5b80610b4b7f1ac48d9aa1b7cd6f79904f984dd7c90f079cc94b6519f36563f07d50448750c982610f1b565b610ba0576040517f08c379a00000000000000000000000000000000000000000000000000000000081526004018080602001828103825260278152602001806115496027913960400191505060405180910390fd5b33600560008273ffffffffffffffffffffffffffffffffffffffff1673ffffffffffffffffffffffffffffffffffffffff16815260200190815260200160002060009054906101000a900460ff1615610c61576040517f08c379a00000000000000000000000000000000000000000000000000000000081526004018080602001828103825260178152602001807f596f75206861766520616c726561647920766f7465642e00000000000000000081525060200191505060405180910390fd5b33610c8c7f9c4e6fd68fbdec6e3075ec7bfba710532af019aea93f5f59ebfe5a9d1a0b894e82610f1b565b610cfe576040517f08c379a00000000000000000000000000000000000000000000000000000000081526004018080602001828103825260168152602001807f43616c6c6572206973206e6f742061206a756467652e0000000000000000000081525060200191505060405180910390fd5b600660008573ffffffffffffffffffffffffffffffffffffffff1673ffffffffffffffffffffffffffffffffffffffff16815260200190815260200160002060008154809291906001019190505550600260045481610d5957fe5b04600660008673ffffffffffffffffffffffffffffffffffffffff1673ffffffffffffffffffffffffffffffffffffffff168152602001908152602001600020541115610de8578373ffffffffffffffffffffffffffffffffffffffff166108fc479081150290604051600060405180830381858888f19350505050158015610de6573d6000803e3d6000fd5b505b6001600560003373ffffffffffffffffffffffffffffffffffffffff1673ffffffffffffffffffffffffffffffffffffffff16815260200190815260200160002060006101000a81548160ff02191690831515021790555050505050565b60035481565b60018054600181600116156101000203166002900480601f016020809104026020016040519081016040528092919081815260200182805460018160011615610100020316600290048015610ee25780601f10610eb757610100808354040283529160200191610ee2565b820191906000526020600020905b815481529060010190602001808311610ec557829003601f168201915b505050505081565b6000610f13826000808681526020019081526020016000206000016111b690919063ffffffff16565b905092915050565b6000610f44826000808681526020019081526020016000206000016111d090919063ffffffff16565b905092915050565b6000801b81565b60066020528060005260406000206000915090505481565b6000610f8a600080848152602001908152602001600020600001611200565b9050919050565b610fb760008084815260200190815260200160002060020154610fb2611088565b610f1b565b61100c576040517f08c379a00000000000000000000000000000000000000000000000000000000081526004018080602001828103825260308152602001806114f76030913960400191505060405180910390fd5b6110168282611123565b5050565b60025481565b7f9c4e6fd68fbdec6e3075ec7bfba710532af019aea93f5f59ebfe5a9d1a0b894e81565b60045481565b6000611072836000018373ffffffffffffffffffffffffffffffffffffffff1660001b611215565b905092915050565b6110848282611090565b5050565b600033905090565b6110b78160008085815260200190815260200160002060000161104a90919063ffffffff16565b1561111f576110c4611088565b73ffffffffffffffffffffffffffffffffffffffff168173ffffffffffffffffffffffffffffffffffffffff16837f2f8788117e7eff1d82e926ec794901d17c78024a50270940304540a733656f0d60405160405180910390a45b5050565b61114a8160008085815260200190815260200160002060000161128590919063ffffffff16565b156111b257611157611088565b73ffffffffffffffffffffffffffffffffffffffff168173ffffffffffffffffffffffffffffffffffffffff16837ff6391f5c32d9c69d2a47ea670b442974b53935d1edc7fd64eb21e047a839171b60405160405180910390a45b5050565b60006111c583600001836112b5565b60001c905092915050565b60006111f8836000018373ffffffffffffffffffffffffffffffffffffffff1660001b611338565b905092915050565b600061120e8260000161135b565b9050919050565b60006112218383611338565b61127a57826000018290806001815401808255809150506001900390600052602060002001600090919091909150558260000180549050836001016000848152602001908152602001600020819055506001905061127f565b600090505b92915050565b60006112ad836000018373ffffffffffffffffffffffffffffffffffffffff1660001b61136c565b905092915050565b600081836000018054905011611316576040517f08c379a00000000000000000000000000000000000000000000000000000000081526004018080602001828103825260228152602001806114556022913960400191505060405180910390fd5b82600001828154811061132557fe5b9060005260206000200154905092915050565b600080836001016000848152602001908152602001600020541415905092915050565b600081600001805490509050919050565b6000808360010160008481526020019081526020016000205490506000811461144857600060018203905060006001866000018054905003905060008660000182815481106113b757fe5b90600052602060002001549050808760000184815481106113d457fe5b906000526020600020018190555060018301876001016000838152602001908152602001600020819055508660000180548061140c57fe5b6001900381819060005260206000200160009055905586600101600087815260200190815260200160002060009055600194505050505061144e565b60009150505b9291505056fe456e756d657261626c655365743a20696e646578206f7574206f6620626f756e6473416363657373436f6e74726f6c3a2073656e646572206d75737420626520616e2061646d696e20746f206772616e74596f752063616e277420766f74652062656361757365206576656e74206469646e27742068617070656e207965742e496e73756666696369656e7420616d6f756e74206f662065746865722073656e742e416363657373436f6e74726f6c3a2073656e646572206d75737420626520616e2061646d696e20746f207265766f6b654f6e6c792061646d696e2063616e2063616c6c20746869732066756e6374696f6e2e54686973206164647265737320646f65736e27742062656c6f6e6720746f20626574746f72732e416363657373436f6e74726f6c3a2063616e206f6e6c792072656e6f756e636520726f6c657320666f722073656c66a26469706673582212205c9a0700721a6ca25f721479a12493981943ad93c987814ecd6e841b0ad4105c64736f6c63430007030033",
  "immutableReferences": {},
  "source": "// SPDX-License-Identifier: MIT\npragma solidity ^0.7.3;\n\nimport \"@openzeppelin/contracts/access/AccessControl.sol\";\n\ncontract Bet is AccessControl{\n\n    string public description;\n\n    uint public expirationTime;\n    uint public minimumDeposit;\n    uint public judgesCount = 0;\n\n    bytes32 public constant BETTOR_ROLE = keccak256(\"BET_PARTICIPANT_ROLE\");\n    bytes32 public constant JUDGE_ROLE = keccak256(\"JUDGE_ROLE\");\n\n    mapping(address => bool) public didVote;\n    mapping(address => uint) public numVotes;\n\n    modifier onlyAdmin(address _sender){\n        require(hasRole(DEFAULT_ADMIN_ROLE, _sender), \"Only admin can call this function.\");\n        _;\n    }\n\n    modifier canJudgeVote {\n        require(block.timestamp >= expirationTime, \"You can't vote because event didn't happen yet.\");\n        _;\n    }\n\n    modifier minimumBetLimit(uint _value) {\n        require(_value >= minimumDeposit, \"Insufficient amount of ether sent.\");\n        _;\n    }\n\n    modifier onlyVoteOnce(address _sender) {\n        require(!didVote[_sender], \"You have already voted.\");\n        _;\n    }\n\n    modifier onlyJudge(address _sender) {\n        require(hasRole(JUDGE_ROLE, _sender), \"Caller is not a judge.\");\n        _;\n    }\n\n    modifier onlyBettors(address _sender) {\n        require(hasRole(BETTOR_ROLE, _sender), \"This address doesn't belong to bettors.\");\n        _;\n    }\n    \n    modifier onlyUniqueJudges(address _sender){\n        require(!hasRole(JUDGE_ROLE, _sender) && !hasRole(BETTOR_ROLE, _sender));\n        _;\n    }\n\n    constructor(address _admin, address _betCreator, uint _minimumDeposit, string memory _description, uint _expirationTime) {\n        _setupRole(DEFAULT_ADMIN_ROLE, _admin);\n        _setupRole(BETTOR_ROLE, _betCreator);\n        description = _description;\n        minimumDeposit = _minimumDeposit;\n        expirationTime = _expirationTime;\n        numVotes[_betCreator] = 0;\n    }\n    \n    receive() external payable{}\n\n    function getBalance() public view returns(uint){\n        return address(this).balance;\n    }\n\n    function acceptBet() public minimumBetLimit(msg.value) payable{\n        _setupRole(BETTOR_ROLE, msg.sender);\n        numVotes[msg.sender] = 0;\n    }\n    \n    function addJudge() public onlyUniqueJudges(msg.sender){\n        _setupRole(JUDGE_ROLE, msg.sender);\n        judgesCount++;\n    }\n\n    function judgeVote(address _candidate) public canJudgeVote onlyBettors(_candidate) onlyVoteOnce(msg.sender) onlyJudge(msg.sender){    \n        numVotes[_candidate]++;\n\n        if(numVotes[_candidate] > judgesCount/2){\n            payable(_candidate).transfer(address(this).balance);\n        }\n        didVote[msg.sender] = true;\n    }\n\n    function adminDecide(address _candidate) public onlyAdmin(msg.sender) {\n        payable(_candidate).transfer(address(this).balance);\n    }\n}",
  "sourcePath": "/home/user/Programming/SHARDLABS/betting-app/blockchain/contracts/Bet.sol",
  "compiler": {
    "name": "solc",
    "version": "0.7.3+commit.9bfce1f6.Emscripten.clang"
  },
  "schemaVersion": "3.3.2",
  "updatedAt": "2020-11-13T14:37:18.481Z",
  "devdoc": {
    "kind": "dev",
    "methods": {
      "getRoleAdmin(bytes32)": {
        "details": "Returns the admin role that controls `role`. See {grantRole} and {revokeRole}. To change a role's admin, use {_setRoleAdmin}."
      },
      "getRoleMember(bytes32,uint256)": {
        "details": "Returns one of the accounts that have `role`. `index` must be a value between 0 and {getRoleMemberCount}, non-inclusive. Role bearers are not sorted in any particular way, and their ordering may change at any point. WARNING: When using {getRoleMember} and {getRoleMemberCount}, make sure you perform all queries on the same block. See the following https://forum.openzeppelin.com/t/iterating-over-elements-on-enumerableset-in-openzeppelin-contracts/2296[forum post] for more information."
      },
      "getRoleMemberCount(bytes32)": {
        "details": "Returns the number of accounts that have `role`. Can be used together with {getRoleMember} to enumerate all bearers of a role."
      },
      "grantRole(bytes32,address)": {
        "details": "Grants `role` to `account`. If `account` had not been already granted `role`, emits a {RoleGranted} event. Requirements: - the caller must have ``role``'s admin role."
      },
      "hasRole(bytes32,address)": {
        "details": "Returns `true` if `account` has been granted `role`."
      },
      "renounceRole(bytes32,address)": {
        "details": "Revokes `role` from the calling account. Roles are often managed via {grantRole} and {revokeRole}: this function's purpose is to provide a mechanism for accounts to lose their privileges if they are compromised (such as when a trusted device is misplaced). If the calling account had been granted `role`, emits a {RoleRevoked} event. Requirements: - the caller must be `account`."
      },
      "revokeRole(bytes32,address)": {
        "details": "Revokes `role` from `account`. If `account` had been granted `role`, emits a {RoleRevoked} event. Requirements: - the caller must have ``role``'s admin role."
      }
    },
    "version": 1
  },
  "userdoc": {
    "kind": "user",
    "methods": {},
    "version": 1
  }
}