{
  "contractName": "BetFactory",
  "abi": [
    {
      "inputs": [],
      "stateMutability": "nonpayable",
      "type": "constructor"
    },
    {
      "anonymous": false,
      "inputs": [
        {
          "indexed": false,
          "internalType": "address",
          "name": "_value",
          "type": "address"
        }
      ],
      "name": "Deployed",
      "type": "event"
    },
    {
      "anonymous": false,
      "inputs": [
        {
          "indexed": true,
          "internalType": "bytes32",
          "name": "role",
          "type": "bytes32"
        },
        {
          "indexed": true,
          "internalType": "bytes32",
          "name": "previousAdminRole",
          "type": "bytes32"
        },
        {
          "indexed": true,
          "internalType": "bytes32",
          "name": "newAdminRole",
          "type": "bytes32"
        }
      ],
      "name": "RoleAdminChanged",
      "type": "event"
    },
    {
      "anonymous": false,
      "inputs": [
        {
          "indexed": true,
          "internalType": "bytes32",
          "name": "role",
          "type": "bytes32"
        },
        {
          "indexed": true,
          "internalType": "address",
          "name": "account",
          "type": "address"
        },
        {
          "indexed": true,
          "internalType": "address",
          "name": "sender",
          "type": "address"
        }
      ],
      "name": "RoleGranted",
      "type": "event"
    },
    {
      "anonymous": false,
      "inputs": [
        {
          "indexed": true,
          "internalType": "bytes32",
          "name": "role",
          "type": "bytes32"
        },
        {
          "indexed": true,
          "internalType": "address",
          "name": "account",
          "type": "address"
        },
        {
          "indexed": true,
          "internalType": "address",
          "name": "sender",
          "type": "address"
        }
      ],
      "name": "RoleRevoked",
      "type": "event"
    },
    {
      "inputs": [],
      "name": "DEFAULT_ADMIN_ROLE",
      "outputs": [
        {
          "internalType": "bytes32",
          "name": "",
          "type": "bytes32"
        }
      ],
      "stateMutability": "view",
      "type": "function"
    },
    {
      "inputs": [
        {
          "internalType": "bytes32",
          "name": "role",
          "type": "bytes32"
        }
      ],
      "name": "getRoleAdmin",
      "outputs": [
        {
          "internalType": "bytes32",
          "name": "",
          "type": "bytes32"
        }
      ],
      "stateMutability": "view",
      "type": "function"
    },
    {
      "inputs": [
        {
          "internalType": "bytes32",
          "name": "role",
          "type": "bytes32"
        },
        {
          "internalType": "uint256",
          "name": "index",
          "type": "uint256"
        }
      ],
      "name": "getRoleMember",
      "outputs": [
        {
          "internalType": "address",
          "name": "",
          "type": "address"
        }
      ],
      "stateMutability": "view",
      "type": "function"
    },
    {
      "inputs": [
        {
          "internalType": "bytes32",
          "name": "role",
          "type": "bytes32"
        }
      ],
      "name": "getRoleMemberCount",
      "outputs": [
        {
          "internalType": "uint256",
          "name": "",
          "type": "uint256"
        }
      ],
      "stateMutability": "view",
      "type": "function"
    },
    {
      "inputs": [
        {
          "internalType": "bytes32",
          "name": "role",
          "type": "bytes32"
        },
        {
          "internalType": "address",
          "name": "account",
          "type": "address"
        }
      ],
      "name": "grantRole",
      "outputs": [],
      "stateMutability": "nonpayable",
      "type": "function"
    },
    {
      "inputs": [
        {
          "internalType": "bytes32",
          "name": "role",
          "type": "bytes32"
        },
        {
          "internalType": "address",
          "name": "account",
          "type": "address"
        }
      ],
      "name": "hasRole",
      "outputs": [
        {
          "internalType": "bool",
          "name": "",
          "type": "bool"
        }
      ],
      "stateMutability": "view",
      "type": "function"
    },
    {
      "inputs": [
        {
          "internalType": "bytes32",
          "name": "role",
          "type": "bytes32"
        },
        {
          "internalType": "address",
          "name": "account",
          "type": "address"
        }
      ],
      "name": "renounceRole",
      "outputs": [],
      "stateMutability": "nonpayable",
      "type": "function"
    },
    {
      "inputs": [
        {
          "internalType": "bytes32",
          "name": "role",
          "type": "bytes32"
        },
        {
          "internalType": "address",
          "name": "account",
          "type": "address"
        }
      ],
      "name": "revokeRole",
      "outputs": [],
      "stateMutability": "nonpayable",
      "type": "function"
    },
    {
      "inputs": [
        {
          "internalType": "string",
          "name": "_description",
          "type": "string"
        },
        {
          "internalType": "uint256",
          "name": "_expirationTime",
          "type": "uint256"
        }
      ],
      "name": "createBet",
      "outputs": [
        {
          "internalType": "address",
          "name": "",
          "type": "address"
        }
      ],
      "stateMutability": "payable",
      "type": "function"
    },
    {
      "inputs": [],
      "name": "getDeployedBets",
      "outputs": [
        {
          "internalType": "contract Bet[]",
          "name": "",
          "type": "address[]"
        }
      ],
      "stateMutability": "view",
      "type": "function"
    }
  ],
  "bytecode": "0x60806040523480156200001157600080fd5b50620000276000801b336200002d60201b60201c565b620001c3565b6200003f82826200004360201b60201c565b5050565b6200007181600080858152602001908152602001600020600001620000e660201b62000af71790919060201c565b15620000e257620000876200011e60201b60201c565b73ffffffffffffffffffffffffffffffffffffffff168173ffffffffffffffffffffffffffffffffffffffff16837f2f8788117e7eff1d82e926ec794901d17c78024a50270940304540a733656f0d60405160405180910390a45b5050565b600062000116836000018373ffffffffffffffffffffffffffffffffffffffff1660001b6200012660201b60201c565b905092915050565b600033905090565b60006200013a8383620001a060201b60201c565b620001955782600001829080600181540180825580915050600190039060005260206000200160009091909190915055826000018054905083600101600084815260200190815260200160002081905550600190506200019a565b600090505b92915050565b600080836001016000848152602001908152602001600020541415905092915050565b612a0d80620001d36000396000f3fe6080604052600436106200009e5760003560e01c806391d14854116200006157806391d148541462000298578063a217fddf146200030d578063ca15c873146200033b578063d547741f146200038e578063d670420614620003ed576200009e565b8063248a9ca314620000a35780632f2ff15d14620000f657806336568abe146200015557806386a2b59414620001b45780639010d07c1462000225575b600080fd5b348015620000b057600080fd5b50620000e060048036036020811015620000c957600080fd5b8101908080359060200190929190505050620004e2565b6040518082815260200191505060405180910390f35b3480156200010357600080fd5b5062000153600480360360408110156200011c57600080fd5b8101908080359060200190929190803573ffffffffffffffffffffffffffffffffffffffff16906020019092919050505062000501565b005b3480156200016257600080fd5b50620001b2600480360360408110156200017b57600080fd5b8101908080359060200190929190803573ffffffffffffffffffffffffffffffffffffffff16906020019092919050505062000592565b005b348015620001c157600080fd5b50620001cc62000631565b6040518080602001828103825283818151815260200191508051906020019060200280838360005b8381101562000211578082015181840152602081019050620001f4565b505050509050019250505060405180910390f35b3480156200023257600080fd5b506200026c600480360360408110156200024b57600080fd5b81019080803590602001909291908035906020019092919050505062000745565b604051808273ffffffffffffffffffffffffffffffffffffffff16815260200191505060405180910390f35b348015620002a557600080fd5b50620002f560048036036040811015620002be57600080fd5b8101908080359060200190929190803573ffffffffffffffffffffffffffffffffffffffff16906020019092919050505062000778565b60405180821515815260200191505060405180910390f35b3480156200031a57600080fd5b5062000325620007ab565b6040518082815260200191505060405180910390f35b3480156200034857600080fd5b5062000378600480360360208110156200036157600080fd5b8101908080359060200190929190505050620007b2565b6040518082815260200191505060405180910390f35b3480156200039b57600080fd5b50620003eb60048036036040811015620003b457600080fd5b8101908080359060200190929190803573ffffffffffffffffffffffffffffffffffffffff169060200190929190505050620007da565b005b620004b6600480360360408110156200040557600080fd5b81019080803590602001906401000000008111156200042357600080fd5b8201836020820111156200043657600080fd5b803590602001918460018302840111640100000000831117156200045957600080fd5b91908080601f016020809104026020016040519081016040528093929190818152602001838380828437600081840152601f19601f820116905080830192505050505050509192919290803590602001909291905050506200086b565b604051808273ffffffffffffffffffffffffffffffffffffffff16815260200191505060405180910390f35b6000806000838152602001908152602001600020600201549050919050565b6200052b600080848152602001908152602001600020600201546200052562000b29565b62000778565b62000582576040517f08c379a000000000000000000000000000000000000000000000000000000000815260040180806020018281038252602f8152602001806200294a602f913960400191505060405180910390fd5b6200058e828262000b31565b5050565b6200059c62000b29565b73ffffffffffffffffffffffffffffffffffffffff168173ffffffffffffffffffffffffffffffffffffffff161462000621576040517f08c379a000000000000000000000000000000000000000000000000000000000815260040180806020018281038252602f815260200180620029a9602f913960400191505060405180910390fd5b6200062d828262000bc9565b5050565b606033620006436000801b8262000778565b620006b6576040517f08c379a00000000000000000000000000000000000000000000000000000000081526004018080602001828103825260168152602001807f43616c6c6572206973206e6f7420616e2061646d696e0000000000000000000081525060200191505060405180910390fd5b60018054806020026020016040519081016040528092919081815260200182805480156200073a57602002820191906000526020600020905b8160009054906101000a900473ffffffffffffffffffffffffffffffffffffffff1673ffffffffffffffffffffffffffffffffffffffff1681526020019060010190808311620006ef575b505050505091505090565b6000620007708260008086815260200190815260200160002060000162000c6190919063ffffffff16565b905092915050565b6000620007a38260008086815260200190815260200160002060000162000c7d90919063ffffffff16565b905092915050565b6000801b81565b6000620007d360008084815260200190815260200160002060000162000caf565b9050919050565b6200080460008084815260200190815260200160002060020154620007fe62000b29565b62000778565b6200085b576040517f08c379a0000000000000000000000000000000000000000000000000000000008152600401808060200182810382526030815260200180620029796030913960400191505060405180910390fd5b62000867828262000bc9565b5050565b6000803073ffffffffffffffffffffffffffffffffffffffff16639010d07c6000801b60006040518363ffffffff1660e01b8152600401808381526020018281526020019250505060206040518083038186803b158015620008cc57600080fd5b505afa158015620008e1573d6000803e3d6000fd5b505050506040513d6020811015620008f857600080fd5b8101908080519060200190929190505050333486866040516200091b9062000f13565b808673ffffffffffffffffffffffffffffffffffffffff1681526020018573ffffffffffffffffffffffffffffffffffffffff16815260200184815260200180602001838152602001828103825284818151815260200191508051906020019080838360005b838110156200099e57808201518184015260208101905062000981565b50505050905090810190601f168015620009cc5780820380516001836020036101000a031916815260200191505b509650505050505050604051809103906000f080158015620009f2573d6000803e3d6000fd5b5090508073ffffffffffffffffffffffffffffffffffffffff166108fc349081150290604051600060405180830381858888f1935050505015801562000a3c573d6000803e3d6000fd5b506001819080600181540180825580915050600190039060005260206000200160009091909190916101000a81548173ffffffffffffffffffffffffffffffffffffffff021916908373ffffffffffffffffffffffffffffffffffffffff1602179055507ff40fcec21964ffb566044d083b4073f29f7f7929110ea19e1b3ebe375d89055e81604051808273ffffffffffffffffffffffffffffffffffffffff16815260200191505060405180910390a18091505092915050565b600062000b21836000018373ffffffffffffffffffffffffffffffffffffffff1660001b62000cc6565b905092915050565b600033905090565b62000b5a8160008085815260200190815260200160002060000162000af790919063ffffffff16565b1562000bc55762000b6a62000b29565b73ffffffffffffffffffffffffffffffffffffffff168173ffffffffffffffffffffffffffffffffffffffff16837f2f8788117e7eff1d82e926ec794901d17c78024a50270940304540a733656f0d60405160405180910390a45b5050565b62000bf28160008085815260200190815260200160002060000162000d3a90919063ffffffff16565b1562000c5d5762000c0262000b29565b73ffffffffffffffffffffffffffffffffffffffff168173ffffffffffffffffffffffffffffffffffffffff16837ff6391f5c32d9c69d2a47ea670b442974b53935d1edc7fd64eb21e047a839171b60405160405180910390a45b5050565b600062000c72836000018362000d6c565b60001c905092915050565b600062000ca7836000018373ffffffffffffffffffffffffffffffffffffffff1660001b62000df2565b905092915050565b600062000cbf8260000162000e15565b9050919050565b600062000cd4838362000df2565b62000d2f57826000018290806001815401808255809150506001900390600052602060002001600090919091909150558260000180549050836001016000848152602001908152602001600020819055506001905062000d34565b600090505b92915050565b600062000d64836000018373ffffffffffffffffffffffffffffffffffffffff1660001b62000e26565b905092915050565b60008183600001805490501162000dcf576040517f08c379a0000000000000000000000000000000000000000000000000000000008152600401808060200182810382526022815260200180620029286022913960400191505060405180910390fd5b82600001828154811062000ddf57fe5b9060005260206000200154905092915050565b600080836001016000848152602001908152602001600020541415905092915050565b600081600001805490509050919050565b6000808360010160008481526020019081526020016000205490506000811462000f07576000600182039050600060018660000180549050039050600086600001828154811062000e7357fe5b906000526020600020015490508087600001848154811062000e9157fe5b906000526020600020018190555060018301876001016000838152602001908152602001600020819055508660000180548062000eca57fe5b6001900381819060005260206000200160009055905586600101600087815260200190815260200160002060009055600194505050505062000f0d565b60009150505b92915050565b611a068062000f228339019056fe608060405260006004553480156200001657600080fd5b5060405162001a0638038062001a06833981810160405260a08110156200003c57600080fd5b81019080805190602001909291908051906020019092919080519060200190929190805160405193929190846401000000008211156200007b57600080fd5b838201915060208201858111156200009257600080fd5b8251866001820283011164010000000082111715620000b057600080fd5b8083526020830192505050908051906020019080838360005b83811015620000e6578082015181840152602081019050620000c9565b50505050905090810190601f168015620001145780820380516001836020036101000a031916815260200191505b50604052602001805190602001909291905050506200013d6000801b86620001e660201b60201c565b6200016f7f1ac48d9aa1b7cd6f79904f984dd7c90f079cc94b6519f36563f07d50448750c985620001e660201b60201c565b8160019080519060200190620001879291906200037c565b5082600381905550806002819055506000600660008673ffffffffffffffffffffffffffffffffffffffff1673ffffffffffffffffffffffffffffffffffffffff16815260200190815260200160002081905550505050505062000422565b620001f88282620001fc60201b60201c565b5050565b6200022a816000808581526020019081526020016000206000016200029f60201b6200104a1790919060201c565b156200029b5762000240620002d760201b60201c565b73ffffffffffffffffffffffffffffffffffffffff168173ffffffffffffffffffffffffffffffffffffffff16837f2f8788117e7eff1d82e926ec794901d17c78024a50270940304540a733656f0d60405160405180910390a45b5050565b6000620002cf836000018373ffffffffffffffffffffffffffffffffffffffff1660001b620002df60201b60201c565b905092915050565b600033905090565b6000620002f383836200035960201b60201c565b6200034e57826000018290806001815401808255809150506001900390600052602060002001600090919091909150558260000180549050836001016000848152602001908152602001600020819055506001905062000353565b600090505b92915050565b600080836001016000848152602001908152602001600020541415905092915050565b828054600181600116156101000203166002900490600052602060002090601f016020900481019282601f10620003bf57805160ff1916838001178555620003f0565b82800160010185558215620003f0579182015b82811115620003ef578251825591602001919060010190620003d2565b5b509050620003ff919062000403565b5090565b5b808211156200041e57600081600090555060010162000404565b5090565b6115d480620004326000396000f3fe60806040526004361061012e5760003560e01c8063636bfbab116100ab578063a53830e31161006f578063a53830e314610585578063ca15c873146105ea578063d547741f14610639578063da284dcc14610694578063e0e47588146106bf578063f731b10e146106ea57610135565b8063636bfbab146103bf5780637284e416146103ea5780639010d07c1461047a57806391d14854146104e9578063a217fddf1461055a57610135565b80632f2ff15d116100f25780632f2ff15d1461024757806330bfcb5f146102a2578063354d91de146102ac57806336568abe146103135780635e536deb1461036e57610135565b8063094f04051461013a57806312065fe01461015157806319cc36f41461017c578063248a9ca3146101cd5780632b69b19c1461021c57610135565b3661013557005b600080fd5b34801561014657600080fd5b5061014f610715565b005b34801561015d57600080fd5b506101666107bc565b6040518082815260200191505060405180910390f35b34801561018857600080fd5b506101cb6004803603602081101561019f57600080fd5b81019080803573ffffffffffffffffffffffffffffffffffffffff1690602001909291905050506107c4565b005b3480156101d957600080fd5b50610206600480360360208110156101f057600080fd5b8101908080359060200190929190505050610872565b6040518082815260200191505060405180910390f35b34801561022857600080fd5b50610231610891565b6040518082815260200191505060405180910390f35b34801561025357600080fd5b506102a06004803603604081101561026a57600080fd5b8101908080359060200190929190803573ffffffffffffffffffffffffffffffffffffffff1690602001909291905050506108b5565b005b6102aa61093e565b005b3480156102b857600080fd5b506102fb600480360360208110156102cf57600080fd5b81019080803573ffffffffffffffffffffffffffffffffffffffff169060200190929190505050610a0c565b60405180821515815260200191505060405180910390f35b34801561031f57600080fd5b5061036c6004803603604081101561033657600080fd5b8101908080359060200190929190803573ffffffffffffffffffffffffffffffffffffffff169060200190929190505050610a2c565b005b34801561037a57600080fd5b506103bd6004803603602081101561039157600080fd5b81019080803573ffffffffffffffffffffffffffffffffffffffff169060200190929190505050610ac5565b005b3480156103cb57600080fd5b506103d4610e46565b6040518082815260200191505060405180910390f35b3480156103f657600080fd5b506103ff610e4c565b6040518080602001828103825283818151815260200191508051906020019080838360005b8381101561043f578082015181840152602081019050610424565b50505050905090810190601f16801561046c5780820380516001836020036101000a031916815260200191505b509250505060405180910390f35b34801561048657600080fd5b506104bd6004803603604081101561049d57600080fd5b810190808035906020019092919080359060200190929190505050610eea565b604051808273ffffffffffffffffffffffffffffffffffffffff16815260200191505060405180910390f35b3480156104f557600080fd5b506105426004803603604081101561050c57600080fd5b8101908080359060200190929190803573ffffffffffffffffffffffffffffffffffffffff169060200190929190505050610f1b565b60405180821515815260200191505060405180910390f35b34801561056657600080fd5b5061056f610f4c565b6040518082815260200191505060405180910390f35b34801561059157600080fd5b506105d4600480360360208110156105a857600080fd5b81019080803573ffffffffffffffffffffffffffffffffffffffff169060200190929190505050610f53565b6040518082815260200191505060405180910390f35b3480156105f657600080fd5b506106236004803603602081101561060d57600080fd5b8101908080359060200190929190505050610f6b565b6040518082815260200191505060405180910390f35b34801561064557600080fd5b506106926004803603604081101561065c57600080fd5b8101908080359060200190929190803573ffffffffffffffffffffffffffffffffffffffff169060200190929190505050610f91565b005b3480156106a057600080fd5b506106a961101a565b6040518082815260200191505060405180910390f35b3480156106cb57600080fd5b506106d4611020565b6040518082815260200191505060405180910390f35b3480156106f657600080fd5b506106ff611044565b6040518082815260200191505060405180910390f35b336107407f9c4e6fd68fbdec6e3075ec7bfba710532af019aea93f5f59ebfe5a9d1a0b894e82610f1b565b15801561077457506107727f1ac48d9aa1b7cd6f79904f984dd7c90f079cc94b6519f36563f07d50448750c982610f1b565b155b61077d57600080fd5b6107a77f9c4e6fd68fbdec6e3075ec7bfba710532af019aea93f5f59ebfe5a9d1a0b894e3361107a565b60046000815480929190600101919050555050565b600047905090565b336107d26000801b82610f1b565b610827576040517f08c379a00000000000000000000000000000000000000000000000000000000081526004018080602001828103825260228152602001806115276022913960400191505060405180910390fd5b8173ffffffffffffffffffffffffffffffffffffffff166108fc479081150290604051600060405180830381858888f1935050505015801561086d573d6000803e3d6000fd5b505050565b6000806000838152602001908152602001600020600201549050919050565b7f1ac48d9aa1b7cd6f79904f984dd7c90f079cc94b6519f36563f07d50448750c981565b6108db600080848152602001908152602001600020600201546108d6611088565b610f1b565b610930576040517f08c379a000000000000000000000000000000000000000000000000000000000815260040180806020018281038252602f815260200180611477602f913960400191505060405180910390fd5b61093a8282611090565b5050565b3460035481101561099a576040517f08c379a00000000000000000000000000000000000000000000000000000000081526004018080602001828103825260228152602001806114d56022913960400191505060405180910390fd5b6109c47f1ac48d9aa1b7cd6f79904f984dd7c90f079cc94b6519f36563f07d50448750c93361107a565b6000600660003373ffffffffffffffffffffffffffffffffffffffff1673ffffffffffffffffffffffffffffffffffffffff1681526020019081526020016000208190555050565b60056020528060005260406000206000915054906101000a900460ff1681565b610a34611088565b73ffffffffffffffffffffffffffffffffffffffff168173ffffffffffffffffffffffffffffffffffffffff1614610ab7576040517f08c379a000000000000000000000000000000000000000000000000000000000815260040180806020018281038252602f815260200180611570602f913960400191505060405180910390fd5b610ac18282611123565b5050565b600254421015610b20576040517f08c379a000000000000000000000000000000000000000000000000000000000815260040180806020018281038252602f8152602001806114a6602f913960400191505060405180910390fd5b80610b4b7f1ac48d9aa1b7cd6f79904f984dd7c90f079cc94b6519f36563f07d50448750c982610f1b565b610ba0576040517f08c379a00000000000000000000000000000000000000000000000000000000081526004018080602001828103825260278152602001806115496027913960400191505060405180910390fd5b33600560008273ffffffffffffffffffffffffffffffffffffffff1673ffffffffffffffffffffffffffffffffffffffff16815260200190815260200160002060009054906101000a900460ff1615610c61576040517f08c379a00000000000000000000000000000000000000000000000000000000081526004018080602001828103825260178152602001807f596f75206861766520616c726561647920766f7465642e00000000000000000081525060200191505060405180910390fd5b33610c8c7f9c4e6fd68fbdec6e3075ec7bfba710532af019aea93f5f59ebfe5a9d1a0b894e82610f1b565b610cfe576040517f08c379a00000000000000000000000000000000000000000000000000000000081526004018080602001828103825260168152602001807f43616c6c6572206973206e6f742061206a756467652e0000000000000000000081525060200191505060405180910390fd5b600660008573ffffffffffffffffffffffffffffffffffffffff1673ffffffffffffffffffffffffffffffffffffffff16815260200190815260200160002060008154809291906001019190505550600260045481610d5957fe5b04600660008673ffffffffffffffffffffffffffffffffffffffff1673ffffffffffffffffffffffffffffffffffffffff168152602001908152602001600020541115610de8578373ffffffffffffffffffffffffffffffffffffffff166108fc479081150290604051600060405180830381858888f19350505050158015610de6573d6000803e3d6000fd5b505b6001600560003373ffffffffffffffffffffffffffffffffffffffff1673ffffffffffffffffffffffffffffffffffffffff16815260200190815260200160002060006101000a81548160ff02191690831515021790555050505050565b60035481565b60018054600181600116156101000203166002900480601f016020809104026020016040519081016040528092919081815260200182805460018160011615610100020316600290048015610ee25780601f10610eb757610100808354040283529160200191610ee2565b820191906000526020600020905b815481529060010190602001808311610ec557829003601f168201915b505050505081565b6000610f13826000808681526020019081526020016000206000016111b690919063ffffffff16565b905092915050565b6000610f44826000808681526020019081526020016000206000016111d090919063ffffffff16565b905092915050565b6000801b81565b60066020528060005260406000206000915090505481565b6000610f8a600080848152602001908152602001600020600001611200565b9050919050565b610fb760008084815260200190815260200160002060020154610fb2611088565b610f1b565b61100c576040517f08c379a00000000000000000000000000000000000000000000000000000000081526004018080602001828103825260308152602001806114f76030913960400191505060405180910390fd5b6110168282611123565b5050565b60025481565b7f9c4e6fd68fbdec6e3075ec7bfba710532af019aea93f5f59ebfe5a9d1a0b894e81565b60045481565b6000611072836000018373ffffffffffffffffffffffffffffffffffffffff1660001b611215565b905092915050565b6110848282611090565b5050565b600033905090565b6110b78160008085815260200190815260200160002060000161104a90919063ffffffff16565b1561111f576110c4611088565b73ffffffffffffffffffffffffffffffffffffffff168173ffffffffffffffffffffffffffffffffffffffff16837f2f8788117e7eff1d82e926ec794901d17c78024a50270940304540a733656f0d60405160405180910390a45b5050565b61114a8160008085815260200190815260200160002060000161128590919063ffffffff16565b156111b257611157611088565b73ffffffffffffffffffffffffffffffffffffffff168173ffffffffffffffffffffffffffffffffffffffff16837ff6391f5c32d9c69d2a47ea670b442974b53935d1edc7fd64eb21e047a839171b60405160405180910390a45b5050565b60006111c583600001836112b5565b60001c905092915050565b60006111f8836000018373ffffffffffffffffffffffffffffffffffffffff1660001b611338565b905092915050565b600061120e8260000161135b565b9050919050565b60006112218383611338565b61127a57826000018290806001815401808255809150506001900390600052602060002001600090919091909150558260000180549050836001016000848152602001908152602001600020819055506001905061127f565b600090505b92915050565b60006112ad836000018373ffffffffffffffffffffffffffffffffffffffff1660001b61136c565b905092915050565b600081836000018054905011611316576040517f08c379a00000000000000000000000000000000000000000000000000000000081526004018080602001828103825260228152602001806114556022913960400191505060405180910390fd5b82600001828154811061132557fe5b9060005260206000200154905092915050565b600080836001016000848152602001908152602001600020541415905092915050565b600081600001805490509050919050565b6000808360010160008481526020019081526020016000205490506000811461144857600060018203905060006001866000018054905003905060008660000182815481106113b757fe5b90600052602060002001549050808760000184815481106113d457fe5b906000526020600020018190555060018301876001016000838152602001908152602001600020819055508660000180548061140c57fe5b6001900381819060005260206000200160009055905586600101600087815260200190815260200160002060009055600194505050505061144e565b60009150505b9291505056fe456e756d657261626c655365743a20696e646578206f7574206f6620626f756e6473416363657373436f6e74726f6c3a2073656e646572206d75737420626520616e2061646d696e20746f206772616e74596f752063616e277420766f74652062656361757365206576656e74206469646e27742068617070656e207965742e496e73756666696369656e7420616d6f756e74206f662065746865722073656e742e416363657373436f6e74726f6c3a2073656e646572206d75737420626520616e2061646d696e20746f207265766f6b654f6e6c792061646d696e2063616e2063616c6c20746869732066756e6374696f6e2e54686973206164647265737320646f65736e27742062656c6f6e6720746f20626574746f72732e416363657373436f6e74726f6c3a2063616e206f6e6c792072656e6f756e636520726f6c657320666f722073656c66a26469706673582212205c9a0700721a6ca25f721479a12493981943ad93c987814ecd6e841b0ad4105c64736f6c63430007030033456e756d657261626c655365743a20696e646578206f7574206f6620626f756e6473416363657373436f6e74726f6c3a2073656e646572206d75737420626520616e2061646d696e20746f206772616e74416363657373436f6e74726f6c3a2073656e646572206d75737420626520616e2061646d696e20746f207265766f6b65416363657373436f6e74726f6c3a2063616e206f6e6c792072656e6f756e636520726f6c657320666f722073656c66a264697066735822122015f4d0284c10c27390ed2f060fa3cf53a580203af4dd6d83223dc5a52e0ad1bb64736f6c63430007030033",
  "immutableReferences": {},
  "source": "// SPDX-License-Identifier: MIT\npragma solidity ^0.7.3;\n\nimport \"@openzeppelin/contracts/access/AccessControl.sol\";\nimport \"./Bet.sol\";\n\ncontract BetFactory is AccessControl{\n    Bet[] deployedBets;\n\n    event Deployed(\n        address _value\n    );\n\n    modifier onlyAdmin(address _sender){\n        require(hasRole(DEFAULT_ADMIN_ROLE, _sender), \"Caller is not an admin\");\n        _;\n    }\n\n    constructor() {\n        _setupRole(DEFAULT_ADMIN_ROLE, msg.sender);\n    }\n\n    function createBet(string memory _description, uint _expirationTime) public payable returns(address){\n        Bet bet = new Bet(this.getRoleMember(DEFAULT_ADMIN_ROLE, 0), msg.sender, msg.value, _description, _expirationTime);\n        payable(address(bet)).transfer(msg.value);\n        deployedBets.push(bet);\n        emit Deployed(address(bet));\n        return(address(bet));\n    }\n\n    function getDeployedBets() public view onlyAdmin(msg.sender) returns(Bet[] memory){\n        return deployedBets;\n    }\n}",
  "sourcePath": "/home/user/Programming/SHARDLABS/betting-app/blockchain/contracts/BetFactory.sol",
  "compiler": {
    "name": "solc",
    "version": "0.7.3+commit.9bfce1f6.Emscripten.clang"
  },
  "schemaVersion": "3.3.2",
  "updatedAt": "2020-11-13T14:37:18.486Z",
  "devdoc": {
    "kind": "dev",
    "methods": {
      "getRoleAdmin(bytes32)": {
        "details": "Returns the admin role that controls `role`. See {grantRole} and {revokeRole}. To change a role's admin, use {_setRoleAdmin}."
      },
      "getRoleMember(bytes32,uint256)": {
        "details": "Returns one of the accounts that have `role`. `index` must be a value between 0 and {getRoleMemberCount}, non-inclusive. Role bearers are not sorted in any particular way, and their ordering may change at any point. WARNING: When using {getRoleMember} and {getRoleMemberCount}, make sure you perform all queries on the same block. See the following https://forum.openzeppelin.com/t/iterating-over-elements-on-enumerableset-in-openzeppelin-contracts/2296[forum post] for more information."
      },
      "getRoleMemberCount(bytes32)": {
        "details": "Returns the number of accounts that have `role`. Can be used together with {getRoleMember} to enumerate all bearers of a role."
      },
      "grantRole(bytes32,address)": {
        "details": "Grants `role` to `account`. If `account` had not been already granted `role`, emits a {RoleGranted} event. Requirements: - the caller must have ``role``'s admin role."
      },
      "hasRole(bytes32,address)": {
        "details": "Returns `true` if `account` has been granted `role`."
      },
      "renounceRole(bytes32,address)": {
        "details": "Revokes `role` from the calling account. Roles are often managed via {grantRole} and {revokeRole}: this function's purpose is to provide a mechanism for accounts to lose their privileges if they are compromised (such as when a trusted device is misplaced). If the calling account had been granted `role`, emits a {RoleRevoked} event. Requirements: - the caller must be `account`."
      },
      "revokeRole(bytes32,address)": {
        "details": "Revokes `role` from `account`. If `account` had been granted `role`, emits a {RoleRevoked} event. Requirements: - the caller must have ``role``'s admin role."
      }
    },
    "version": 1
  },
  "userdoc": {
    "kind": "user",
    "methods": {},
    "version": 1
  }
}