{
  "contractName": "Bet",
  "abi": [
    {
      "inputs": [
        {
          "internalType": "address",
          "name": "_admin",
          "type": "address"
        },
        {
          "internalType": "address",
          "name": "_betCreator",
          "type": "address"
        },
        {
          "internalType": "string",
          "name": "_betCreatorName",
          "type": "string"
        },
        {
          "internalType": "address",
          "name": "_opponent",
          "type": "address"
        },
        {
          "internalType": "address[]",
          "name": "_creatorJudges",
          "type": "address[]"
        },
        {
          "internalType": "uint256",
          "name": "_minimumDeposit",
          "type": "uint256"
        },
        {
          "internalType": "uint256",
          "name": "_expirationTime",
          "type": "uint256"
        }
      ],
      "stateMutability": "nonpayable",
      "type": "constructor"
    },
    {
      "anonymous": false,
      "inputs": [
        {
          "indexed": true,
          "internalType": "bytes32",
          "name": "role",
          "type": "bytes32"
        },
        {
          "indexed": true,
          "internalType": "bytes32",
          "name": "previousAdminRole",
          "type": "bytes32"
        },
        {
          "indexed": true,
          "internalType": "bytes32",
          "name": "newAdminRole",
          "type": "bytes32"
        }
      ],
      "name": "RoleAdminChanged",
      "type": "event"
    },
    {
      "anonymous": false,
      "inputs": [
        {
          "indexed": true,
          "internalType": "bytes32",
          "name": "role",
          "type": "bytes32"
        },
        {
          "indexed": true,
          "internalType": "address",
          "name": "account",
          "type": "address"
        },
        {
          "indexed": true,
          "internalType": "address",
          "name": "sender",
          "type": "address"
        }
      ],
      "name": "RoleGranted",
      "type": "event"
    },
    {
      "anonymous": false,
      "inputs": [
        {
          "indexed": true,
          "internalType": "bytes32",
          "name": "role",
          "type": "bytes32"
        },
        {
          "indexed": true,
          "internalType": "address",
          "name": "account",
          "type": "address"
        },
        {
          "indexed": true,
          "internalType": "address",
          "name": "sender",
          "type": "address"
        }
      ],
      "name": "RoleRevoked",
      "type": "event"
    },
    {
      "inputs": [],
      "name": "BET_CREATOR_ROLE",
      "outputs": [
        {
          "internalType": "bytes32",
          "name": "",
          "type": "bytes32"
        }
      ],
      "stateMutability": "view",
      "type": "function"
    },
    {
      "inputs": [],
      "name": "BET_TAKER_ROLE",
      "outputs": [
        {
          "internalType": "bytes32",
          "name": "",
          "type": "bytes32"
        }
      ],
      "stateMutability": "view",
      "type": "function"
    },
    {
      "inputs": [],
      "name": "DEFAULT_ADMIN_ROLE",
      "outputs": [
        {
          "internalType": "bytes32",
          "name": "",
          "type": "bytes32"
        }
      ],
      "stateMutability": "view",
      "type": "function"
    },
    {
      "inputs": [],
      "name": "JUDGE_ROLE",
      "outputs": [
        {
          "internalType": "bytes32",
          "name": "",
          "type": "bytes32"
        }
      ],
      "stateMutability": "view",
      "type": "function"
    },
    {
      "inputs": [],
      "name": "MAX_JUDGES",
      "outputs": [
        {
          "internalType": "uint256",
          "name": "",
          "type": "uint256"
        }
      ],
      "stateMutability": "view",
      "type": "function"
    },
    {
      "inputs": [
        {
          "internalType": "address",
          "name": "",
          "type": "address"
        }
      ],
      "name": "bettors",
      "outputs": [
        {
          "internalType": "string",
          "name": "name",
          "type": "string"
        },
        {
          "internalType": "uint256",
          "name": "votes",
          "type": "uint256"
        }
      ],
      "stateMutability": "view",
      "type": "function"
    },
    {
      "inputs": [
        {
          "internalType": "address",
          "name": "",
          "type": "address"
        }
      ],
      "name": "didVote",
      "outputs": [
        {
          "internalType": "bool",
          "name": "",
          "type": "bool"
        }
      ],
      "stateMutability": "view",
      "type": "function"
    },
    {
      "inputs": [],
      "name": "expirationTime",
      "outputs": [
        {
          "internalType": "uint256",
          "name": "",
          "type": "uint256"
        }
      ],
      "stateMutability": "view",
      "type": "function"
    },
    {
      "inputs": [
        {
          "internalType": "bytes32",
          "name": "role",
          "type": "bytes32"
        }
      ],
      "name": "getRoleAdmin",
      "outputs": [
        {
          "internalType": "bytes32",
          "name": "",
          "type": "bytes32"
        }
      ],
      "stateMutability": "view",
      "type": "function"
    },
    {
      "inputs": [
        {
          "internalType": "bytes32",
          "name": "role",
          "type": "bytes32"
        },
        {
          "internalType": "uint256",
          "name": "index",
          "type": "uint256"
        }
      ],
      "name": "getRoleMember",
      "outputs": [
        {
          "internalType": "address",
          "name": "",
          "type": "address"
        }
      ],
      "stateMutability": "view",
      "type": "function"
    },
    {
      "inputs": [
        {
          "internalType": "bytes32",
          "name": "role",
          "type": "bytes32"
        }
      ],
      "name": "getRoleMemberCount",
      "outputs": [
        {
          "internalType": "uint256",
          "name": "",
          "type": "uint256"
        }
      ],
      "stateMutability": "view",
      "type": "function"
    },
    {
      "inputs": [
        {
          "internalType": "bytes32",
          "name": "role",
          "type": "bytes32"
        },
        {
          "internalType": "address",
          "name": "account",
          "type": "address"
        }
      ],
      "name": "grantRole",
      "outputs": [],
      "stateMutability": "nonpayable",
      "type": "function"
    },
    {
      "inputs": [
        {
          "internalType": "bytes32",
          "name": "role",
          "type": "bytes32"
        },
        {
          "internalType": "address",
          "name": "account",
          "type": "address"
        }
      ],
      "name": "hasRole",
      "outputs": [
        {
          "internalType": "bool",
          "name": "",
          "type": "bool"
        }
      ],
      "stateMutability": "view",
      "type": "function"
    },
    {
      "inputs": [],
      "name": "minimumDeposit",
      "outputs": [
        {
          "internalType": "uint256",
          "name": "",
          "type": "uint256"
        }
      ],
      "stateMutability": "view",
      "type": "function"
    },
    {
      "inputs": [
        {
          "internalType": "bytes32",
          "name": "role",
          "type": "bytes32"
        },
        {
          "internalType": "address",
          "name": "account",
          "type": "address"
        }
      ],
      "name": "renounceRole",
      "outputs": [],
      "stateMutability": "nonpayable",
      "type": "function"
    },
    {
      "inputs": [
        {
          "internalType": "bytes32",
          "name": "role",
          "type": "bytes32"
        },
        {
          "internalType": "address",
          "name": "account",
          "type": "address"
        }
      ],
      "name": "revokeRole",
      "outputs": [],
      "stateMutability": "nonpayable",
      "type": "function"
    },
    {
      "stateMutability": "payable",
      "type": "receive"
    },
    {
      "inputs": [],
      "name": "getBalance",
      "outputs": [
        {
          "internalType": "uint256",
          "name": "",
          "type": "uint256"
        }
      ],
      "stateMutability": "view",
      "type": "function"
    },
    {
      "inputs": [
        {
          "internalType": "address[]",
          "name": "_opponentJudges",
          "type": "address[]"
        },
        {
          "internalType": "string",
          "name": "_betTakerName",
          "type": "string"
        }
      ],
      "name": "acceptBet",
      "outputs": [],
      "stateMutability": "payable",
      "type": "function"
    },
    {
      "inputs": [
        {
          "internalType": "address",
          "name": "_candidate",
          "type": "address"
        }
      ],
      "name": "judgeVote",
      "outputs": [],
      "stateMutability": "nonpayable",
      "type": "function"
    }
  ],
  "bytecode": "0x60806040523480156200001157600080fd5b5060405162001f3c38038062001f3c833981810160405260e08110156200003757600080fd5b810190808051906020019092919080519060200190929190805160405193929190846401000000008211156200006c57600080fd5b838201915060208201858111156200008357600080fd5b8251866001820283011164010000000082111715620000a157600080fd5b8083526020830192505050908051906020019080838360005b83811015620000d7578082015181840152602081019050620000ba565b50505050905090810190601f168015620001055780820380516001836020036101000a031916815260200191505b5060405260200180519060200190929190805160405193929190846401000000008211156200013357600080fd5b838201915060208201858111156200014a57600080fd5b82518660208202830111640100000000821117156200016857600080fd5b8083526020830192505050908051906020019060200280838360005b83811015620001a157808201518184015260208101905062000184565b50505050905001604052602001805190602001909291908051906020019092919050505082600281511462000222576040517f08c379a000000000000000000000000000000000000000000000000000000000815260040180806020018281038252602781526020018062001f156027913960400191505060405180910390fd5b620002376000801b896200034960201b60201c565b620002697f61d1bb7d7688fec169e00198b1bfb0436edf7b7587f293f9b0134c8cd6b65455886200034960201b60201c565b6200029b7f73fd03b4d1a4566cea36b263466aa5c47d098c2cd6a202bf47c932dc6689b4b4866200034960201b60201c565b620002ac846200035f60201b60201c565b60405180604001604052808781526020016000815250600460008973ffffffffffffffffffffffffffffffffffffffff1673ffffffffffffffffffffffffffffffffffffffff16815260200190815260200160002060008201518160000190805190602001906200031f92919062000544565b506020820151816001015590505082600281905550816001819055505050505050505050620005ea565b6200035b8282620003c460201b60201c565b5050565b60005b8151811015620003c057620003b27f9c4e6fd68fbdec6e3075ec7bfba710532af019aea93f5f59ebfe5a9d1a0b894e8383815181106200039e57fe5b60200260200101516200034960201b60201c565b808060010191505062000362565b5050565b620003f2816000808581526020019081526020016000206000016200046760201b620012c41790919060201c565b156200046357620004086200049f60201b60201c565b73ffffffffffffffffffffffffffffffffffffffff168173ffffffffffffffffffffffffffffffffffffffff16837f2f8788117e7eff1d82e926ec794901d17c78024a50270940304540a733656f0d60405160405180910390a45b5050565b600062000497836000018373ffffffffffffffffffffffffffffffffffffffff1660001b620004a760201b60201c565b905092915050565b600033905090565b6000620004bb83836200052160201b60201c565b620005165782600001829080600181540180825580915050600190039060005260206000200160009091909190915055826000018054905083600101600084815260200190815260200160002081905550600190506200051b565b600090505b92915050565b600080836001016000848152602001908152602001600020541415905092915050565b828054600181600116156101000203166002900490600052602060002090601f016020900481019282601f106200058757805160ff1916838001178555620005b8565b82800160010185558215620005b8579182015b82811115620005b75782518255916020019190600101906200059a565b5b509050620005c79190620005cb565b5090565b5b80821115620005e6576000816000905550600101620005cc565b5090565b61191b80620005fa6000396000f3fe6080604052600436106101185760003560e01c80635ef76cd6116100a0578063ca15c87311610064578063ca15c87314610594578063d547741f146105e3578063da284dcc1461063e578063e0e4758814610669578063e28e3bbd146106945761011f565b80635ef76cd614610433578063636bfbab1461045e5780639010d07c1461048957806391d14854146104f8578063a217fddf146105695761011f565b8063248a9ca3116100e7578063248a9ca3146102765780632f2ff15d146102c5578063354d91de1461032057806336568abe146103875780635e536deb146103e25761011f565b806306a29fa914610124578063098291441461014f57806312065fe01461017a57806322010c1f146101a55761011f565b3661011f57005b600080fd5b34801561013057600080fd5b506101396107e3565b6040518082815260200191505060405180910390f35b34801561015b57600080fd5b506101646107e8565b6040518082815260200191505060405180910390f35b34801561018657600080fd5b5061018f61080c565b6040518082815260200191505060405180910390f35b3480156101b157600080fd5b506101f4600480360360208110156101c857600080fd5b81019080803573ffffffffffffffffffffffffffffffffffffffff169060200190929190505050610814565b6040518080602001838152602001828103825284818151815260200191508051906020019080838360005b8381101561023a57808201518184015260208101905061021f565b50505050905090810190601f1680156102675780820380516001836020036101000a031916815260200191505b50935050505060405180910390f35b34801561028257600080fd5b506102af6004803603602081101561029957600080fd5b81019080803590602001909291905050506108d0565b6040518082815260200191505060405180910390f35b3480156102d157600080fd5b5061031e600480360360408110156102e857600080fd5b8101908080359060200190929190803573ffffffffffffffffffffffffffffffffffffffff1690602001909291905050506108ef565b005b34801561032c57600080fd5b5061036f6004803603602081101561034357600080fd5b81019080803573ffffffffffffffffffffffffffffffffffffffff169060200190929190505050610978565b60405180821515815260200191505060405180910390f35b34801561039357600080fd5b506103e0600480360360408110156103aa57600080fd5b8101908080359060200190929190803573ffffffffffffffffffffffffffffffffffffffff169060200190929190505050610998565b005b3480156103ee57600080fd5b506104316004803603602081101561040557600080fd5b81019080803573ffffffffffffffffffffffffffffffffffffffff169060200190929190505050610a31565b005b34801561043f57600080fd5b50610448610d92565b6040518082815260200191505060405180910390f35b34801561046a57600080fd5b50610473610db6565b6040518082815260200191505060405180910390f35b34801561049557600080fd5b506104cc600480360360408110156104ac57600080fd5b810190808035906020019092919080359060200190929190505050610dbc565b604051808273ffffffffffffffffffffffffffffffffffffffff16815260200191505060405180910390f35b34801561050457600080fd5b506105516004803603604081101561051b57600080fd5b8101908080359060200190929190803573ffffffffffffffffffffffffffffffffffffffff169060200190929190505050610ded565b60405180821515815260200191505060405180910390f35b34801561057557600080fd5b5061057e610e1e565b6040518082815260200191505060405180910390f35b3480156105a057600080fd5b506105cd600480360360208110156105b757600080fd5b8101908080359060200190929190505050610e25565b6040518082815260200191505060405180910390f35b3480156105ef57600080fd5b5061063c6004803603604081101561060657600080fd5b8101908080359060200190929190803573ffffffffffffffffffffffffffffffffffffffff169060200190929190505050610e4b565b005b34801561064a57600080fd5b50610653610ed4565b6040518082815260200191505060405180910390f35b34801561067557600080fd5b5061067e610eda565b6040518082815260200191505060405180910390f35b6107e1600480360360408110156106aa57600080fd5b81019080803590602001906401000000008111156106c757600080fd5b8201836020820111156106d957600080fd5b803590602001918460208302840111640100000000831117156106fb57600080fd5b919080806020026020016040519081016040528093929190818152602001838360200280828437600081840152601f19601f8201169050808301925050505050505091929192908035906020019064010000000081111561075b57600080fd5b82018360208201111561076d57600080fd5b8035906020019184600183028401116401000000008311171561078f57600080fd5b91908080601f016020809104026020016040519081016040528093929190818152602001838380828437600081840152601f19601f820116905080830192505050505050509192919290505050610efe565b005b600281565b7f61d1bb7d7688fec169e00198b1bfb0436edf7b7587f293f9b0134c8cd6b6545581565b600047905090565b6004602052806000526040600020600091509050806000018054600181600116156101000203166002900480601f0160208091040260200160405190810160405280929190818152602001828054600181600116156101000203166002900480156108c05780601f10610895576101008083540402835291602001916108c0565b820191906000526020600020905b8154815290600101906020018083116108a357829003601f168201915b5050505050908060010154905082565b6000806000838152602001908152602001600020600201549050919050565b610915600080848152602001908152602001600020600201546109106112f4565b610ded565b61096a576040517f08c379a000000000000000000000000000000000000000000000000000000000815260040180806020018281038252602f8152602001806117e8602f913960400191505060405180910390fd5b61097482826112fc565b5050565b60036020528060005260406000206000915054906101000a900460ff1681565b6109a06112f4565b73ffffffffffffffffffffffffffffffffffffffff168173ffffffffffffffffffffffffffffffffffffffff1614610a23576040517f08c379a000000000000000000000000000000000000000000000000000000000815260040180806020018281038252602f8152602001806118b7602f913960400191505060405180910390fd5b610a2d828261138f565b5050565b600154421015610a4057600080fd5b80610a6b7f73fd03b4d1a4566cea36b263466aa5c47d098c2cd6a202bf47c932dc6689b4b482610ded565b80610a9c5750610a9b7f61d1bb7d7688fec169e00198b1bfb0436edf7b7587f293f9b0134c8cd6b6545582610ded565b5b610af1576040517f08c379a00000000000000000000000000000000000000000000000000000000081526004018080602001828103825260278152602001806118696027913960400191505060405180910390fd5b33600360008273ffffffffffffffffffffffffffffffffffffffff1673ffffffffffffffffffffffffffffffffffffffff16815260200190815260200160002060009054906101000a900460ff1615610bb2576040517f08c379a00000000000000000000000000000000000000000000000000000000081526004018080602001828103825260178152602001807f596f75206861766520616c726561647920766f7465642e00000000000000000081525060200191505060405180910390fd5b33610bdd7f9c4e6fd68fbdec6e3075ec7bfba710532af019aea93f5f59ebfe5a9d1a0b894e82610ded565b610c4f576040517f08c379a00000000000000000000000000000000000000000000000000000000081526004018080602001828103825260168152602001807f43616c6c6572206973206e6f742061206a756467652e0000000000000000000081525060200191505060405180910390fd5b600460008573ffffffffffffffffffffffffffffffffffffffff1673ffffffffffffffffffffffffffffffffffffffff168152602001908152602001600020600101600081548092919060010191905055506002600460008673ffffffffffffffffffffffffffffffffffffffff1673ffffffffffffffffffffffffffffffffffffffff168152602001908152602001600020600101541115610d34578373ffffffffffffffffffffffffffffffffffffffff166108fc479081150290604051600060405180830381858888f19350505050158015610d32573d6000803e3d6000fd5b505b6001600360003373ffffffffffffffffffffffffffffffffffffffff1673ffffffffffffffffffffffffffffffffffffffff16815260200190815260200160002060006101000a81548160ff02191690831515021790555050505050565b7f73fd03b4d1a4566cea36b263466aa5c47d098c2cd6a202bf47c932dc6689b4b481565b60025481565b6000610de58260008086815260200190815260200160002060000161142290919063ffffffff16565b905092915050565b6000610e168260008086815260200190815260200160002060000161143c90919063ffffffff16565b905092915050565b6000801b81565b6000610e4460008084815260200190815260200160002060000161146c565b9050919050565b610e7160008084815260200190815260200160002060020154610e6c6112f4565b610ded565b610ec6576040517f08c379a00000000000000000000000000000000000000000000000000000000081526004018080602001828103825260308152602001806118396030913960400191505060405180910390fd5b610ed0828261138f565b5050565b60015481565b7f9c4e6fd68fbdec6e3075ec7bfba710532af019aea93f5f59ebfe5a9d1a0b894e81565b8160003073ffffffffffffffffffffffffffffffffffffffff1663ca15c8737f9c4e6fd68fbdec6e3075ec7bfba710532af019aea93f5f59ebfe5a9d1a0b894e6040518263ffffffff1660e01b81526004018082815260200191505060206040518083038186803b158015610f7257600080fd5b505afa158015610f86573d6000803e3d6000fd5b505050506040513d6020811015610f9c57600080fd5b8101908080519060200190929190505050905081518114611025576040517f08c379a000000000000000000000000000000000000000000000000000000000815260040180806020018281038252601e8152602001807f596f75206861766520616c7265616479206164646564206a75646765732e000081525060200191505060405180910390fd5b836002815114611080576040517f08c379a00000000000000000000000000000000000000000000000000000000081526004018080602001828103825260278152602001806118906027913960400191505060405180910390fd5b346002548110156110dc576040517f08c379a00000000000000000000000000000000000000000000000000000000081526004018080602001828103825260228152602001806118176022913960400191505060405180910390fd5b336111077f73fd03b4d1a4566cea36b263466aa5c47d098c2cd6a202bf47c932dc6689b4b482610ded565b611179576040517f08c379a00000000000000000000000000000000000000000000000000000000081526004018080602001828103825260198152602001807f43616c6c6572206973206e6f742061206265742074616b65720000000000000081525060200191505060405180910390fd5b60003073ffffffffffffffffffffffffffffffffffffffff16639010d07c7f73fd03b4d1a4566cea36b263466aa5c47d098c2cd6a202bf47c932dc6689b4b460006040518363ffffffff1660e01b8152600401808381526020018281526020019250505060206040518083038186803b1580156111f557600080fd5b505afa158015611209573d6000803e3d6000fd5b505050506040513d602081101561121f57600080fd5b8101908080519060200190929190505050905060405180604001604052808881526020016000815250600460008373ffffffffffffffffffffffffffffffffffffffff1673ffffffffffffffffffffffffffffffffffffffff16815260200190815260200160002060008201518160000190805190602001906112a3929190611728565b50602082015181600101559050506112ba88611481565b5050505050505050565b60006112ec836000018373ffffffffffffffffffffffffffffffffffffffff1660001b6114db565b905092915050565b600033905090565b611323816000808581526020019081526020016000206000016112c490919063ffffffff16565b1561138b576113306112f4565b73ffffffffffffffffffffffffffffffffffffffff168173ffffffffffffffffffffffffffffffffffffffff16837f2f8788117e7eff1d82e926ec794901d17c78024a50270940304540a733656f0d60405160405180910390a45b5050565b6113b68160008085815260200190815260200160002060000161154b90919063ffffffff16565b1561141e576113c36112f4565b73ffffffffffffffffffffffffffffffffffffffff168173ffffffffffffffffffffffffffffffffffffffff16837ff6391f5c32d9c69d2a47ea670b442974b53935d1edc7fd64eb21e047a839171b60405160405180910390a45b5050565b6000611431836000018361157b565b60001c905092915050565b6000611464836000018373ffffffffffffffffffffffffffffffffffffffff1660001b6115fe565b905092915050565b600061147a82600001611621565b9050919050565b60005b81518110156114d7576114ca7f9c4e6fd68fbdec6e3075ec7bfba710532af019aea93f5f59ebfe5a9d1a0b894e8383815181106114bd57fe5b6020026020010151611632565b8080600101915050611484565b5050565b60006114e783836115fe565b611540578260000182908060018154018082558091505060019003906000526020600020016000909190919091505582600001805490508360010160008481526020019081526020016000208190555060019050611545565b600090505b92915050565b6000611573836000018373ffffffffffffffffffffffffffffffffffffffff1660001b611640565b905092915050565b6000818360000180549050116115dc576040517f08c379a00000000000000000000000000000000000000000000000000000000081526004018080602001828103825260228152602001806117c66022913960400191505060405180910390fd5b8260000182815481106115eb57fe5b9060005260206000200154905092915050565b600080836001016000848152602001908152602001600020541415905092915050565b600081600001805490509050919050565b61163c82826112fc565b5050565b6000808360010160008481526020019081526020016000205490506000811461171c576000600182039050600060018660000180549050039050600086600001828154811061168b57fe5b90600052602060002001549050808760000184815481106116a857fe5b90600052602060002001819055506001830187600101600083815260200190815260200160002081905550866000018054806116e057fe5b60019003818190600052602060002001600090559055866001016000878152602001908152602001600020600090556001945050505050611722565b60009150505b92915050565b828054600181600116156101000203166002900490600052602060002090601f016020900481019282601f1061176957805160ff1916838001178555611797565b82800160010185558215611797579182015b8281111561179657825182559160200191906001019061177b565b5b5090506117a491906117a8565b5090565b5b808211156117c15760008160009055506001016117a9565b509056fe456e756d657261626c655365743a20696e646578206f7574206f6620626f756e6473416363657373436f6e74726f6c3a2073656e646572206d75737420626520616e2061646d696e20746f206772616e74496e73756666696369656e7420616d6f756e74206f662065746865722073656e742e416363657373436f6e74726f6c3a2073656e646572206d75737420626520616e2061646d696e20746f207265766f6b6554686973206164647265737320646f65736e27742062656c6f6e6720746f20626574746f72732e596f752063616e6e6f742061737369676e206d6f7265207468616e2074776f206a75646765732e416363657373436f6e74726f6c3a2063616e206f6e6c792072656e6f756e636520726f6c657320666f722073656c66a26469706673582212202b6fd69e15b75327ce851078c761acaeb24af53e27a42616e12aa32029e4518664736f6c63430007030033596f752063616e6e6f742061737369676e206d6f7265207468616e2074776f206a75646765732e",
  "immutableReferences": {},
  "source": "// SPDX-License-Identifier: MIT\npragma solidity ^0.7.3;\n\nimport \"@openzeppelin/contracts/access/AccessControl.sol\";\n\n/*\nCheck if judges are unique\nCheck if any of judges is bet creator or bet taker\n */\n \ncontract Bet is AccessControl{\n\n    struct Bettor {\n        string name;\n        uint votes;\n    }\n\n    uint public constant MAX_JUDGES = 2;\n\n    uint public expirationTime;\n    uint public minimumDeposit;\n    \n    bytes32 public constant BET_CREATOR_ROLE = keccak256(\"BET_CREATOR_ROLE\");\n    bytes32 public constant BET_TAKER_ROLE = keccak256(\"BET_TAKER_ROLE\");\n    bytes32 public constant JUDGE_ROLE = keccak256(\"JUDGE_ROLE\");\n\n    mapping(address => bool) public didVote;\n    mapping(address => Bettor) public bettors;\n\n    modifier canJudgeVote{\n        require(block.timestamp >= expirationTime);\n        _;\n    }\n\n    modifier limitJudges(address[] memory _judges){\n        require(_judges.length == MAX_JUDGES, \"You cannot assign more than two judges.\");\n        _;\n    }\n\n    modifier onlyBetTaker(address _sender){\n        require(hasRole(BET_TAKER_ROLE, _sender), \"Caller is not a bet taker\");\n        _;\n    }\n    \n    modifier restrictJudges(address[] memory _judges){\n        uint judgesLength = this.getRoleMemberCount(JUDGE_ROLE);\n        require(judgesLength == _judges.length, \"You have already added judges.\");\n        _;\n    }\n\n    modifier minimumBetLimit(uint _value){\n        require(_value >= minimumDeposit, \"Insufficient amount of ether sent.\");\n        _;\n    }\n\n    modifier onlyVoteOnce(address _judge){\n        require(!didVote[_judge], \"You have already voted.\");\n        _;\n    }\n\n    modifier onlyJudge(address _sender){\n        require(hasRole(JUDGE_ROLE, _sender), \"Caller is not a judge.\");\n        _;\n    }\n\n    modifier onlyBettors(address _sender){\n        require(hasRole(BET_TAKER_ROLE, _sender) || hasRole(BET_CREATOR_ROLE, _sender), \"This address doesn't belong to bettors.\");\n        _;\n    }\n\n    constructor(address _admin, address _betCreator, string memory _betCreatorName, address _opponent, address[] memory _creatorJudges, uint _minimumDeposit, uint _expirationTime) limitJudges(_creatorJudges){\n        _setupRole(DEFAULT_ADMIN_ROLE, _admin);\n        _setupRole(BET_CREATOR_ROLE, _betCreator);\n        _setupRole(BET_TAKER_ROLE, _opponent);\n        setupJudgeRole(_creatorJudges);\n        \n        bettors[_betCreator] = Bettor({\n                name: _betCreatorName,\n                votes: 0\n            });\n\n        minimumDeposit = _minimumDeposit;\n        expirationTime = _expirationTime;\n    }\n    \n    receive() external payable{}\n\n    function getBalance() public view returns(uint){\n        return address(this).balance;\n    }\n\n    function setupJudgeRole(address[] memory _judges) private{\n        for(uint i=0; i<_judges.length; i++){\n            _setupRole(JUDGE_ROLE, _judges[i]);\n        }\n    }\n    \n    function acceptBet(address[] memory _opponentJudges, string memory _betTakerName) public restrictJudges(_opponentJudges) limitJudges(_opponentJudges) minimumBetLimit(msg.value) onlyBetTaker(msg.sender) payable{\n        address _betTaker = this.getRoleMember(BET_TAKER_ROLE, 0); \n        bettors[_betTaker] = Bettor({\n                name: _betTakerName,\n                votes: 0\n            });\n        setupJudgeRole(_opponentJudges);\n    }\n    \n    function judgeVote(address _candidate) public canJudgeVote onlyBettors(_candidate) onlyVoteOnce(msg.sender) onlyJudge(msg.sender){    \n        bettors[_candidate].votes++;\n\n        if(bettors[_candidate].votes > MAX_JUDGES){\n            payable(_candidate).transfer(address(this).balance);\n        }\n\n        didVote[msg.sender] = true;\n    } \n}",
  "sourcePath": "/home/marko/Documents/betting-app/contracts/Bet.sol",
  "compiler": {
    "name": "solc",
    "version": "0.7.3+commit.9bfce1f6.Emscripten.clang"
  },
  "schemaVersion": "3.3.1",
  "updatedAt": "2020-10-22T16:59:17.135Z",
  "devdoc": {
    "kind": "dev",
    "methods": {
      "getRoleAdmin(bytes32)": {
        "details": "Returns the admin role that controls `role`. See {grantRole} and {revokeRole}. To change a role's admin, use {_setRoleAdmin}."
      },
      "getRoleMember(bytes32,uint256)": {
        "details": "Returns one of the accounts that have `role`. `index` must be a value between 0 and {getRoleMemberCount}, non-inclusive. Role bearers are not sorted in any particular way, and their ordering may change at any point. WARNING: When using {getRoleMember} and {getRoleMemberCount}, make sure you perform all queries on the same block. See the following https://forum.openzeppelin.com/t/iterating-over-elements-on-enumerableset-in-openzeppelin-contracts/2296[forum post] for more information."
      },
      "getRoleMemberCount(bytes32)": {
        "details": "Returns the number of accounts that have `role`. Can be used together with {getRoleMember} to enumerate all bearers of a role."
      },
      "grantRole(bytes32,address)": {
        "details": "Grants `role` to `account`. If `account` had not been already granted `role`, emits a {RoleGranted} event. Requirements: - the caller must have ``role``'s admin role."
      },
      "hasRole(bytes32,address)": {
        "details": "Returns `true` if `account` has been granted `role`."
      },
      "renounceRole(bytes32,address)": {
        "details": "Revokes `role` from the calling account. Roles are often managed via {grantRole} and {revokeRole}: this function's purpose is to provide a mechanism for accounts to lose their privileges if they are compromised (such as when a trusted device is misplaced). If the calling account had been granted `role`, emits a {RoleRevoked} event. Requirements: - the caller must be `account`."
      },
      "revokeRole(bytes32,address)": {
        "details": "Revokes `role` from `account`. If `account` had been granted `role`, emits a {RoleRevoked} event. Requirements: - the caller must have ``role``'s admin role."
      }
    },
    "version": 1
  },
  "userdoc": {
    "kind": "user",
    "methods": {},
    "version": 1
  }
}