{
  "contractName": "Bet",
  "abi": [
    {
      "inputs": [
        {
          "internalType": "address",
          "name": "_creator",
          "type": "address"
        },
        {
          "internalType": "address",
          "name": "_opponent",
          "type": "address"
        },
        {
          "internalType": "address[]",
          "name": "_judges",
          "type": "address[]"
        },
        {
          "internalType": "uint256",
          "name": "_minimumBet",
          "type": "uint256"
        },
        {
          "internalType": "uint256",
          "name": "_endTimeSec",
          "type": "uint256"
        },
        {
          "internalType": "bool",
          "name": "_creatorBetsOn",
          "type": "bool"
        }
      ],
      "stateMutability": "nonpayable",
      "type": "constructor"
    },
    {
      "inputs": [
        {
          "internalType": "bool",
          "name": "",
          "type": "bool"
        }
      ],
      "name": "betToAddress",
      "outputs": [
        {
          "internalType": "address",
          "name": "",
          "type": "address"
        }
      ],
      "stateMutability": "view",
      "type": "function"
    },
    {
      "inputs": [],
      "name": "creator",
      "outputs": [
        {
          "internalType": "address",
          "name": "",
          "type": "address"
        }
      ],
      "stateMutability": "view",
      "type": "function"
    },
    {
      "inputs": [
        {
          "internalType": "address",
          "name": "",
          "type": "address"
        }
      ],
      "name": "didVote",
      "outputs": [
        {
          "internalType": "bool",
          "name": "",
          "type": "bool"
        }
      ],
      "stateMutability": "view",
      "type": "function"
    },
    {
      "inputs": [],
      "name": "endTimeSec",
      "outputs": [
        {
          "internalType": "uint256",
          "name": "",
          "type": "uint256"
        }
      ],
      "stateMutability": "view",
      "type": "function"
    },
    {
      "inputs": [
        {
          "internalType": "address",
          "name": "",
          "type": "address"
        }
      ],
      "name": "isJudge",
      "outputs": [
        {
          "internalType": "bool",
          "name": "",
          "type": "bool"
        }
      ],
      "stateMutability": "view",
      "type": "function"
    },
    {
      "inputs": [],
      "name": "judgesCount",
      "outputs": [
        {
          "internalType": "uint256",
          "name": "",
          "type": "uint256"
        }
      ],
      "stateMutability": "view",
      "type": "function"
    },
    {
      "inputs": [],
      "name": "minimumBet",
      "outputs": [
        {
          "internalType": "uint256",
          "name": "",
          "type": "uint256"
        }
      ],
      "stateMutability": "view",
      "type": "function"
    },
    {
      "inputs": [],
      "name": "opponent",
      "outputs": [
        {
          "internalType": "address",
          "name": "",
          "type": "address"
        }
      ],
      "stateMutability": "view",
      "type": "function"
    },
    {
      "inputs": [],
      "name": "startTimeSec",
      "outputs": [
        {
          "internalType": "uint256",
          "name": "",
          "type": "uint256"
        }
      ],
      "stateMutability": "view",
      "type": "function"
    },
    {
      "inputs": [],
      "name": "votedNo",
      "outputs": [
        {
          "internalType": "uint256",
          "name": "",
          "type": "uint256"
        }
      ],
      "stateMutability": "view",
      "type": "function"
    },
    {
      "inputs": [],
      "name": "votedYes",
      "outputs": [
        {
          "internalType": "uint256",
          "name": "",
          "type": "uint256"
        }
      ],
      "stateMutability": "view",
      "type": "function"
    },
    {
      "stateMutability": "payable",
      "type": "receive"
    },
    {
      "inputs": [
        {
          "internalType": "address[]",
          "name": "_judges",
          "type": "address[]"
        }
      ],
      "name": "acceptBet",
      "outputs": [],
      "stateMutability": "payable",
      "type": "function"
    },
    {
      "inputs": [
        {
          "internalType": "bool",
          "name": "vote",
          "type": "bool"
        }
      ],
      "name": "judgeVote",
      "outputs": [],
      "stateMutability": "nonpayable",
      "type": "function"
    }
  ],
  "bytecode": "0x60806040523480156200001157600080fd5b50604051620014f5380380620014f5833981810160405260c08110156200003757600080fd5b810190808051906020019092919080519060200190929190805160405193929190846401000000008211156200006c57600080fd5b838201915060208201858111156200008357600080fd5b8251866020820283011164010000000082111715620000a157600080fd5b8083526020830192505050908051906020019060200280838360005b83811015620000da578082015181840152602081019050620000bd565b5050505090500160405260200180519060200190929190805190602001909291908051906020019092919050505085600860006101000a81548173ffffffffffffffffffffffffffffffffffffffff021916908373ffffffffffffffffffffffffffffffffffffffff16021790555084600960006101000a81548173ffffffffffffffffffffffffffffffffffffffff021916908373ffffffffffffffffffffffffffffffffffffffff1602179055508360069080519060200190620001a2929190620002a2565b5082600a819055508160028190555080600060026101000a81548160ff021916908315150217905550600860009054906101000a900473ffffffffffffffffffffffffffffffffffffffff16600d60008315151515815260200190815260200160002060006101000a81548173ffffffffffffffffffffffffffffffffffffffff021916908373ffffffffffffffffffffffffffffffffffffffff16021790555083516003819055504260018190555060008060016101000a81548160ff02191690831515021790555060008060006101000a81548160ff0219169083151502179055506000600481905550600060058190555050505050505062000350565b8280548282559060005260206000209081019282156200031e579160200282015b828111156200031d5782518260006101000a81548173ffffffffffffffffffffffffffffffffffffffff021916908373ffffffffffffffffffffffffffffffffffffffff16021790555091602001919060010190620002c3565b5b5090506200032d919062000331565b5090565b5b808211156200034c57600081600090555060010162000332565b5090565b61119580620003606000396000f3fe6080604052600436106100c65760003560e01c806393694f671161007f578063c38a8afd11610059578063c38a8afd14610398578063ed896d66146103c3578063f295c3ec1461042a578063f731b10e14610455576100cd565b806393694f6714610238578063b41f6b3f14610279578063b6be53b314610331576100cd565b806302d05d3f146100d25780631187d66e14610113578063354d91de1461013e578063622a39de146101a55780637bfa1cc1146101e25780637c24b2951461020d576100cd565b366100cd57005b600080fd5b3480156100de57600080fd5b506100e7610480565b604051808273ffffffffffffffffffffffffffffffffffffffff16815260200191505060405180910390f35b34801561011f57600080fd5b506101286104a6565b6040518082815260200191505060405180910390f35b34801561014a57600080fd5b5061018d6004803603602081101561016157600080fd5b81019080803573ffffffffffffffffffffffffffffffffffffffff1690602001909291905050506104ac565b60405180821515815260200191505060405180910390f35b3480156101b157600080fd5b506101e0600480360360208110156101c857600080fd5b810190808035151590602001909291905050506104cc565b005b3480156101ee57600080fd5b506101f7610a63565b6040518082815260200191505060405180910390f35b34801561021957600080fd5b50610222610a69565b6040518082815260200191505060405180910390f35b34801561024457600080fd5b5061024d610a6f565b604051808273ffffffffffffffffffffffffffffffffffffffff16815260200191505060405180910390f35b61032f6004803603602081101561028f57600080fd5b81019080803590602001906401000000008111156102ac57600080fd5b8201836020820111156102be57600080fd5b803590602001918460208302840111640100000000831117156102e057600080fd5b919080806020026020016040519081016040528093929190818152602001838360200280828437600081840152601f19601f820116905080830192505050505050509192919290505050610a95565b005b34801561033d57600080fd5b5061036c6004803603602081101561035457600080fd5b81019080803515159060200190929190505050610cf5565b604051808273ffffffffffffffffffffffffffffffffffffffff16815260200191505060405180910390f35b3480156103a457600080fd5b506103ad610d28565b6040518082815260200191505060405180910390f35b3480156103cf57600080fd5b50610412600480360360208110156103e657600080fd5b81019080803573ffffffffffffffffffffffffffffffffffffffff169060200190929190505050610d2e565b60405180821515815260200191505060405180910390f35b34801561043657600080fd5b5061043f610d4e565b6040518082815260200191505060405180910390f35b34801561046157600080fd5b5061046a610d54565b6040518082815260200191505060405180910390f35b600860009054906101000a900473ffffffffffffffffffffffffffffffffffffffff1681565b60055481565b600c6020528060005260406000206000915054906101000a900460ff1681565b600060019054906101000a900460ff1661054e576040517f08c379a00000000000000000000000000000000000000000000000000000000081526004018080602001828103825260148152602001807f426574206973206e6f742061636365707465642e00000000000000000000000081525060200191505060405180910390fd5b600c60003373ffffffffffffffffffffffffffffffffffffffff1673ffffffffffffffffffffffffffffffffffffffff16815260200190815260200160002060009054906101000a900460ff161561060e576040517f08c379a00000000000000000000000000000000000000000000000000000000081526004018080602001828103825260178152602001807f596f75206861766520616c726561647920766f7465642e00000000000000000081525060200191505060405180910390fd5b600b60003373ffffffffffffffffffffffffffffffffffffffff1673ffffffffffffffffffffffffffffffffffffffff16815260200190815260200160002060009054906101000a900460ff166106cd576040517f08c379a00000000000000000000000000000000000000000000000000000000081526004018080602001828103825260188152602001807f4f6e6c79206a75646765732061726520616c6c6f7765642e000000000000000081525060200191505060405180910390fd5b60008054906101000a900460ff161561074e576040517f08c379a000000000000000000000000000000000000000000000000000000000815260040180806020018281038252601b8152602001807f54686973206265742068617320616c726561647920656e6465642e000000000081525060200191505060405180910390fd5b801561076b5760046000815480929190600101919050555061077e565b6005600081548092919060010191905055505b600354600454111561082857600d6000600115151515815260200190815260200160002060009054906101000a900473ffffffffffffffffffffffffffffffffffffffff1673ffffffffffffffffffffffffffffffffffffffff166108fc479081150290604051600060405180830381858888f19350505050158015610808573d6000803e3d6000fd5b5060016000806101000a81548160ff021916908315150217905550610a08565b60035460055411156108d157600d60008015151515815260200190815260200160002060009054906101000a900473ffffffffffffffffffffffffffffffffffffffff1673ffffffffffffffffffffffffffffffffffffffff166108fc479081150290604051600060405180830381858888f193505050501580156108b1573d6000803e3d6000fd5b5060016000806101000a81548160ff021916908315150217905550610a07565b600260035402600454600554011415610a0657600d6000600115151515815260200190815260200160002060009054906101000a900473ffffffffffffffffffffffffffffffffffffffff1673ffffffffffffffffffffffffffffffffffffffff166108fc6002478161094057fe5b049081150290604051600060405180830381858888f1935050505015801561096c573d6000803e3d6000fd5b50600d60008015151515815260200190815260200160002060009054906101000a900473ffffffffffffffffffffffffffffffffffffffff1673ffffffffffffffffffffffffffffffffffffffff166108fc479081150290604051600060405180830381858888f193505050501580156109ea573d6000803e3d6000fd5b5060016000806101000a81548160ff0219169083151502179055505b5b5b6001600c60003373ffffffffffffffffffffffffffffffffffffffff1673ffffffffffffffffffffffffffffffffffffffff16815260200190815260200160002060006101000a81548160ff02191690831515021790555050565b60015481565b60045481565b600960009054906101000a900473ffffffffffffffffffffffffffffffffffffffff1681565b80600354815114610af1576040517f08c379a000000000000000000000000000000000000000000000000000000000815260040180806020018281038252602d815260200180611133602d913960400191505060405180910390fd5b600a54341015610b69576040517f08c379a00000000000000000000000000000000000000000000000000000000081526004018080602001828103825260188152602001807f496e73756666696369656e742065746865722073656e742e000000000000000081525060200191505060405180910390fd5b600060019054906101000a900460ff1615610bec576040517f08c379a00000000000000000000000000000000000000000000000000000000081526004018080602001828103825260198152602001807f596f7520616c7265616479206163636570746564206265742e0000000000000081525060200191505060405180910390fd5b600960009054906101000a900473ffffffffffffffffffffffffffffffffffffffff1673ffffffffffffffffffffffffffffffffffffffff163373ffffffffffffffffffffffffffffffffffffffff1614610c4657600080fd5b600960009054906101000a900473ffffffffffffffffffffffffffffffffffffffff16600d60008060029054906101000a900460ff161515151515815260200190815260200160002060006101000a81548173ffffffffffffffffffffffffffffffffffffffff021916908373ffffffffffffffffffffffffffffffffffffffff160217905550610cd682610d5a565b6001600060016101000a81548160ff0219169083151502179055505050565b600d6020528060005260406000206000915054906101000a900473ffffffffffffffffffffffffffffffffffffffff1681565b600a5481565b600b6020528060005260406000206000915054906101000a900460ff1681565b60025481565b60035481565b80600060078054905014610dd6576040517f08c379a00000000000000000000000000000000000000000000000000000000081526004018080602001828103825260198152602001807f596f7520616c7265616479206164646564206a75646765732e0000000000000081525060200191505060405180910390fd5b600960009054906101000a900473ffffffffffffffffffffffffffffffffffffffff168260005b8151811015610f34578273ffffffffffffffffffffffffffffffffffffffff16828281518110610e2957fe5b602002602001015173ffffffffffffffffffffffffffffffffffffffff161415610e5257600080fd5b600e6000838381518110610e6257fe5b602002602001015173ffffffffffffffffffffffffffffffffffffffff1673ffffffffffffffffffffffffffffffffffffffff16815260200190815260200160002060009054906101000a900460ff1615610ebc57600080fd5b6001600e6000848481518110610ece57fe5b602002602001015173ffffffffffffffffffffffffffffffffffffffff1673ffffffffffffffffffffffffffffffffffffffff16815260200190815260200160002060006101000a81548160ff0219169083151502179055508080600101915050610dfd565b508360079080519060200190610f4b92919061108b565b5060005b600354811015611084576001600b600060078481548110610f6c57fe5b9060005260206000200160009054906101000a900473ffffffffffffffffffffffffffffffffffffffff1673ffffffffffffffffffffffffffffffffffffffff1673ffffffffffffffffffffffffffffffffffffffff16815260200190815260200160002060006101000a81548160ff0219169083151502179055506001600b600060068481548110610ffb57fe5b9060005260206000200160009054906101000a900473ffffffffffffffffffffffffffffffffffffffff1673ffffffffffffffffffffffffffffffffffffffff1673ffffffffffffffffffffffffffffffffffffffff16815260200190815260200160002060006101000a81548160ff0219169083151502179055508080600101915050610f4f565b5050505050565b828054828255906000526020600020908101928215611104579160200282015b828111156111035782518260006101000a81548173ffffffffffffffffffffffffffffffffffffffff021916908373ffffffffffffffffffffffffffffffffffffffff160217905550916020019190600101906110ab565b5b5090506111119190611115565b5090565b5b8082111561112e576000816000905550600101611116565b509056fe4e756d626572206f66206a756467657320646f65736e2774206d6174636820796f7572206f70706f6e656e742ea2646970667358221220891a424ca166149ea7fe13ecc7a1179a605f454e854d8df233af872f13b1304464736f6c63430007030033",
  "immutableReferences": {},
  "source": "// SPDX-License-Identifier: MIT\npragma solidity ^0.7.3;\n\ncontract Bet {\n    \n    bool isBetOver;\n    bool isBetAccepted;\n    bool creatorBetsOn;\n    uint public startTimeSec;\n    uint public endTimeSec;\n    uint public judgesCount; \n    uint public votedYes;\n    uint public votedNo;\n    address[] creatorJudges;\n    address[] opponentJudges;\n    address public creator;\n    address public opponent;\n    uint public minimumBet;\n    \n    mapping(address => bool) public isJudge;\n    mapping(address => bool) public didVote;\n    mapping(bool => address) public betToAddress;\n    mapping(address => bool) addressExists;\n    \n    constructor(address _creator, address _opponent, address[] memory _judges, uint _minimumBet, uint _endTimeSec, bool _creatorBetsOn){\n        creator = _creator;\n        opponent = _opponent;\n        creatorJudges = _judges;\n        minimumBet = _minimumBet;\n        endTimeSec = _endTimeSec;\n        creatorBetsOn = _creatorBetsOn;\n        betToAddress[_creatorBetsOn] = creator;\n        \n        judgesCount = _judges.length;\n        startTimeSec = block.timestamp;\n        isBetAccepted = false;\n        isBetOver = false;\n        votedYes = 0;\n        votedNo = 0;\n    }\n    \n    receive() external payable{}\n    \n    modifier onlyOpponent(){\n        require(msg.sender == opponent);\n        _;\n    }\n    modifier equalJudgesNumber(address[] memory _judges){\n        require(_judges.length == judgesCount, \"Number of judges doesn't match your opponent.\");\n        _;\n    }\n    modifier limitJudges(address[] memory _judges){\n        require(opponentJudges.length == 0, \"You already added judges.\");\n        _;\n    }\n\n    modifier minimumBetLimit{\n        require(msg.value>=minimumBet, \"Insufficient ether sent.\");\n        _;\n    }\n\n    modifier betAlreadyAccepted{\n        require(!isBetAccepted, \"You already accepted bet.\");\n        _;\n    }\n\n    modifier betNotAccepted{\n        require(isBetAccepted, \"Bet is not accepted.\");\n        _;\n    }\n\n    modifier onlyVoteOnce{\n        require(!didVote[msg.sender], \"You have already voted.\");\n        _;\n    }\n\n    modifier onlyJudge{\n        require(isJudge[msg.sender], \"Only judges are allowed.\");\n        _;\n    }\n\n    modifier betNotOver{\n        require(!isBetOver, \"This bet has already ended.\");\n        _;\n    }\n    \n    // Cannot appoint same judge twice, creator cannot be judge\n    modifier restrictJudges(address _manager, address[] memory _judges){\n        for(uint i=0; i<_judges.length; i++){\n            require(_judges[i] != _manager);\n            require(!addressExists[_judges[i]]);\n            addressExists[_judges[i]] = true;\n        }\n        _;\n    }\n\n    function addJudges(address[] memory _judges) private limitJudges(_judges) restrictJudges(opponent, _judges){\n        opponentJudges = _judges;\n        for(uint i=0; i<judgesCount; i++){\n            isJudge[opponentJudges[i]] = true;\n            isJudge[creatorJudges[i]] = true;\n        }\n    }\n    \n    function acceptBet(address[] memory _judges) public equalJudgesNumber(_judges) minimumBetLimit betAlreadyAccepted onlyOpponent payable{\n        betToAddress[!creatorBetsOn] = opponent; \n        addJudges(_judges);\n        isBetAccepted=true;\n    }\n    \n    function judgeVote(bool vote) public betNotAccepted onlyVoteOnce onlyJudge betNotOver{ \n        if(vote){\n            votedYes++;\n        }\n        else{\n            votedNo++;\n        }\n        \n        if(votedYes>judgesCount){\n            payable(betToAddress[true]).transfer(address(this).balance);\n            isBetOver = true;\n        }\n        else if(votedNo>judgesCount){\n            payable(betToAddress[false]).transfer(address(this).balance);\n            isBetOver = true;\n        }\n        else if(votedNo + votedYes == judgesCount*2){\n            payable(betToAddress[true]).transfer(address(this).balance/2);\n            payable(betToAddress[false]).transfer(address(this).balance);\n            isBetOver = true;\n        }\n        didVote[msg.sender] = true;\n    } \n}",
  "sourcePath": "/home/marko/Documents/betting-app/contracts/Bet.sol",
  "compiler": {
    "name": "solc",
    "version": "0.7.3+commit.9bfce1f6.Emscripten.clang"
  },
  "schemaVersion": "3.3.1",
  "updatedAt": "2020-10-20T20:02:14.312Z",
  "devdoc": {
    "kind": "dev",
    "methods": {},
    "version": 1
  },
  "userdoc": {
    "kind": "user",
    "methods": {},
    "version": 1
  }
}