{
  "contractName": "BetFactory",
  "abi": [
    {
      "inputs": [],
      "stateMutability": "nonpayable",
      "type": "constructor"
    },
    {
      "anonymous": false,
      "inputs": [
        {
          "indexed": false,
          "internalType": "address",
          "name": "_value",
          "type": "address"
        }
      ],
      "name": "Deployed",
      "type": "event"
    },
    {
      "anonymous": false,
      "inputs": [
        {
          "indexed": true,
          "internalType": "bytes32",
          "name": "role",
          "type": "bytes32"
        },
        {
          "indexed": true,
          "internalType": "bytes32",
          "name": "previousAdminRole",
          "type": "bytes32"
        },
        {
          "indexed": true,
          "internalType": "bytes32",
          "name": "newAdminRole",
          "type": "bytes32"
        }
      ],
      "name": "RoleAdminChanged",
      "type": "event"
    },
    {
      "anonymous": false,
      "inputs": [
        {
          "indexed": true,
          "internalType": "bytes32",
          "name": "role",
          "type": "bytes32"
        },
        {
          "indexed": true,
          "internalType": "address",
          "name": "account",
          "type": "address"
        },
        {
          "indexed": true,
          "internalType": "address",
          "name": "sender",
          "type": "address"
        }
      ],
      "name": "RoleGranted",
      "type": "event"
    },
    {
      "anonymous": false,
      "inputs": [
        {
          "indexed": true,
          "internalType": "bytes32",
          "name": "role",
          "type": "bytes32"
        },
        {
          "indexed": true,
          "internalType": "address",
          "name": "account",
          "type": "address"
        },
        {
          "indexed": true,
          "internalType": "address",
          "name": "sender",
          "type": "address"
        }
      ],
      "name": "RoleRevoked",
      "type": "event"
    },
    {
      "inputs": [],
      "name": "DEFAULT_ADMIN_ROLE",
      "outputs": [
        {
          "internalType": "bytes32",
          "name": "",
          "type": "bytes32"
        }
      ],
      "stateMutability": "view",
      "type": "function"
    },
    {
      "inputs": [
        {
          "internalType": "bytes32",
          "name": "role",
          "type": "bytes32"
        }
      ],
      "name": "getRoleAdmin",
      "outputs": [
        {
          "internalType": "bytes32",
          "name": "",
          "type": "bytes32"
        }
      ],
      "stateMutability": "view",
      "type": "function"
    },
    {
      "inputs": [
        {
          "internalType": "bytes32",
          "name": "role",
          "type": "bytes32"
        },
        {
          "internalType": "uint256",
          "name": "index",
          "type": "uint256"
        }
      ],
      "name": "getRoleMember",
      "outputs": [
        {
          "internalType": "address",
          "name": "",
          "type": "address"
        }
      ],
      "stateMutability": "view",
      "type": "function"
    },
    {
      "inputs": [
        {
          "internalType": "bytes32",
          "name": "role",
          "type": "bytes32"
        }
      ],
      "name": "getRoleMemberCount",
      "outputs": [
        {
          "internalType": "uint256",
          "name": "",
          "type": "uint256"
        }
      ],
      "stateMutability": "view",
      "type": "function"
    },
    {
      "inputs": [
        {
          "internalType": "bytes32",
          "name": "role",
          "type": "bytes32"
        },
        {
          "internalType": "address",
          "name": "account",
          "type": "address"
        }
      ],
      "name": "grantRole",
      "outputs": [],
      "stateMutability": "nonpayable",
      "type": "function"
    },
    {
      "inputs": [
        {
          "internalType": "bytes32",
          "name": "role",
          "type": "bytes32"
        },
        {
          "internalType": "address",
          "name": "account",
          "type": "address"
        }
      ],
      "name": "hasRole",
      "outputs": [
        {
          "internalType": "bool",
          "name": "",
          "type": "bool"
        }
      ],
      "stateMutability": "view",
      "type": "function"
    },
    {
      "inputs": [
        {
          "internalType": "bytes32",
          "name": "role",
          "type": "bytes32"
        },
        {
          "internalType": "address",
          "name": "account",
          "type": "address"
        }
      ],
      "name": "renounceRole",
      "outputs": [],
      "stateMutability": "nonpayable",
      "type": "function"
    },
    {
      "inputs": [
        {
          "internalType": "bytes32",
          "name": "role",
          "type": "bytes32"
        },
        {
          "internalType": "address",
          "name": "account",
          "type": "address"
        }
      ],
      "name": "revokeRole",
      "outputs": [],
      "stateMutability": "nonpayable",
      "type": "function"
    },
    {
      "inputs": [
        {
          "internalType": "string",
          "name": "_betCreatorName",
          "type": "string"
        },
        {
          "internalType": "address",
          "name": "_opponent",
          "type": "address"
        },
        {
          "internalType": "address[]",
          "name": "_judges",
          "type": "address[]"
        },
        {
          "internalType": "uint256",
          "name": "_expirationTime",
          "type": "uint256"
        }
      ],
      "name": "createBet",
      "outputs": [],
      "stateMutability": "payable",
      "type": "function"
    },
    {
      "inputs": [],
      "name": "getDeployedBets",
      "outputs": [
        {
          "internalType": "contract Bet[]",
          "name": "",
          "type": "address[]"
        }
      ],
      "stateMutability": "view",
      "type": "function"
    },
    {
      "inputs": [],
      "name": "getAdmin",
      "outputs": [
        {
          "internalType": "address",
          "name": "",
          "type": "address"
        }
      ],
      "stateMutability": "view",
      "type": "function"
    }
  ],
  "bytecode": "0x60806040523480156200001157600080fd5b50620000276000801b336200002d60201b60201c565b620001c3565b6200003f82826200004360201b60201c565b5050565b6200007181600080858152602001908152602001600020600001620000e660201b62000c501790919060201c565b15620000e257620000876200011e60201b60201c565b73ffffffffffffffffffffffffffffffffffffffff168173ffffffffffffffffffffffffffffffffffffffff16837f2f8788117e7eff1d82e926ec794901d17c78024a50270940304540a733656f0d60405160405180910390a45b5050565b600062000116836000018373ffffffffffffffffffffffffffffffffffffffff1660001b6200012660201b60201c565b905092915050565b600033905090565b60006200013a8383620001a060201b60201c565b620001955782600001829080600181540180825580915050600190039060005260206000200160009091909190915055826000018054905083600101600084815260200190815260200160002081905550600190506200019a565b600090505b92915050565b600080836001016000848152602001908152602001600020541415905092915050565b61309c80620001d36000396000f3fe608060405260043610620000aa5760003560e01c806386a2b594116200006d57806386a2b59414620003865780639010d07c14620003f757806391d14854146200046a578063a217fddf14620004df578063ca15c873146200050d578063d547741f146200056057620000aa565b8063248a9ca314620000af5780632f2ff15d146200010257806336568abe14620001615780634fab5a4a14620001c05780636e9960c31462000342575b600080fd5b348015620000bc57600080fd5b50620000ec60048036036020811015620000d557600080fd5b8101908080359060200190929190505050620005bf565b6040518082815260200191505060405180910390f35b3480156200010f57600080fd5b506200015f600480360360408110156200012857600080fd5b8101908080359060200190929190803573ffffffffffffffffffffffffffffffffffffffff169060200190929190505050620005de565b005b3480156200016e57600080fd5b50620001be600480360360408110156200018757600080fd5b8101908080359060200190929190803573ffffffffffffffffffffffffffffffffffffffff1690602001909291905050506200066f565b005b6200034060048036036080811015620001d857600080fd5b8101908080359060200190640100000000811115620001f657600080fd5b8201836020820111156200020957600080fd5b803590602001918460018302840111640100000000831117156200022c57600080fd5b91908080601f016020809104026020016040519081016040528093929190818152602001838380828437600081840152601f19601f820116905080830192505050505050509192919290803573ffffffffffffffffffffffffffffffffffffffff16906020019092919080359060200190640100000000811115620002b057600080fd5b820183602082011115620002c357600080fd5b80359060200191846020830284011164010000000083111715620002e657600080fd5b919080806020026020016040519081016040528093929190818152602001838360200280828437600081840152601f19601f820116905080830192505050505050509192919290803590602001909291905050506200070e565b005b3480156200034f57600080fd5b506200035a62000974565b604051808273ffffffffffffffffffffffffffffffffffffffff16815260200191505060405180910390f35b3480156200039357600080fd5b506200039e62000a16565b6040518080602001828103825283818151815260200191508051906020019060200280838360005b83811015620003e3578082015181840152602081019050620003c6565b505050509050019250505060405180910390f35b3480156200040457600080fd5b506200043e600480360360408110156200041d57600080fd5b81019080803590602001909291908035906020019092919050505062000b2a565b604051808273ffffffffffffffffffffffffffffffffffffffff16815260200191505060405180910390f35b3480156200047757600080fd5b50620004c7600480360360408110156200049057600080fd5b8101908080359060200190929190803573ffffffffffffffffffffffffffffffffffffffff16906020019092919050505062000b5d565b60405180821515815260200191505060405180910390f35b348015620004ec57600080fd5b50620004f762000b90565b6040518082815260200191505060405180910390f35b3480156200051a57600080fd5b506200054a600480360360208110156200053357600080fd5b810190808035906020019092919050505062000b97565b6040518082815260200191505060405180910390f35b3480156200056d57600080fd5b50620005bd600480360360408110156200058657600080fd5b8101908080359060200190929190803573ffffffffffffffffffffffffffffffffffffffff16906020019092919050505062000bbf565b005b6000806000838152602001908152602001600020600201549050919050565b62000608600080848152602001908152602001600020600201546200060262000c82565b62000b5d565b6200065f576040517f08c379a000000000000000000000000000000000000000000000000000000000815260040180806020018281038252602f81526020018062002fd9602f913960400191505060405180910390fd5b6200066b828262000c8a565b5050565b6200067962000c82565b73ffffffffffffffffffffffffffffffffffffffff168173ffffffffffffffffffffffffffffffffffffffff1614620006fe576040517f08c379a000000000000000000000000000000000000000000000000000000000815260040180806020018281038252602f81526020018062003038602f913960400191505060405180910390fd5b6200070a828262000d22565b5050565b60006200071a62000974565b905060008133878787348860405162000733906200106c565b808873ffffffffffffffffffffffffffffffffffffffff1681526020018773ffffffffffffffffffffffffffffffffffffffff168152602001806020018673ffffffffffffffffffffffffffffffffffffffff16815260200180602001858152602001848152602001838103835288818151815260200191508051906020019080838360005b83811015620007d6578082015181840152602081019050620007b9565b50505050905090810190601f168015620008045780820380516001836020036101000a031916815260200191505b50838103825286818151815260200191508051906020019060200280838360005b838110156200084257808201518184015260208101905062000825565b505050509050019950505050505050505050604051809103906000f08015801562000871573d6000803e3d6000fd5b5090508073ffffffffffffffffffffffffffffffffffffffff166108fc349081150290604051600060405180830381858888f19350505050158015620008bb573d6000803e3d6000fd5b506001819080600181540180825580915050600190039060005260206000200160009091909190916101000a81548173ffffffffffffffffffffffffffffffffffffffff021916908373ffffffffffffffffffffffffffffffffffffffff1602179055507ff40fcec21964ffb566044d083b4073f29f7f7929110ea19e1b3ebe375d89055e81604051808273ffffffffffffffffffffffffffffffffffffffff16815260200191505060405180910390a1505050505050565b60003073ffffffffffffffffffffffffffffffffffffffff16639010d07c6000801b60006040518363ffffffff1660e01b8152600401808381526020018281526020019250505060206040518083038186803b158015620009d457600080fd5b505afa158015620009e9573d6000803e3d6000fd5b505050506040513d602081101562000a0057600080fd5b8101908080519060200190929190505050905090565b60603362000a286000801b8262000b5d565b62000a9b576040517f08c379a00000000000000000000000000000000000000000000000000000000081526004018080602001828103825260168152602001807f43616c6c6572206973206e6f7420616e2061646d696e0000000000000000000081525060200191505060405180910390fd5b600180548060200260200160405190810160405280929190818152602001828054801562000b1f57602002820191906000526020600020905b8160009054906101000a900473ffffffffffffffffffffffffffffffffffffffff1673ffffffffffffffffffffffffffffffffffffffff168152602001906001019080831162000ad4575b505050505091505090565b600062000b558260008086815260200190815260200160002060000162000dba90919063ffffffff16565b905092915050565b600062000b888260008086815260200190815260200160002060000162000dd690919063ffffffff16565b905092915050565b6000801b81565b600062000bb860008084815260200190815260200160002060000162000e08565b9050919050565b62000be96000808481526020019081526020016000206002015462000be362000c82565b62000b5d565b62000c40576040517f08c379a0000000000000000000000000000000000000000000000000000000008152600401808060200182810382526030815260200180620030086030913960400191505060405180910390fd5b62000c4c828262000d22565b5050565b600062000c7a836000018373ffffffffffffffffffffffffffffffffffffffff1660001b62000e1f565b905092915050565b600033905090565b62000cb38160008085815260200190815260200160002060000162000c5090919063ffffffff16565b1562000d1e5762000cc362000c82565b73ffffffffffffffffffffffffffffffffffffffff168173ffffffffffffffffffffffffffffffffffffffff16837f2f8788117e7eff1d82e926ec794901d17c78024a50270940304540a733656f0d60405160405180910390a45b5050565b62000d4b8160008085815260200190815260200160002060000162000e9390919063ffffffff16565b1562000db65762000d5b62000c82565b73ffffffffffffffffffffffffffffffffffffffff168173ffffffffffffffffffffffffffffffffffffffff16837ff6391f5c32d9c69d2a47ea670b442974b53935d1edc7fd64eb21e047a839171b60405160405180910390a45b5050565b600062000dcb836000018362000ec5565b60001c905092915050565b600062000e00836000018373ffffffffffffffffffffffffffffffffffffffff1660001b62000f4b565b905092915050565b600062000e188260000162000f6e565b9050919050565b600062000e2d838362000f4b565b62000e8857826000018290806001815401808255809150506001900390600052602060002001600090919091909150558260000180549050836001016000848152602001908152602001600020819055506001905062000e8d565b600090505b92915050565b600062000ebd836000018373ffffffffffffffffffffffffffffffffffffffff1660001b62000f7f565b905092915050565b60008183600001805490501162000f28576040517f08c379a000000000000000000000000000000000000000000000000000000000815260040180806020018281038252602281526020018062002fb76022913960400191505060405180910390fd5b82600001828154811062000f3857fe5b9060005260206000200154905092915050565b600080836001016000848152602001908152602001600020541415905092915050565b600081600001805490509050919050565b6000808360010160008481526020019081526020016000205490506000811462001060576000600182039050600060018660000180549050039050600086600001828154811062000fcc57fe5b906000526020600020015490508087600001848154811062000fea57fe5b90600052602060002001819055506001830187600101600083815260200190815260200160002081905550866000018054806200102357fe5b6001900381819060005260206000200160009055905586600101600087815260200190815260200160002060009055600194505050505062001066565b60009150505b92915050565b611f3c806200107b8339019056fe60806040523480156200001157600080fd5b5060405162001f3c38038062001f3c833981810160405260e08110156200003757600080fd5b810190808051906020019092919080519060200190929190805160405193929190846401000000008211156200006c57600080fd5b838201915060208201858111156200008357600080fd5b8251866001820283011164010000000082111715620000a157600080fd5b8083526020830192505050908051906020019080838360005b83811015620000d7578082015181840152602081019050620000ba565b50505050905090810190601f168015620001055780820380516001836020036101000a031916815260200191505b5060405260200180519060200190929190805160405193929190846401000000008211156200013357600080fd5b838201915060208201858111156200014a57600080fd5b82518660208202830111640100000000821117156200016857600080fd5b8083526020830192505050908051906020019060200280838360005b83811015620001a157808201518184015260208101905062000184565b50505050905001604052602001805190602001909291908051906020019092919050505082600281511462000222576040517f08c379a000000000000000000000000000000000000000000000000000000000815260040180806020018281038252602781526020018062001f156027913960400191505060405180910390fd5b620002376000801b896200034960201b60201c565b620002697f61d1bb7d7688fec169e00198b1bfb0436edf7b7587f293f9b0134c8cd6b65455886200034960201b60201c565b6200029b7f73fd03b4d1a4566cea36b263466aa5c47d098c2cd6a202bf47c932dc6689b4b4866200034960201b60201c565b620002ac846200035f60201b60201c565b60405180604001604052808781526020016000815250600460008973ffffffffffffffffffffffffffffffffffffffff1673ffffffffffffffffffffffffffffffffffffffff16815260200190815260200160002060008201518160000190805190602001906200031f92919062000544565b506020820151816001015590505082600281905550816001819055505050505050505050620005ea565b6200035b8282620003c460201b60201c565b5050565b60005b8151811015620003c057620003b27f9c4e6fd68fbdec6e3075ec7bfba710532af019aea93f5f59ebfe5a9d1a0b894e8383815181106200039e57fe5b60200260200101516200034960201b60201c565b808060010191505062000362565b5050565b620003f2816000808581526020019081526020016000206000016200046760201b620012c41790919060201c565b156200046357620004086200049f60201b60201c565b73ffffffffffffffffffffffffffffffffffffffff168173ffffffffffffffffffffffffffffffffffffffff16837f2f8788117e7eff1d82e926ec794901d17c78024a50270940304540a733656f0d60405160405180910390a45b5050565b600062000497836000018373ffffffffffffffffffffffffffffffffffffffff1660001b620004a760201b60201c565b905092915050565b600033905090565b6000620004bb83836200052160201b60201c565b620005165782600001829080600181540180825580915050600190039060005260206000200160009091909190915055826000018054905083600101600084815260200190815260200160002081905550600190506200051b565b600090505b92915050565b600080836001016000848152602001908152602001600020541415905092915050565b828054600181600116156101000203166002900490600052602060002090601f016020900481019282601f106200058757805160ff1916838001178555620005b8565b82800160010185558215620005b8579182015b82811115620005b75782518255916020019190600101906200059a565b5b509050620005c79190620005cb565b5090565b5b80821115620005e6576000816000905550600101620005cc565b5090565b61191b80620005fa6000396000f3fe6080604052600436106101185760003560e01c80635ef76cd6116100a0578063ca15c87311610064578063ca15c87314610594578063d547741f146105e3578063da284dcc1461063e578063e0e4758814610669578063e28e3bbd146106945761011f565b80635ef76cd614610433578063636bfbab1461045e5780639010d07c1461048957806391d14854146104f8578063a217fddf146105695761011f565b8063248a9ca3116100e7578063248a9ca3146102765780632f2ff15d146102c5578063354d91de1461032057806336568abe146103875780635e536deb146103e25761011f565b806306a29fa914610124578063098291441461014f57806312065fe01461017a57806322010c1f146101a55761011f565b3661011f57005b600080fd5b34801561013057600080fd5b506101396107e3565b6040518082815260200191505060405180910390f35b34801561015b57600080fd5b506101646107e8565b6040518082815260200191505060405180910390f35b34801561018657600080fd5b5061018f61080c565b6040518082815260200191505060405180910390f35b3480156101b157600080fd5b506101f4600480360360208110156101c857600080fd5b81019080803573ffffffffffffffffffffffffffffffffffffffff169060200190929190505050610814565b6040518080602001838152602001828103825284818151815260200191508051906020019080838360005b8381101561023a57808201518184015260208101905061021f565b50505050905090810190601f1680156102675780820380516001836020036101000a031916815260200191505b50935050505060405180910390f35b34801561028257600080fd5b506102af6004803603602081101561029957600080fd5b81019080803590602001909291905050506108d0565b6040518082815260200191505060405180910390f35b3480156102d157600080fd5b5061031e600480360360408110156102e857600080fd5b8101908080359060200190929190803573ffffffffffffffffffffffffffffffffffffffff1690602001909291905050506108ef565b005b34801561032c57600080fd5b5061036f6004803603602081101561034357600080fd5b81019080803573ffffffffffffffffffffffffffffffffffffffff169060200190929190505050610978565b60405180821515815260200191505060405180910390f35b34801561039357600080fd5b506103e0600480360360408110156103aa57600080fd5b8101908080359060200190929190803573ffffffffffffffffffffffffffffffffffffffff169060200190929190505050610998565b005b3480156103ee57600080fd5b506104316004803603602081101561040557600080fd5b81019080803573ffffffffffffffffffffffffffffffffffffffff169060200190929190505050610a31565b005b34801561043f57600080fd5b50610448610d92565b6040518082815260200191505060405180910390f35b34801561046a57600080fd5b50610473610db6565b6040518082815260200191505060405180910390f35b34801561049557600080fd5b506104cc600480360360408110156104ac57600080fd5b810190808035906020019092919080359060200190929190505050610dbc565b604051808273ffffffffffffffffffffffffffffffffffffffff16815260200191505060405180910390f35b34801561050457600080fd5b506105516004803603604081101561051b57600080fd5b8101908080359060200190929190803573ffffffffffffffffffffffffffffffffffffffff169060200190929190505050610ded565b60405180821515815260200191505060405180910390f35b34801561057557600080fd5b5061057e610e1e565b6040518082815260200191505060405180910390f35b3480156105a057600080fd5b506105cd600480360360208110156105b757600080fd5b8101908080359060200190929190505050610e25565b6040518082815260200191505060405180910390f35b3480156105ef57600080fd5b5061063c6004803603604081101561060657600080fd5b8101908080359060200190929190803573ffffffffffffffffffffffffffffffffffffffff169060200190929190505050610e4b565b005b34801561064a57600080fd5b50610653610ed4565b6040518082815260200191505060405180910390f35b34801561067557600080fd5b5061067e610eda565b6040518082815260200191505060405180910390f35b6107e1600480360360408110156106aa57600080fd5b81019080803590602001906401000000008111156106c757600080fd5b8201836020820111156106d957600080fd5b803590602001918460208302840111640100000000831117156106fb57600080fd5b919080806020026020016040519081016040528093929190818152602001838360200280828437600081840152601f19601f8201169050808301925050505050505091929192908035906020019064010000000081111561075b57600080fd5b82018360208201111561076d57600080fd5b8035906020019184600183028401116401000000008311171561078f57600080fd5b91908080601f016020809104026020016040519081016040528093929190818152602001838380828437600081840152601f19601f820116905080830192505050505050509192919290505050610efe565b005b600281565b7f61d1bb7d7688fec169e00198b1bfb0436edf7b7587f293f9b0134c8cd6b6545581565b600047905090565b6004602052806000526040600020600091509050806000018054600181600116156101000203166002900480601f0160208091040260200160405190810160405280929190818152602001828054600181600116156101000203166002900480156108c05780601f10610895576101008083540402835291602001916108c0565b820191906000526020600020905b8154815290600101906020018083116108a357829003601f168201915b5050505050908060010154905082565b6000806000838152602001908152602001600020600201549050919050565b610915600080848152602001908152602001600020600201546109106112f4565b610ded565b61096a576040517f08c379a000000000000000000000000000000000000000000000000000000000815260040180806020018281038252602f8152602001806117e8602f913960400191505060405180910390fd5b61097482826112fc565b5050565b60036020528060005260406000206000915054906101000a900460ff1681565b6109a06112f4565b73ffffffffffffffffffffffffffffffffffffffff168173ffffffffffffffffffffffffffffffffffffffff1614610a23576040517f08c379a000000000000000000000000000000000000000000000000000000000815260040180806020018281038252602f8152602001806118b7602f913960400191505060405180910390fd5b610a2d828261138f565b5050565b600154421015610a4057600080fd5b80610a6b7f73fd03b4d1a4566cea36b263466aa5c47d098c2cd6a202bf47c932dc6689b4b482610ded565b80610a9c5750610a9b7f61d1bb7d7688fec169e00198b1bfb0436edf7b7587f293f9b0134c8cd6b6545582610ded565b5b610af1576040517f08c379a00000000000000000000000000000000000000000000000000000000081526004018080602001828103825260278152602001806118696027913960400191505060405180910390fd5b33600360008273ffffffffffffffffffffffffffffffffffffffff1673ffffffffffffffffffffffffffffffffffffffff16815260200190815260200160002060009054906101000a900460ff1615610bb2576040517f08c379a00000000000000000000000000000000000000000000000000000000081526004018080602001828103825260178152602001807f596f75206861766520616c726561647920766f7465642e00000000000000000081525060200191505060405180910390fd5b33610bdd7f9c4e6fd68fbdec6e3075ec7bfba710532af019aea93f5f59ebfe5a9d1a0b894e82610ded565b610c4f576040517f08c379a00000000000000000000000000000000000000000000000000000000081526004018080602001828103825260168152602001807f43616c6c6572206973206e6f742061206a756467652e0000000000000000000081525060200191505060405180910390fd5b600460008573ffffffffffffffffffffffffffffffffffffffff1673ffffffffffffffffffffffffffffffffffffffff168152602001908152602001600020600101600081548092919060010191905055506002600460008673ffffffffffffffffffffffffffffffffffffffff1673ffffffffffffffffffffffffffffffffffffffff168152602001908152602001600020600101541115610d34578373ffffffffffffffffffffffffffffffffffffffff166108fc479081150290604051600060405180830381858888f19350505050158015610d32573d6000803e3d6000fd5b505b6001600360003373ffffffffffffffffffffffffffffffffffffffff1673ffffffffffffffffffffffffffffffffffffffff16815260200190815260200160002060006101000a81548160ff02191690831515021790555050505050565b7f73fd03b4d1a4566cea36b263466aa5c47d098c2cd6a202bf47c932dc6689b4b481565b60025481565b6000610de58260008086815260200190815260200160002060000161142290919063ffffffff16565b905092915050565b6000610e168260008086815260200190815260200160002060000161143c90919063ffffffff16565b905092915050565b6000801b81565b6000610e4460008084815260200190815260200160002060000161146c565b9050919050565b610e7160008084815260200190815260200160002060020154610e6c6112f4565b610ded565b610ec6576040517f08c379a00000000000000000000000000000000000000000000000000000000081526004018080602001828103825260308152602001806118396030913960400191505060405180910390fd5b610ed0828261138f565b5050565b60015481565b7f9c4e6fd68fbdec6e3075ec7bfba710532af019aea93f5f59ebfe5a9d1a0b894e81565b8160003073ffffffffffffffffffffffffffffffffffffffff1663ca15c8737f9c4e6fd68fbdec6e3075ec7bfba710532af019aea93f5f59ebfe5a9d1a0b894e6040518263ffffffff1660e01b81526004018082815260200191505060206040518083038186803b158015610f7257600080fd5b505afa158015610f86573d6000803e3d6000fd5b505050506040513d6020811015610f9c57600080fd5b8101908080519060200190929190505050905081518114611025576040517f08c379a000000000000000000000000000000000000000000000000000000000815260040180806020018281038252601e8152602001807f596f75206861766520616c7265616479206164646564206a75646765732e000081525060200191505060405180910390fd5b836002815114611080576040517f08c379a00000000000000000000000000000000000000000000000000000000081526004018080602001828103825260278152602001806118906027913960400191505060405180910390fd5b346002548110156110dc576040517f08c379a00000000000000000000000000000000000000000000000000000000081526004018080602001828103825260228152602001806118176022913960400191505060405180910390fd5b336111077f73fd03b4d1a4566cea36b263466aa5c47d098c2cd6a202bf47c932dc6689b4b482610ded565b611179576040517f08c379a00000000000000000000000000000000000000000000000000000000081526004018080602001828103825260198152602001807f43616c6c6572206973206e6f742061206265742074616b65720000000000000081525060200191505060405180910390fd5b60003073ffffffffffffffffffffffffffffffffffffffff16639010d07c7f73fd03b4d1a4566cea36b263466aa5c47d098c2cd6a202bf47c932dc6689b4b460006040518363ffffffff1660e01b8152600401808381526020018281526020019250505060206040518083038186803b1580156111f557600080fd5b505afa158015611209573d6000803e3d6000fd5b505050506040513d602081101561121f57600080fd5b8101908080519060200190929190505050905060405180604001604052808881526020016000815250600460008373ffffffffffffffffffffffffffffffffffffffff1673ffffffffffffffffffffffffffffffffffffffff16815260200190815260200160002060008201518160000190805190602001906112a3929190611728565b50602082015181600101559050506112ba88611481565b5050505050505050565b60006112ec836000018373ffffffffffffffffffffffffffffffffffffffff1660001b6114db565b905092915050565b600033905090565b611323816000808581526020019081526020016000206000016112c490919063ffffffff16565b1561138b576113306112f4565b73ffffffffffffffffffffffffffffffffffffffff168173ffffffffffffffffffffffffffffffffffffffff16837f2f8788117e7eff1d82e926ec794901d17c78024a50270940304540a733656f0d60405160405180910390a45b5050565b6113b68160008085815260200190815260200160002060000161154b90919063ffffffff16565b1561141e576113c36112f4565b73ffffffffffffffffffffffffffffffffffffffff168173ffffffffffffffffffffffffffffffffffffffff16837ff6391f5c32d9c69d2a47ea670b442974b53935d1edc7fd64eb21e047a839171b60405160405180910390a45b5050565b6000611431836000018361157b565b60001c905092915050565b6000611464836000018373ffffffffffffffffffffffffffffffffffffffff1660001b6115fe565b905092915050565b600061147a82600001611621565b9050919050565b60005b81518110156114d7576114ca7f9c4e6fd68fbdec6e3075ec7bfba710532af019aea93f5f59ebfe5a9d1a0b894e8383815181106114bd57fe5b6020026020010151611632565b8080600101915050611484565b5050565b60006114e783836115fe565b611540578260000182908060018154018082558091505060019003906000526020600020016000909190919091505582600001805490508360010160008481526020019081526020016000208190555060019050611545565b600090505b92915050565b6000611573836000018373ffffffffffffffffffffffffffffffffffffffff1660001b611640565b905092915050565b6000818360000180549050116115dc576040517f08c379a00000000000000000000000000000000000000000000000000000000081526004018080602001828103825260228152602001806117c66022913960400191505060405180910390fd5b8260000182815481106115eb57fe5b9060005260206000200154905092915050565b600080836001016000848152602001908152602001600020541415905092915050565b600081600001805490509050919050565b61163c82826112fc565b5050565b6000808360010160008481526020019081526020016000205490506000811461171c576000600182039050600060018660000180549050039050600086600001828154811061168b57fe5b90600052602060002001549050808760000184815481106116a857fe5b90600052602060002001819055506001830187600101600083815260200190815260200160002081905550866000018054806116e057fe5b60019003818190600052602060002001600090559055866001016000878152602001908152602001600020600090556001945050505050611722565b60009150505b92915050565b828054600181600116156101000203166002900490600052602060002090601f016020900481019282601f1061176957805160ff1916838001178555611797565b82800160010185558215611797579182015b8281111561179657825182559160200191906001019061177b565b5b5090506117a491906117a8565b5090565b5b808211156117c15760008160009055506001016117a9565b509056fe456e756d657261626c655365743a20696e646578206f7574206f6620626f756e6473416363657373436f6e74726f6c3a2073656e646572206d75737420626520616e2061646d696e20746f206772616e74496e73756666696369656e7420616d6f756e74206f662065746865722073656e742e416363657373436f6e74726f6c3a2073656e646572206d75737420626520616e2061646d696e20746f207265766f6b6554686973206164647265737320646f65736e27742062656c6f6e6720746f20626574746f72732e596f752063616e6e6f742061737369676e206d6f7265207468616e2074776f206a75646765732e416363657373436f6e74726f6c3a2063616e206f6e6c792072656e6f756e636520726f6c657320666f722073656c66a26469706673582212202b6fd69e15b75327ce851078c761acaeb24af53e27a42616e12aa32029e4518664736f6c63430007030033596f752063616e6e6f742061737369676e206d6f7265207468616e2074776f206a75646765732e456e756d657261626c655365743a20696e646578206f7574206f6620626f756e6473416363657373436f6e74726f6c3a2073656e646572206d75737420626520616e2061646d696e20746f206772616e74416363657373436f6e74726f6c3a2073656e646572206d75737420626520616e2061646d696e20746f207265766f6b65416363657373436f6e74726f6c3a2063616e206f6e6c792072656e6f756e636520726f6c657320666f722073656c66a26469706673582212209ad24eea8c51f9b6cffb5cb2ce5c96dc1f21ecf954a40af44e260267f500ab0064736f6c63430007030033",
  "immutableReferences": {},
  "source": "// SPDX-License-Identifier: MIT\npragma solidity ^0.7.3;\n\nimport \"@openzeppelin/contracts/access/AccessControl.sol\";\nimport \"./Bet.sol\";\n\ncontract BetFactory is AccessControl{\n    Bet[] deployedBets;\n\n    event Deployed(\n        address _value\n    );\n\n    modifier onlyAdmin(address _sender){\n        require(hasRole(DEFAULT_ADMIN_ROLE, _sender), \"Caller is not an admin\");\n        _;\n    }\n\n    constructor() {\n        _setupRole(DEFAULT_ADMIN_ROLE, msg.sender);\n    }\n\n    function createBet(string memory _betCreatorName, address _opponent, address[] memory _judges, uint _expirationTime) public payable{\n        address _admin = getAdmin();\n        Bet bet = new Bet(_admin, msg.sender, _betCreatorName, _opponent, _judges, msg.value, _expirationTime);\n        payable(address(bet)).transfer(msg.value);\n        deployedBets.push(bet);\n        emit Deployed(address(bet));\n    }\n\n    function getDeployedBets() public view onlyAdmin(msg.sender) returns(Bet[] memory){\n        return deployedBets;\n    }\n\n    // Only admin can call this?\n    function getAdmin() public view returns(address){\n        return this.getRoleMember(DEFAULT_ADMIN_ROLE, 0);\n    }\n    \n}",
  "sourcePath": "/home/marko/Documents/betting-app/contracts/BetFactory.sol",
  "compiler": {
    "name": "solc",
    "version": "0.7.3+commit.9bfce1f6.Emscripten.clang"
  },
  "schemaVersion": "3.3.1",
  "updatedAt": "2020-10-22T16:59:17.139Z",
  "devdoc": {
    "kind": "dev",
    "methods": {
      "getRoleAdmin(bytes32)": {
        "details": "Returns the admin role that controls `role`. See {grantRole} and {revokeRole}. To change a role's admin, use {_setRoleAdmin}."
      },
      "getRoleMember(bytes32,uint256)": {
        "details": "Returns one of the accounts that have `role`. `index` must be a value between 0 and {getRoleMemberCount}, non-inclusive. Role bearers are not sorted in any particular way, and their ordering may change at any point. WARNING: When using {getRoleMember} and {getRoleMemberCount}, make sure you perform all queries on the same block. See the following https://forum.openzeppelin.com/t/iterating-over-elements-on-enumerableset-in-openzeppelin-contracts/2296[forum post] for more information."
      },
      "getRoleMemberCount(bytes32)": {
        "details": "Returns the number of accounts that have `role`. Can be used together with {getRoleMember} to enumerate all bearers of a role."
      },
      "grantRole(bytes32,address)": {
        "details": "Grants `role` to `account`. If `account` had not been already granted `role`, emits a {RoleGranted} event. Requirements: - the caller must have ``role``'s admin role."
      },
      "hasRole(bytes32,address)": {
        "details": "Returns `true` if `account` has been granted `role`."
      },
      "renounceRole(bytes32,address)": {
        "details": "Revokes `role` from the calling account. Roles are often managed via {grantRole} and {revokeRole}: this function's purpose is to provide a mechanism for accounts to lose their privileges if they are compromised (such as when a trusted device is misplaced). If the calling account had been granted `role`, emits a {RoleRevoked} event. Requirements: - the caller must be `account`."
      },
      "revokeRole(bytes32,address)": {
        "details": "Revokes `role` from `account`. If `account` had been granted `role`, emits a {RoleRevoked} event. Requirements: - the caller must have ``role``'s admin role."
      }
    },
    "version": 1
  },
  "userdoc": {
    "kind": "user",
    "methods": {},
    "version": 1
  }
}