{
  "contractName": "BetFactory",
  "abi": [
    {
      "inputs": [],
      "stateMutability": "nonpayable",
      "type": "constructor"
    },
    {
      "anonymous": false,
      "inputs": [
        {
          "indexed": false,
          "internalType": "address",
          "name": "_value",
          "type": "address"
        }
      ],
      "name": "Deployed",
      "type": "event"
    },
    {
      "inputs": [
        {
          "internalType": "address",
          "name": "_opponent",
          "type": "address"
        },
        {
          "internalType": "address[]",
          "name": "_judges",
          "type": "address[]"
        },
        {
          "internalType": "uint256",
          "name": "_expirationTime",
          "type": "uint256"
        },
        {
          "internalType": "bool",
          "name": "_betsOn",
          "type": "bool"
        }
      ],
      "name": "createBet",
      "outputs": [],
      "stateMutability": "payable",
      "type": "function"
    },
    {
      "inputs": [],
      "name": "getDeployedBets",
      "outputs": [
        {
          "internalType": "contract Bet[]",
          "name": "",
          "type": "address[]"
        }
      ],
      "stateMutability": "view",
      "type": "function"
    },
    {
      "inputs": [],
      "name": "getManager",
      "outputs": [
        {
          "internalType": "address",
          "name": "",
          "type": "address"
        }
      ],
      "stateMutability": "view",
      "type": "function"
    }
  ],
  "bytecode": "0x608060405234801561001057600080fd5b5033600160006101000a81548173ffffffffffffffffffffffffffffffffffffffff021916908373ffffffffffffffffffffffffffffffffffffffff160217905550611a5d806100616000396000f3fe6080604052600436106100345760003560e01c806341eb13ae1461003957806386a2b59414610127578063d500958414610193575b600080fd5b6101256004803603608081101561004f57600080fd5b81019080803573ffffffffffffffffffffffffffffffffffffffff1690602001909291908035906020019064010000000081111561008c57600080fd5b82018360208201111561009e57600080fd5b803590602001918460208302840111640100000000831117156100c057600080fd5b919080806020026020016040519081016040528093929190818152602001838360200280828437600081840152601f19601f820116905080830192505050505050509192919290803590602001909291908035151590602001909291905050506101d4565b005b34801561013357600080fd5b5061013c6103a1565b6040518080602001828103825283818151815260200191508051906020019060200280838360005b8381101561017f578082015181840152602081019050610164565b505050509050019250505060405180910390f35b34801561019f57600080fd5b506101a861042f565b604051808273ffffffffffffffffffffffffffffffffffffffff16815260200191505060405180910390f35b60003385853486866040516101e890610459565b808773ffffffffffffffffffffffffffffffffffffffff1681526020018673ffffffffffffffffffffffffffffffffffffffff168152602001806020018581526020018481526020018315158152602001828103825286818151815260200191508051906020019060200280838360005b83811015610274578082015181840152602081019050610259565b50505050905001975050505050505050604051809103906000f0801580156102a0573d6000803e3d6000fd5b5090508073ffffffffffffffffffffffffffffffffffffffff166108fc349081150290604051600060405180830381858888f193505050501580156102e9573d6000803e3d6000fd5b506000819080600181540180825580915050600190039060005260206000200160009091909190916101000a81548173ffffffffffffffffffffffffffffffffffffffff021916908373ffffffffffffffffffffffffffffffffffffffff1602179055507ff40fcec21964ffb566044d083b4073f29f7f7929110ea19e1b3ebe375d89055e81604051808273ffffffffffffffffffffffffffffffffffffffff16815260200191505060405180910390a15050505050565b6060600080548060200260200160405190810160405280929190818152602001828054801561042557602002820191906000526020600020905b8160009054906101000a900473ffffffffffffffffffffffffffffffffffffffff1673ffffffffffffffffffffffffffffffffffffffff16815260200190600101908083116103db575b5050505050905090565b6000600160009054906101000a900473ffffffffffffffffffffffffffffffffffffffff16905090565b6115c1806104678339019056fe60806040523480156200001157600080fd5b50604051620015c1380380620015c1833981810160405260c08110156200003757600080fd5b810190808051906020019092919080519060200190929190805160405193929190846401000000008211156200006c57600080fd5b838201915060208201858111156200008357600080fd5b8251866020820283011164010000000082111715620000a157600080fd5b8083526020830192505050908051906020019060200280838360005b83811015620000da578082015181840152602081019050620000bd565b50505050905001604052602001805190602001909291908051906020019092919080519060200190929190505050428281811162000180576040517f08c379a000000000000000000000000000000000000000000000000000000000815260040180806020018281038252601c8152602001807f496e76616c6964206265742065787069726174696f6e2074696d652e0000000081525060200191505060405180910390fd5b878660005b81518110156200037f576000600b6000848481518110620001a257fe5b602002602001015173ffffffffffffffffffffffffffffffffffffffff1673ffffffffffffffffffffffffffffffffffffffff16815260200190815260200160002060009054906101000a900460ff16905080156200024d576040517f08c379a0000000000000000000000000000000000000000000000000000000008152600401808060200182810382526029815260200180620015986029913960400191505060405180910390fd5b8373ffffffffffffffffffffffffffffffffffffffff168383815181106200027157fe5b602002602001015173ffffffffffffffffffffffffffffffffffffffff16141562000304576040517f08c379a00000000000000000000000000000000000000000000000000000000081526004018080602001828103825260168152602001807f596f752063616e6e6f742062652061206a756467652e0000000000000000000081525060200191505060405180910390fd5b6001600b60008585815181106200031757fe5b602002602001015173ffffffffffffffffffffffffffffffffffffffff1673ffffffffffffffffffffffffffffffffffffffff16815260200190815260200160002060006101000a81548160ff02191690831515021790555050808060010191505062000185565b5089600860006101000a81548173ffffffffffffffffffffffffffffffffffffffff021916908373ffffffffffffffffffffffffffffffffffffffff16021790555088600960006101000a81548173ffffffffffffffffffffffffffffffffffffffff021916908373ffffffffffffffffffffffffffffffffffffffff16021790555087600690805190602001906200041a929190620004c7565b5086600a8190555085600281905550846000806101000a81548160ff02191690831515021790555089600d60008715151515815260200190815260200160002060006101000a81548173ffffffffffffffffffffffffffffffffffffffff021916908373ffffffffffffffffffffffffffffffffffffffff160217905550875160038190555042600181905550600060048190555060006005819055505050505050505050505062000575565b82805482825590600052602060002090810192821562000543579160200282015b82811115620005425782518260006101000a81548173ffffffffffffffffffffffffffffffffffffffff021916908373ffffffffffffffffffffffffffffffffffffffff16021790555091602001919060010190620004e8565b5b50905062000552919062000556565b5090565b5b808211156200057157600081600090555060010162000557565b5090565b61101380620005856000396000f3fe6080604052600436106100e15760003560e01c8063b41f6b3f1161007f578063da284dcc11610059578063da284dcc146103a2578063ed896d66146103cd578063f731b10e14610434578063f75180c01461045f576100e8565b8063b41f6b3f14610294578063c38a8afd1461034c578063d8270dce14610377576100e8565b8063354d91de116100bb578063354d91de14610184578063622a39de146101eb5780637c24b2951461022857806393694f6714610253576100e8565b80631187d66e146100ed57806312065fe0146101185780632b4fb37a14610143576100e8565b366100e857005b600080fd5b3480156100f957600080fd5b506101026104c6565b6040518082815260200191505060405180910390f35b34801561012457600080fd5b5061012d6104cc565b6040518082815260200191505060405180910390f35b34801561014f57600080fd5b506101586104d4565b604051808273ffffffffffffffffffffffffffffffffffffffff16815260200191505060405180910390f35b34801561019057600080fd5b506101d3600480360360208110156101a757600080fd5b81019080803573ffffffffffffffffffffffffffffffffffffffff1690602001909291905050506104fa565b60405180821515815260200191505060405180910390f35b3480156101f757600080fd5b506102266004803603602081101561020e57600080fd5b8101908080351515906020019092919050505061051a565b005b34801561023457600080fd5b5061023d610964565b6040518082815260200191505060405180910390f35b34801561025f57600080fd5b5061026861096a565b604051808273ffffffffffffffffffffffffffffffffffffffff16815260200191505060405180910390f35b61034a600480360360208110156102aa57600080fd5b81019080803590602001906401000000008111156102c757600080fd5b8201836020820111156102d957600080fd5b803590602001918460208302840111640100000000831117156102fb57600080fd5b919080806020026020016040519081016040528093929190818152602001838360200280828437600081840152601f19601f820116905080830192505050505050509192919290505050610990565b005b34801561035857600080fd5b50610361610e2c565b6040518082815260200191505060405180910390f35b34801561038357600080fd5b5061038c610e32565b6040518082815260200191505060405180910390f35b3480156103ae57600080fd5b506103b7610e38565b6040518082815260200191505060405180910390f35b3480156103d957600080fd5b5061041c600480360360208110156103f057600080fd5b81019080803573ffffffffffffffffffffffffffffffffffffffff169060200190929190505050610e3e565b60405180821515815260200191505060405180910390f35b34801561044057600080fd5b50610449610e5e565b6040518082815260200191505060405180910390f35b34801561046b57600080fd5b5061049a6004803603602081101561048257600080fd5b81019080803515159060200190929190505050610e64565b604051808273ffffffffffffffffffffffffffffffffffffffff16815260200191505060405180910390f35b60055481565b600047905090565b600860009054906101000a900473ffffffffffffffffffffffffffffffffffffffff1681565b600c6020528060005260406000206000915054906101000a900460ff1681565b33600c60008273ffffffffffffffffffffffffffffffffffffffff1673ffffffffffffffffffffffffffffffffffffffff16815260200190815260200160002060009054906101000a900460ff16156105db576040517f08c379a00000000000000000000000000000000000000000000000000000000081526004018080602001828103825260178152602001807f596f75206861766520616c726561647920766f7465642e00000000000000000081525060200191505060405180910390fd5b33600b60008273ffffffffffffffffffffffffffffffffffffffff1673ffffffffffffffffffffffffffffffffffffffff16815260200190815260200160002060009054906101000a900460ff1661069b576040517f08c379a00000000000000000000000000000000000000000000000000000000081526004018080602001828103825260208152602001807f4f6e6c79206a75646765732061726520616c6c6f77656420746f20766f74652e81525060200191505060405180910390fd5b82156106b8576004600081548092919060010191905055506106cb565b6005600081548092919060010191905055505b600354600454111561075b57600d6000600115151515815260200190815260200160002060009054906101000a900473ffffffffffffffffffffffffffffffffffffffff1673ffffffffffffffffffffffffffffffffffffffff166108fc479081150290604051600060405180830381858888f19350505050158015610755573d6000803e3d6000fd5b50610907565b60035460055411156107ea57600d60008015151515815260200190815260200160002060009054906101000a900473ffffffffffffffffffffffffffffffffffffffff1673ffffffffffffffffffffffffffffffffffffffff166108fc479081150290604051600060405180830381858888f193505050501580156107e4573d6000803e3d6000fd5b50610906565b60026003540260045460055401141561090557600d6000600115151515815260200190815260200160002060009054906101000a900473ffffffffffffffffffffffffffffffffffffffff1673ffffffffffffffffffffffffffffffffffffffff166108fc6002478161085957fe5b049081150290604051600060405180830381858888f19350505050158015610885573d6000803e3d6000fd5b50600d60008015151515815260200190815260200160002060009054906101000a900473ffffffffffffffffffffffffffffffffffffffff1673ffffffffffffffffffffffffffffffffffffffff166108fc479081150290604051600060405180830381858888f19350505050158015610903573d6000803e3d6000fd5b505b5b5b6001600c60003373ffffffffffffffffffffffffffffffffffffffff1673ffffffffffffffffffffffffffffffffffffffff16815260200190815260200160002060006101000a81548160ff021916908315150217905550505050565b60045481565b600960009054906101000a900473ffffffffffffffffffffffffffffffffffffffff1681565b806003548151146109ec576040517f08c379a000000000000000000000000000000000000000000000000000000000815260040180806020018281038252602d815260200180610f88602d913960400191505060405180910390fd5b81600060078054905014610a68576040517f08c379a000000000000000000000000000000000000000000000000000000000815260040180806020018281038252601e8152602001807f596f75206861766520616c7265616479206164646564206a75646765732e000081525060200191505060405180910390fd5b600960009054906101000a900473ffffffffffffffffffffffffffffffffffffffff168360005b8151811015610c81576000600b6000848481518110610aaa57fe5b602002602001015173ffffffffffffffffffffffffffffffffffffffff1673ffffffffffffffffffffffffffffffffffffffff16815260200190815260200160002060009054906101000a900460ff1690508015610b53576040517f08c379a0000000000000000000000000000000000000000000000000000000008152600401808060200182810382526029815260200180610fb56029913960400191505060405180910390fd5b8373ffffffffffffffffffffffffffffffffffffffff16838381518110610b7657fe5b602002602001015173ffffffffffffffffffffffffffffffffffffffff161415610c08576040517f08c379a00000000000000000000000000000000000000000000000000000000081526004018080602001828103825260168152602001807f596f752063616e6e6f742062652061206a756467652e0000000000000000000081525060200191505060405180910390fd5b6001600b6000858581518110610c1a57fe5b602002602001015173ffffffffffffffffffffffffffffffffffffffff1673ffffffffffffffffffffffffffffffffffffffff16815260200190815260200160002060006101000a81548160ff021916908315150217905550508080600101915050610a8f565b5034600a54811015610cde576040517f08c379a0000000000000000000000000000000000000000000000000000000008152600401808060200182810382526022815260200180610f3f6022913960400191505060405180910390fd5b33600960009054906101000a900473ffffffffffffffffffffffffffffffffffffffff1673ffffffffffffffffffffffffffffffffffffffff168173ffffffffffffffffffffffffffffffffffffffff1614610d85576040517f08c379a0000000000000000000000000000000000000000000000000000000008152600401808060200182810382526027815260200180610f616027913960400191505060405180910390fd5b600960009054906101000a900473ffffffffffffffffffffffffffffffffffffffff16600d60008060009054906101000a900460ff161515151515815260200190815260200160002060006101000a81548173ffffffffffffffffffffffffffffffffffffffff021916908373ffffffffffffffffffffffffffffffffffffffff1602179055508660079080519060200190610e22929190610e97565b5050505050505050565b600a5481565b60015481565b60025481565b600b6020528060005260406000206000915054906101000a900460ff1681565b60035481565b600d6020528060005260406000206000915054906101000a900473ffffffffffffffffffffffffffffffffffffffff1681565b828054828255906000526020600020908101928215610f10579160200282015b82811115610f0f5782518260006101000a81548173ffffffffffffffffffffffffffffffffffffffff021916908373ffffffffffffffffffffffffffffffffffffffff16021790555091602001919060010190610eb7565b5b509050610f1d9190610f21565b5090565b5b80821115610f3a576000816000905550600101610f22565b509056fe496e73756666696369656e7420616d6f756e74206f662065746865722073656e742e596f7520617265206e6f7420616c6c6f77656420746f206163636570742074686973206265742e4e756d626572206f66206a756467657320646f65736e2774206d6174636820796f7572206f70706f6e656e742e596f7520686176652061646465642073616d65206a75646765206d6f7265207468616e206f6e63652ea26469706673582212207d7c44e9f4aca850eec6dac288be95e7f7f614e79e9b4fb99b3fb59fe74a853c64736f6c63430007030033596f7520686176652061646465642073616d65206a75646765206d6f7265207468616e206f6e63652ea2646970667358221220922687ff7702b38062f32e892fdeebf615abcf637096c89de4f6aa4b90d48e2264736f6c63430007030033",
  "immutableReferences": {},
  "source": "// SPDX-License-Identifier: MIT\npragma solidity ^0.7.3;\n\nimport \"./Bet.sol\";\n\ncontract BetFactory {\n    \n    Bet[] deployedBets;\n    address factoryManager;\n\n    event Deployed(\n        address _value\n    );\n\n    constructor() {\n        factoryManager = msg.sender;\n    }\n\n    function createBet(address _opponent, address[] memory _judges, uint _expirationTime, bool _betsOn) public payable{\n        Bet bet = new Bet(msg.sender, _opponent, _judges, msg.value, _expirationTime, _betsOn);\n        payable(address(bet)).transfer(msg.value);\n        deployedBets.push(bet);\n        emit Deployed(address(bet));\n    }\n\n    function getDeployedBets() public view returns(Bet[] memory){\n        return deployedBets;\n    }\n\n    function getManager() public view returns(address){\n        return factoryManager;\n    }\n    \n}",
  "sourcePath": "/home/marko/Documents/betting-app/contracts/BetFactory.sol",
  "compiler": {
    "name": "solc",
    "version": "0.7.3+commit.9bfce1f6.Emscripten.clang"
  },
  "schemaVersion": "3.3.1",
  "updatedAt": "2020-10-21T13:53:22.207Z",
  "devdoc": {
    "kind": "dev",
    "methods": {},
    "version": 1
  },
  "userdoc": {
    "kind": "user",
    "methods": {},
    "version": 1
  }
}