{
  "contractName": "BetFactory",
  "abi": [
    {
      "inputs": [
        {
          "internalType": "uint256",
          "name": "",
          "type": "uint256"
        }
      ],
      "name": "deployedBets",
      "outputs": [
        {
          "internalType": "address",
          "name": "",
          "type": "address"
        }
      ],
      "stateMutability": "view",
      "type": "function",
      "constant": true
    },
    {
      "inputs": [
        {
          "internalType": "address",
          "name": "_opponent",
          "type": "address"
        },
        {
          "internalType": "address[]",
          "name": "judges",
          "type": "address[]"
        },
        {
          "internalType": "uint256",
          "name": "endTimeSec",
          "type": "uint256"
        },
        {
          "internalType": "bool",
          "name": "betsOn",
          "type": "bool"
        }
      ],
      "name": "createBet",
      "outputs": [],
      "stateMutability": "payable",
      "type": "function",
      "payable": true
    },
    {
      "inputs": [],
      "name": "getDeployedBets",
      "outputs": [
        {
          "internalType": "address[]",
          "name": "",
          "type": "address[]"
        }
      ],
      "stateMutability": "view",
      "type": "function",
      "constant": true
    }
  ],
  "bytecode": "0x608060405234801561001057600080fd5b5061173a806100206000396000f3fe6080604052600436106100345760003560e01c80633a5fccee1461003957806341eb13ae1461009e57806386a2b5941461018c575b600080fd5b34801561004557600080fd5b506100726004803603602081101561005c57600080fd5b81019080803590602001909291905050506101f8565b604051808273ffffffffffffffffffffffffffffffffffffffff16815260200191505060405180910390f35b61018a600480360360808110156100b457600080fd5b81019080803573ffffffffffffffffffffffffffffffffffffffff169060200190929190803590602001906401000000008111156100f157600080fd5b82018360208201111561010357600080fd5b8035906020019184602083028401116401000000008311171561012557600080fd5b919080806020026020016040519081016040528093929190818152602001838360200280828437600081840152601f19601f82011690508083019250505050505050919291929080359060200190929190803515159060200190929190505050610234565b005b34801561019857600080fd5b506101a161047d565b6040518080602001828103825283818151815260200191508051906020019060200280838360005b838110156101e45780820151818401526020810190506101c9565b505050509050019250505060405180910390f35b6000818154811061020557fe5b906000526020600020016000915054906101000a900473ffffffffffffffffffffffffffffffffffffffff1681565b600160009054906101000a900473ffffffffffffffffffffffffffffffffffffffff1673ffffffffffffffffffffffffffffffffffffffff163373ffffffffffffffffffffffffffffffffffffffff161461028e57600080fd5b83600160006101000a81548173ffffffffffffffffffffffffffffffffffffffff021916908373ffffffffffffffffffffffffffffffffffffffff1602179055504282116102db57600080fd5b600033600160009054906101000a900473ffffffffffffffffffffffffffffffffffffffff16853486866040516103119061050b565b808773ffffffffffffffffffffffffffffffffffffffff1681526020018673ffffffffffffffffffffffffffffffffffffffff168152602001806020018581526020018481526020018315158152602001828103825286818151815260200191508051906020019060200280838360005b8381101561039d578082015181840152602081019050610382565b50505050905001975050505050505050604051809103906000f0801580156103c9573d6000803e3d6000fd5b5090508073ffffffffffffffffffffffffffffffffffffffff166108fc349081150290604051600060405180830381858888f19350505050158015610412573d6000803e3d6000fd5b506000819080600181540180825580915050600190039060005260206000200160009091909190916101000a81548173ffffffffffffffffffffffffffffffffffffffff021916908373ffffffffffffffffffffffffffffffffffffffff1602179055505050505050565b6060600080548060200260200160405190810160405280929190818152602001828054801561050157602002820191906000526020600020905b8160009054906101000a900473ffffffffffffffffffffffffffffffffffffffff1673ffffffffffffffffffffffffffffffffffffffff16815260200190600101908083116104b7575b5050505050905090565b6111ec806105198339019056fe60806040523480156200001157600080fd5b50604051620011ec380380620011ec833981810160405260c08110156200003757600080fd5b810190808051906020019092919080519060200190929190805160405193929190846401000000008211156200006c57600080fd5b838201915060208201858111156200008357600080fd5b8251866020820283011164010000000082111715620000a157600080fd5b8083526020830192505050908051906020019060200280838360005b83811015620000da578082015181840152602081019050620000bd565b5050505090500160405260200180519060200190929190805190602001909291908051906020019092919050505085600860006101000a81548173ffffffffffffffffffffffffffffffffffffffff021916908373ffffffffffffffffffffffffffffffffffffffff16021790555084600960006101000a81548173ffffffffffffffffffffffffffffffffffffffff021916908373ffffffffffffffffffffffffffffffffffffffff1602179055508360069080519060200190620001a2929190620002a2565b5082600a819055508160028190555080600060026101000a81548160ff021916908315150217905550600860009054906101000a900473ffffffffffffffffffffffffffffffffffffffff16600d60008315151515815260200190815260200160002060006101000a81548173ffffffffffffffffffffffffffffffffffffffff021916908373ffffffffffffffffffffffffffffffffffffffff16021790555083516003819055504260018190555060008060016101000a81548160ff02191690831515021790555060008060006101000a81548160ff0219169083151502179055506000600481905550600060058190555050505050505062000350565b8280548282559060005260206000209081019282156200031e579160200282015b828111156200031d5782518260006101000a81548173ffffffffffffffffffffffffffffffffffffffff021916908373ffffffffffffffffffffffffffffffffffffffff16021790555091602001919060010190620002c3565b5b5090506200032d919062000331565b5090565b5b808211156200034c57600081600090555060010162000332565b5090565b610e8c80620003606000396000f3fe6080604052600436106100c65760003560e01c806393694f671161007f578063c38a8afd11610059578063c38a8afd14610398578063ed896d66146103c3578063f295c3ec1461042a578063f731b10e14610455576100cd565b806393694f6714610238578063b41f6b3f14610279578063b6be53b314610331576100cd565b806302d05d3f146100d25780632ab1303714610113578063354d91de1461013e578063622a39de146101a55780637bfa1cc1146101e25780638d0fc05a1461020d576100cd565b366100cd57005b600080fd5b3480156100de57600080fd5b506100e7610480565b604051808273ffffffffffffffffffffffffffffffffffffffff16815260200191505060405180910390f35b34801561011f57600080fd5b506101286104a6565b6040518082815260200191505060405180910390f35b34801561014a57600080fd5b5061018d6004803603602081101561016157600080fd5b81019080803573ffffffffffffffffffffffffffffffffffffffff1690602001909291905050506104ac565b60405180821515815260200191505060405180910390f35b3480156101b157600080fd5b506101e0600480360360208110156101c857600080fd5b810190808035151590602001909291905050506104cc565b005b3480156101ee57600080fd5b506101f76108bf565b6040518082815260200191505060405180910390f35b34801561021957600080fd5b506102226108c5565b6040518082815260200191505060405180910390f35b34801561024457600080fd5b5061024d6108cb565b604051808273ffffffffffffffffffffffffffffffffffffffff16815260200191505060405180910390f35b61032f6004803603602081101561028f57600080fd5b81019080803590602001906401000000008111156102ac57600080fd5b8201836020820111156102be57600080fd5b803590602001918460208302840111640100000000831117156102e057600080fd5b919080806020026020016040519081016040528093929190818152602001838360200280828437600081840152601f19601f8201169050808301925050505050505091929192905050506108f1565b005b34801561033d57600080fd5b5061036c6004803603602081101561035457600080fd5b81019080803515159060200190929190505050610b4f565b604051808273ffffffffffffffffffffffffffffffffffffffff16815260200191505060405180910390f35b3480156103a457600080fd5b506103ad610b82565b6040518082815260200191505060405180910390f35b3480156103cf57600080fd5b50610412600480360360208110156103e657600080fd5b81019080803573ffffffffffffffffffffffffffffffffffffffff169060200190929190505050610b88565b60405180821515815260200191505060405180910390f35b34801561043657600080fd5b5061043f610ba8565b6040518082815260200191505060405180910390f35b34801561046157600080fd5b5061046a610bae565b6040518082815260200191505060405180910390f35b600860009054906101000a900473ffffffffffffffffffffffffffffffffffffffff1681565b60055481565b600c6020528060005260406000206000915054906101000a900460ff1681565b600060019054906101000a900460ff166104e557600080fd5b600b60003373ffffffffffffffffffffffffffffffffffffffff1673ffffffffffffffffffffffffffffffffffffffff16815260200190815260200160002060009054906101000a900460ff1661053b57600080fd5b600c60003373ffffffffffffffffffffffffffffffffffffffff1673ffffffffffffffffffffffffffffffffffffffff16815260200190815260200160002060009054906101000a900460ff161561059257600080fd5b60008054906101000a900460ff16156105aa57600080fd5b80156105c7576004600081548092919060010191905055506105da565b6005600081548092919060010191905055505b600354600454111561068457600d6000600115151515815260200190815260200160002060009054906101000a900473ffffffffffffffffffffffffffffffffffffffff1673ffffffffffffffffffffffffffffffffffffffff166108fc479081150290604051600060405180830381858888f19350505050158015610664573d6000803e3d6000fd5b5060016000806101000a81548160ff021916908315150217905550610864565b600354600554111561072d57600d60008015151515815260200190815260200160002060009054906101000a900473ffffffffffffffffffffffffffffffffffffffff1673ffffffffffffffffffffffffffffffffffffffff166108fc479081150290604051600060405180830381858888f1935050505015801561070d573d6000803e3d6000fd5b5060016000806101000a81548160ff021916908315150217905550610863565b60026003540260045460055401141561086257600d6000600115151515815260200190815260200160002060009054906101000a900473ffffffffffffffffffffffffffffffffffffffff1673ffffffffffffffffffffffffffffffffffffffff166108fc6002478161079c57fe5b049081150290604051600060405180830381858888f193505050501580156107c8573d6000803e3d6000fd5b50600d60008015151515815260200190815260200160002060009054906101000a900473ffffffffffffffffffffffffffffffffffffffff1673ffffffffffffffffffffffffffffffffffffffff166108fc479081150290604051600060405180830381858888f19350505050158015610846573d6000803e3d6000fd5b5060016000806101000a81548160ff0219169083151502179055505b5b5b6001600c60003373ffffffffffffffffffffffffffffffffffffffff1673ffffffffffffffffffffffffffffffffffffffff16815260200190815260200160002060006101000a81548160ff02191690831515021790555050565b60015481565b60045481565b600960009054906101000a900473ffffffffffffffffffffffffffffffffffffffff1681565b600960009054906101000a900473ffffffffffffffffffffffffffffffffffffffff1673ffffffffffffffffffffffffffffffffffffffff163373ffffffffffffffffffffffffffffffffffffffff161461094b57600080fd5b6003548151146109a6576040517f08c379a000000000000000000000000000000000000000000000000000000000815260040180806020018281038252602d815260200180610e2a602d913960400191505060405180910390fd5b600a54341015610a1e576040517f08c379a00000000000000000000000000000000000000000000000000000000081526004018080602001828103825260188152602001807f496e73756666696369656e742065746865722073656e742e000000000000000081525060200191505060405180910390fd5b600060019054906101000a900460ff1615610aa1576040517f08c379a00000000000000000000000000000000000000000000000000000000081526004018080602001828103825260198152602001807f596f7520616c7265616479206163636570746564206265742e0000000000000081525060200191505060405180910390fd5b600960009054906101000a900473ffffffffffffffffffffffffffffffffffffffff16600d60008060029054906101000a900460ff161515151515815260200190815260200160002060006101000a81548173ffffffffffffffffffffffffffffffffffffffff021916908373ffffffffffffffffffffffffffffffffffffffff160217905550610b3181610bb4565b6001600060016101000a81548160ff02191690831515021790555050565b600d6020528060005260406000206000915054906101000a900473ffffffffffffffffffffffffffffffffffffffff1681565b600a5481565b600b6020528060005260406000206000915054906101000a900460ff1681565b60025481565b60035481565b600060078054905014610c2f576040517f08c379a00000000000000000000000000000000000000000000000000000000081526004018080602001828103825260198152602001807f596f7520616c7265616479206164646564206a75646765732e0000000000000081525060200191505060405180910390fd5b8060079080519060200190610c45929190610d82565b5060005b600354811015610d7e576001600b600060078481548110610c6657fe5b9060005260206000200160009054906101000a900473ffffffffffffffffffffffffffffffffffffffff1673ffffffffffffffffffffffffffffffffffffffff1673ffffffffffffffffffffffffffffffffffffffff16815260200190815260200160002060006101000a81548160ff0219169083151502179055506001600b600060068481548110610cf557fe5b9060005260206000200160009054906101000a900473ffffffffffffffffffffffffffffffffffffffff1673ffffffffffffffffffffffffffffffffffffffff1673ffffffffffffffffffffffffffffffffffffffff16815260200190815260200160002060006101000a81548160ff0219169083151502179055508080600101915050610c49565b5050565b828054828255906000526020600020908101928215610dfb579160200282015b82811115610dfa5782518260006101000a81548173ffffffffffffffffffffffffffffffffffffffff021916908373ffffffffffffffffffffffffffffffffffffffff16021790555091602001919060010190610da2565b5b509050610e089190610e0c565b5090565b5b80821115610e25576000816000905550600101610e0d565b509056fe4e756d626572206f66206a756467657320646f65736e2774206d6174636820796f7572206f70706f6e656e742ea2646970667358221220880f70aabbb8958e8a65005b95cf87a64c05dbcd43b46d3f20415f78614d65aa64736f6c63430007030033a2646970667358221220cf5213c4d0ebbf57411eeb65998d003e5ecc8acd067603dede001f2e1fdfd51964736f6c63430007030033",
  "immutableReferences": {},
  "source": "// SPDX-License-Identifier: MIT\npragma solidity ^0.7.3;\n\nimport \"./Bet.sol\";\n\ncontract BetFactory {\n    \n    address[] public deployedBets;\n    address opponent;\n    function createBet(address _opponent, address[] memory judges, uint endTimeSec, bool betsOn) public payable timeRestricted{\n        // Vrijeme isteka ugovora mora biti u budućnosti\n        opponent = _opponent;\n        require(endTimeSec > block.timestamp);\n        address payable bet = payable(address(new Bet(msg.sender, opponent, judges, msg.value, endTimeSec, betsOn)));\n        bet.transfer(msg.value);\n        deployedBets.push(bet);\n    }\n\n    // Cannot bet on something that already happened\n    modifier timeRestricted(){\n        require(msg.sender == opponent);\n        _;\n    }\n\n    function getDeployedBets() public view returns(address[] memory){\n        return deployedBets;\n    }\n}",
  "sourcePath": "/home/marko/Documents/betting-app/contracts/BetFactory.sol",
  "compiler": {
    "name": "solc",
    "version": "0.7.3+commit.9bfce1f6.Emscripten.clang"
  },
  "schemaVersion": "3.3.1",
  "updatedAt": "2020-10-19T18:09:26.379Z",
  "networkType": "ethereum",
  "devdoc": {
    "kind": "dev",
    "methods": {},
    "version": 1
  },
  "userdoc": {
    "kind": "user",
    "methods": {},
    "version": 1
  }
}